{
  "address": "0x712516e61C8B383dF4A63CFe83d7701Bce54B03e",
  "abi": [
    {
      "inputs": [
        {
          "internalType": "address",
          "name": "_keys",
          "type": "address"
        }
      ],
      "stateMutability": "nonpayable",
      "type": "constructor"
    },
    {
      "inputs": [
        {
          "internalType": "bytes",
          "name": "data",
          "type": "bytes"
        }
      ],
      "name": "from",
      "outputs": [
        {
          "internalType": "bytes",
          "name": "",
          "type": "bytes"
        }
      ],
      "stateMutability": "pure",
      "type": "function"
    },
    {
      "inputs": [
        {
          "internalType": "bytes",
          "name": "data",
          "type": "bytes"
        }
      ],
      "name": "hash",
      "outputs": [
        {
          "internalType": "bytes32",
          "name": "",
          "type": "bytes32"
        }
      ],
      "stateMutability": "pure",
      "type": "function"
    },
    {
      "inputs": [
        {
          "internalType": "bytes",
          "name": "data",
          "type": "bytes"
        }
      ],
      "name": "subject",
      "outputs": [
        {
          "internalType": "bytes",
          "name": "",
          "type": "bytes"
        }
      ],
      "stateMutability": "pure",
      "type": "function"
    },
    {
      "inputs": [
        {
          "internalType": "bytes32",
          "name": "server",
          "type": "bytes32"
        },
        {
          "internalType": "bytes",
          "name": "data",
          "type": "bytes"
        },
        {
          "internalType": "bytes",
          "name": "signature",
          "type": "bytes"
        }
      ],
      "name": "verify",
      "outputs": [
        {
          "internalType": "bool",
          "name": "",
          "type": "bool"
        }
      ],
      "stateMutability": "view",
      "type": "function"
    }
  ],
  "transactionHash": "0xd99de0da8955c851eff5fa981a2f90520b31c99d24b00bdc6b9a4c886102e23a",
  "args": [
    "0x948B3c65b89DF0B4894ABE91E6D02FE579834F8F"
  ],
  "numDeployments": 1,
  "solcInputHash": "be222504d6281d379979e56804b0c406",
  "bytecode": "0x608060405234801561001057600080fd5b50604051610b1b380380610b1b83398101604081905261002f91610054565b600080546001600160a01b0319166001600160a01b0392909216919091179055610084565b60006020828403121561006657600080fd5b81516001600160a01b038116811461007d57600080fd5b9392505050565b610a88806100936000396000f3fe608060405234801561001057600080fd5b506004361061004c5760003560e01c8063391c87c8146100515780635bf48e3a1461007a578063a3364fd91461009d578063aa1e84de146100b0575b600080fd5b61006461005f366004610738565b6100d1565b60405161007191906107dc565b60405180910390f35b61008d610088366004610876565b61010f565b6040519015158152602001610071565b6100646100ab366004610738565b6102b4565b6100c36100be366004610738565b6102d2565b604051908152602001610071565b606060006100df8382610343565b905060006100ee846004610343565b90506101078463ffffffff80851690808516906103c816565b949350505050565b600080546040517f12aaac7000000000000000000000000000000000000000000000000000000000815260048101889052829173ffffffffffffffffffffffffffffffffffffffff16906312aaac7090602401600060405180830381865afa15801561017f573d6000803e3d6000fd5b505050506040513d6000823e601f3d9081017fffffffffffffffffffffffffffffffffffffffffffffffffffffffffffffffe01682016040526101c591908101906108f0565b905060006060610241836040518060400160405280600381526020017f010001000000000000000000000000000000000000000000000000000000000081525088888080601f01602080910402602001604051908101604052809392919081815260200183838082843760009201919091525061054292505050565b90925090508180156102a757506102666020825161025f9190610996565b829061055d565b6102a589898080601f0160208091040260200160405190810160405280939291908181526020018383808284376000920191909152506102d292505050565b145b9998505050505050505050565b606060006102c3836008610343565b905060006100ee84600c610343565b600060026102f060108085516102e89190610996565b8591906103c8565b6040516102fd91906109a9565b602060405180830381855afa15801561031a573d6000803e3d6000fd5b5050506040513d601f19601f8201168201806040525081019061033d91906109c5565b92915050565b60006103508260046109de565b835110156103bf576040517f08c379a000000000000000000000000000000000000000000000000000000000815260206004820152601460248201527f746f55696e7433325f6f75744f66426f756e647300000000000000000000000060448201526064015b60405180910390fd5b50016004015190565b6060816103d681601f6109de565b101561043e576040517f08c379a000000000000000000000000000000000000000000000000000000000815260206004820152600e60248201527f736c6963655f6f766572666c6f7700000000000000000000000000000000000060448201526064016103b6565b61044882846109de565b845110156104b2576040517f08c379a000000000000000000000000000000000000000000000000000000000815260206004820152601160248201527f736c6963655f6f75744f66426f756e647300000000000000000000000000000060448201526064016103b6565b6060821580156104d15760405191506000825260208201604052610539565b6040519150601f8416801560200281840101858101878315602002848b0101015b8183101561050a5780518352602092830192016104f2565b5050858452601f017fffffffffffffffffffffffffffffffffffffffffffffffffffffffffffffffe016604052505b50949350505050565b600060606105518385876105dd565b91509150935093915050565b600061056a8260206109de565b835110156105d4576040517f08c379a000000000000000000000000000000000000000000000000000000000815260206004820152601560248201527f746f427974657333325f6f75744f66426f756e6473000000000000000000000060448201526064016103b6565b50016020015190565b600060606000855185518551888888604051602001610601969594939291906109f1565b6040516020818303038152906040529050835167ffffffffffffffff81111561062c5761062c610674565b6040519080825280601f01601f191660200182016040528015610656576020820181803683370190505b50915083516020830182516020840160055afa925050935093915050565b7f4e487b7100000000000000000000000000000000000000000000000000000000600052604160045260246000fd5b604051601f82017fffffffffffffffffffffffffffffffffffffffffffffffffffffffffffffffe016810167ffffffffffffffff811182821017156106ea576106ea610674565b604052919050565b600067ffffffffffffffff82111561070c5761070c610674565b50601f017fffffffffffffffffffffffffffffffffffffffffffffffffffffffffffffffe01660200190565b60006020828403121561074a57600080fd5b813567ffffffffffffffff81111561076157600080fd5b8201601f8101841361077257600080fd5b8035610785610780826106f2565b6106a3565b81815285602083850101111561079a57600080fd5b81602084016020830137600091810160200191909152949350505050565b60005b838110156107d35781810151838201526020016107bb565b50506000910152565b60208152600082518060208401526107fb8160408501602087016107b8565b601f017fffffffffffffffffffffffffffffffffffffffffffffffffffffffffffffffe0169190910160400192915050565b60008083601f84011261083f57600080fd5b50813567ffffffffffffffff81111561085757600080fd5b60208301915083602082850101111561086f57600080fd5b9250929050565b60008060008060006060868803121561088e57600080fd5b85359450602086013567ffffffffffffffff808211156108ad57600080fd5b6108b989838a0161082d565b909650945060408801359150808211156108d257600080fd5b506108df8882890161082d565b969995985093965092949392505050565b60006020828403121561090257600080fd5b815167ffffffffffffffff81111561091957600080fd5b8201601f8101841361092a57600080fd5b8051610938610780826106f2565b81815285602083850101111561094d57600080fd5b61095e8260208301602086016107b8565b95945050505050565b7f4e487b7100000000000000000000000000000000000000000000000000000000600052601160045260246000fd5b8181038181111561033d5761033d610967565b600082516109bb8184602087016107b8565b9190910192915050565b6000602082840312156109d757600080fd5b5051919050565b8082018082111561033d5761033d610967565b86815285602082015284604082015260008451610a158160608501602089016107b8565b845190830190610a2c8160608401602089016107b8565b8451910190610a428160608401602088016107b8565b016060019897505050505050505056fea2646970667358221220fb5c527e183cfa28f55ee52113a4aecadaa90506d24bba1d700d22cd942ad3ac64736f6c63430008130033",
  "devdoc": {
    "kind": "dev",
    "methods": {},
    "version": 1
  },
  "userdoc": {
    "kind": "user",
    "methods": {},
    "version": 1
  },
  "storageLayout": {
    "storage": [
      {
        "astId": 9255,
        "contract": "lib/solidity-dkim/src/DkimVerifier.sol:DkimVerifier",
        "label": "keys",
        "offset": 0,
        "slot": "0",
        "type": "t_contract(DkimKeys)9241"
      }
    ],
    "types": {
      "t_contract(DkimKeys)9241": {
        "encoding": "inplace",
        "label": "contract DkimKeys",
        "numberOfBytes": "20"
      }
    }
  }
}