{
  "address": "0xf40a8ef65a74E7B0587bf8C1A3eC09E6602B88c8",
  "abi": [
    {
      "inputs": [
        {
          "internalType": "bytes32",
          "name": "message",
          "type": "bytes32"
        },
        {
          "internalType": "bytes",
          "name": "signature",
          "type": "bytes"
        },
        {
          "internalType": "bytes",
          "name": "publicKey",
          "type": "bytes"
        }
      ],
      "name": "validateSignature",
      "outputs": [
        {
          "internalType": "bool",
          "name": "result",
          "type": "bool"
        }
      ],
      "stateMutability": "view",
      "type": "function"
    }
  ],
  "transactionHash": "0xec01bdfa5af9862b58026770b0e547b49684f57b1054edd781eb9331532cc490",
  "args": [],
  "numDeployments": 1,
  "solcInputHash": "be222504d6281d379979e56804b0c406",
  "bytecode": "0x608060405234801561001057600080fd5b50610208806100206000396000f3fe608060405234801561001057600080fd5b506004361061002b5760003560e01c8063ae7e17f014610030575b600080fd5b61004361003e366004610136565b610057565b604051901515815260200160405180910390f35b600080808080610069888a018a6101b0565b909450925061007a868801886101b0565b809250819350505060006040518b81528560208201528460408201527f0400000000000000000000000000000000000000000000000000000000000000606082015283606182015282608182015260018260a1836180015afa905080801561002b575050519a9950505050505050505050565b60008083601f8401126100ff57600080fd5b50813567ffffffffffffffff81111561011757600080fd5b60208301915083602082850101111561012f57600080fd5b9250929050565b60008060008060006060868803121561014e57600080fd5b85359450602086013567ffffffffffffffff8082111561016d57600080fd5b61017989838a016100ed565b9096509450604088013591508082111561019257600080fd5b5061019f888289016100ed565b969995985093965092949392505050565b600080604083850312156101c357600080fd5b5050803592602090910135915056fea26469706673582212205d59f78d8a164fbdccd022098ad8bcc04ad529cf18176951788f7fc867b7702d64736f6c63430008130033",
  "devdoc": {
    "kind": "dev",
    "methods": {},
    "version": 1
  },
  "userdoc": {
    "kind": "user",
    "methods": {},
    "version": 1
  },
  "storageLayout": {
    "storage": [],
    "types": null
  }
}