{
  "address": "0xa42050Ff47f243e8A83aEABdbeddBE4631e2F3D7",
  "abi": [
    {
      "inputs": [
        {
          "internalType": "address[]",
          "name": "addresses",
          "type": "address[]"
        }
      ],
      "name": "getCodeHashes",
      "outputs": [
        {
          "internalType": "bytes32",
          "name": "",
          "type": "bytes32"
        }
      ],
      "stateMutability": "view",
      "type": "function"
    },
    {
      "inputs": [
        {
          "internalType": "contract IEntryPoint",
          "name": "entryPoint",
          "type": "address"
        },
        {
          "components": [
            {
              "internalType": "address",
              "name": "sender",
              "type": "address"
            },
            {
              "internalType": "uint256",
              "name": "nonce",
              "type": "uint256"
            },
            {
              "internalType": "bytes",
              "name": "initCode",
              "type": "bytes"
            },
            {
              "internalType": "bytes",
              "name": "callData",
              "type": "bytes"
            },
            {
              "internalType": "uint256",
              "name": "callGasLimit",
              "type": "uint256"
            },
            {
              "internalType": "uint256",
              "name": "verificationGasLimit",
              "type": "uint256"
            },
            {
              "internalType": "uint256",
              "name": "preVerificationGas",
              "type": "uint256"
            },
            {
              "internalType": "uint256",
              "name": "maxFeePerGas",
              "type": "uint256"
            },
            {
              "internalType": "uint256",
              "name": "maxPriorityFeePerGas",
              "type": "uint256"
            },
            {
              "internalType": "bytes",
              "name": "paymasterAndData",
              "type": "bytes"
            },
            {
              "internalType": "bytes",
              "name": "signature",
              "type": "bytes"
            }
          ],
          "internalType": "struct UserOperation[]",
          "name": "userOps",
          "type": "tuple[]"
        }
      ],
      "name": "getUserOpHashes",
      "outputs": [
        {
          "internalType": "bytes32[]",
          "name": "ret",
          "type": "bytes32[]"
        }
      ],
      "stateMutability": "view",
      "type": "function"
    }
  ],
  "transactionHash": "0x8eea152e9d7c4e6beb1aae67d8de9e330849ce94eafd0d4182d8ce2d9d0d570a",
  "args": [],
  "numDeployments": 2,
  "solcInputHash": "61dffa7bfb61a134e5d7b976a9af925d",
  "bytecode": "0x608060405234801561001057600080fd5b50610891806100206000396000f3fe608060405234801561001057600080fd5b50600436106100365760003560e01c80633024e00c1461003b5780637b34b62114610064575b600080fd5b61004e6100493660046103de565b610085565b60405161005b91906105a2565b60405180910390f35b6100776100723660046105e6565b6101a2565b60405190815260200161005b565b6060815167ffffffffffffffff8111156100a1576100a16102b0565b6040519080825280602002602001820160405280156100ca578160200160208202803683370190505b50905060005b825181101561019b578373ffffffffffffffffffffffffffffffffffffffff1663a619353184838151811061010757610107610680565b60200260200101516040518263ffffffff1660e01b815260040161012b91906106f5565b602060405180830381865afa158015610148573d6000803e3d6000fd5b505050506040513d601f19601f8201168201806040525081019061016c91906107e3565b82828151811061017e5761017e610680565b602090810291909101015280610193816107fc565b9150506100d0565b5092915050565b600080825167ffffffffffffffff8111156101bf576101bf6102b0565b6040519080825280602002602001820160405280156101e8578160200160208202803683370190505b50905060005b83518110156102575783818151811061020957610209610680565b602002602001015173ffffffffffffffffffffffffffffffffffffffff163f82828151811061023a5761023a610680565b60209081029190910101528061024f816107fc565b9150506101ee565b5060008160405160200161026b91906105a2565b60408051601f198184030181529190528051602090910120949350505050565b73ffffffffffffffffffffffffffffffffffffffff811681146102ad57600080fd5b50565b7f4e487b7100000000000000000000000000000000000000000000000000000000600052604160045260246000fd5b604051610160810167ffffffffffffffff81118282101715610303576103036102b0565b60405290565b604051601f8201601f1916810167ffffffffffffffff81118282101715610332576103326102b0565b604052919050565b600067ffffffffffffffff821115610354576103546102b0565b5060051b60200190565b80356103698161028b565b919050565b600082601f83011261037f57600080fd5b813567ffffffffffffffff811115610399576103996102b0565b6103ac6020601f19601f84011601610309565b8181528460208386010111156103c157600080fd5b816020850160208301376000918101602001919091529392505050565b600080604083850312156103f157600080fd5b82356103fc8161028b565b915060208381013567ffffffffffffffff8082111561041a57600080fd5b818601915086601f83011261042e57600080fd5b813561044161043c8261033a565b610309565b81815260059190911b8301840190848101908983111561046057600080fd5b8585015b838110156105915780358581111561047b57600080fd5b8601610160818d03601f1901121561049257600080fd5b61049a6102df565b6104a589830161035e565b81526040820135898201526060820135878111156104c257600080fd5b6104d08e8b8386010161036e565b6040830152506080820135878111156104e857600080fd5b6104f68e8b8386010161036e565b60608301525060a0820135608082015260c082013560a082015260e082013560c082015261010082013560e0820152610120820135610100820152610140808301358881111561054557600080fd5b6105538f8c8387010161036e565b610120840152506101608301358881111561056d57600080fd5b61057b8f8c8387010161036e565b9183019190915250845250918601918601610464565b508096505050505050509250929050565b6020808252825182820181905260009190848201906040850190845b818110156105da578351835292840192918401916001016105be565b50909695505050505050565b600060208083850312156105f957600080fd5b823567ffffffffffffffff81111561061057600080fd5b8301601f8101851361062157600080fd5b803561062f61043c8261033a565b81815260059190911b8201830190838101908783111561064e57600080fd5b928401925b828410156106755783356106668161028b565b82529284019290840190610653565b979650505050505050565b7f4e487b7100000000000000000000000000000000000000000000000000000000600052603260045260246000fd5b6000815180845260005b818110156106d5576020818501810151868301820152016106b9565b506000602082860101526020601f19601f83011685010191505092915050565b6020815261071c60208201835173ffffffffffffffffffffffffffffffffffffffff169052565b60208201516040820152600060408301516101608060608501526107446101808501836106af565b91506060850151601f198086850301608087015261076284836106af565b9350608087015160a087015260a087015160c087015260c087015160e087015260e087015191506101008281880152808801519250506101208281880152808801519250506101408187860301818801526107bd85846106af565b9088015187820390920184880152935090506107d983826106af565b9695505050505050565b6000602082840312156107f557600080fd5b5051919050565b60007fffffffffffffffffffffffffffffffffffffffffffffffffffffffffffffffff8203610854577f4e487b7100000000000000000000000000000000000000000000000000000000600052601160045260246000fd5b506001019056fea264697066735822122024e2ecf5ace6ffe681af5dc96f81e9fdebdad1d9d1629e9927aa658a0e5c517f64736f6c63430008110033",
  "devdoc": {
    "kind": "dev",
    "methods": {},
    "version": 1
  },
  "userdoc": {
    "kind": "user",
    "methods": {},
    "version": 1
  },
  "storageLayout": {
    "storage": [],
    "types": null
  }
}