{
  "address": "0xd37da777EA5f9356849fe4d8973dCdF95B3ED8B9",
  "abi": [
    {
      "inputs": [
        {
          "internalType": "address[]",
          "name": "addresses",
          "type": "address[]"
        }
      ],
      "name": "getCodeHashes",
      "outputs": [
        {
          "internalType": "bytes32",
          "name": "",
          "type": "bytes32"
        }
      ],
      "stateMutability": "view",
      "type": "function"
    },
    {
      "inputs": [
        {
          "internalType": "contract IEntryPoint",
          "name": "entryPoint",
          "type": "address"
        },
        {
          "components": [
            {
              "internalType": "address",
              "name": "sender",
              "type": "address"
            },
            {
              "internalType": "uint256",
              "name": "nonce",
              "type": "uint256"
            },
            {
              "internalType": "bytes",
              "name": "initCode",
              "type": "bytes"
            },
            {
              "internalType": "bytes",
              "name": "callData",
              "type": "bytes"
            },
            {
              "internalType": "uint256",
              "name": "callGasLimit",
              "type": "uint256"
            },
            {
              "internalType": "uint256",
              "name": "verificationGasLimit",
              "type": "uint256"
            },
            {
              "internalType": "uint256",
              "name": "preVerificationGas",
              "type": "uint256"
            },
            {
              "internalType": "uint256",
              "name": "maxFeePerGas",
              "type": "uint256"
            },
            {
              "internalType": "uint256",
              "name": "maxPriorityFeePerGas",
              "type": "uint256"
            },
            {
              "internalType": "bytes",
              "name": "paymasterAndData",
              "type": "bytes"
            },
            {
              "internalType": "bytes",
              "name": "signature",
              "type": "bytes"
            }
          ],
          "internalType": "struct UserOperation[]",
          "name": "userOps",
          "type": "tuple[]"
        }
      ],
      "name": "getUserOpHashes",
      "outputs": [
        {
          "internalType": "bytes32[]",
          "name": "ret",
          "type": "bytes32[]"
        }
      ],
      "stateMutability": "view",
      "type": "function"
    }
  ],
  "transactionHash": "0xf5fa5cf1f7b4254edcc531e2348425e86df5997a1eeba69898a5a748bb4fc5e0",
  "args": [],
  "numDeployments": 3,
  "solcInputHash": "063069730b1d494d3b4f3cfaa4d8a893",
  "bytecode": "0x608060405234801561001057600080fd5b5061094c806100206000396000f3fe608060405234801561001057600080fd5b50600436106100365760003560e01c80633024e00c1461003b5780637b34b62114610064575b600080fd5b61004e610049366004610438565b610085565b60405161005b919061061a565b60405180910390f35b61007761007236600461065e565b6101a2565b60405190815260200161005b565b6060815167ffffffffffffffff8111156100a1576100a16102ce565b6040519080825280602002602001820160405280156100ca578160200160208202803683370190505b50905060005b825181101561019b578373ffffffffffffffffffffffffffffffffffffffff1663a6193531848381518110610107576101076106f8565b60200260200101516040518263ffffffff1660e01b815260040161012b9190610792565b602060405180830381865afa158015610148573d6000803e3d6000fd5b505050506040513d601f19601f8201168201806040525081019061016c919061089e565b82828151811061017e5761017e6106f8565b602090810291909101015280610193816108b7565b9150506100d0565b5092915050565b600080825167ffffffffffffffff8111156101bf576101bf6102ce565b6040519080825280602002602001820160405280156101e8578160200160208202803683370190505b50905060005b835181101561025757838181518110610209576102096106f8565b602002602001015173ffffffffffffffffffffffffffffffffffffffff163f82828151811061023a5761023a6106f8565b60209081029190910101528061024f816108b7565b9150506101ee565b5060008160405160200161026b919061061a565b604080517fffffffffffffffffffffffffffffffffffffffffffffffffffffffffffffffe08184030181529190528051602090910120949350505050565b73ffffffffffffffffffffffffffffffffffffffff811681146102cb57600080fd5b50565b7f4e487b7100000000000000000000000000000000000000000000000000000000600052604160045260246000fd5b604051610160810167ffffffffffffffff81118282101715610321576103216102ce565b60405290565b604051601f82017fffffffffffffffffffffffffffffffffffffffffffffffffffffffffffffffe016810167ffffffffffffffff8111828210171561036e5761036e6102ce565b604052919050565b600067ffffffffffffffff821115610390576103906102ce565b5060051b60200190565b80356103a5816102a9565b919050565b600082601f8301126103bb57600080fd5b813567ffffffffffffffff8111156103d5576103d56102ce565b61040660207fffffffffffffffffffffffffffffffffffffffffffffffffffffffffffffffe0601f84011601610327565b81815284602083860101111561041b57600080fd5b816020850160208301376000918101602001919091529392505050565b6000806040838503121561044b57600080fd5b8235610456816102a9565b915060208381013567ffffffffffffffff8082111561047457600080fd5b818601915086601f83011261048857600080fd5b813561049b61049682610376565b610327565b81815260059190911b830184019084810190898311156104ba57600080fd5b8585015b83811015610609578035858111156104d557600080fd5b8601610160818d037fffffffffffffffffffffffffffffffffffffffffffffffffffffffffffffffe001121561050a57600080fd5b6105126102fd565b61051d89830161039a565b815260408201358982015260608201358781111561053a57600080fd5b6105488e8b838601016103aa565b60408301525060808201358781111561056057600080fd5b61056e8e8b838601016103aa565b60608301525060a0820135608082015260c082013560a082015260e082013560c082015261010082013560e082015261012082013561010082015261014080830135888111156105bd57600080fd5b6105cb8f8c838701016103aa565b61012084015250610160830135888111156105e557600080fd5b6105f38f8c838701016103aa565b91830191909152508452509186019186016104be565b508096505050505050509250929050565b6020808252825182820181905260009190848201906040850190845b8181101561065257835183529284019291840191600101610636565b50909695505050505050565b6000602080838503121561067157600080fd5b823567ffffffffffffffff81111561068857600080fd5b8301601f8101851361069957600080fd5b80356106a761049682610376565b81815260059190911b820183019083810190878311156106c657600080fd5b928401925b828410156106ed5783356106de816102a9565b825292840192908401906106cb565b979650505050505050565b7f4e487b7100000000000000000000000000000000000000000000000000000000600052603260045260246000fd5b6000815180845260005b8181101561074d57602081850181015186830182015201610731565b8181111561075f576000602083870101525b50601f017fffffffffffffffffffffffffffffffffffffffffffffffffffffffffffffffe0169290920160200192915050565b602081526107b960208201835173ffffffffffffffffffffffffffffffffffffffff169052565b60208201516040820152600060408301516101608060608501526107e1610180850183610727565b915060608501517fffffffffffffffffffffffffffffffffffffffffffffffffffffffffffffffe08086850301608087015261081d8483610727565b9350608087015160a087015260a087015160c087015260c087015160e087015260e087015191506101008281880152808801519250506101208281880152808801519250506101408187860301818801526108788584610727565b9088015187820390920184880152935090506108948382610727565b9695505050505050565b6000602082840312156108b057600080fd5b5051919050565b60007fffffffffffffffffffffffffffffffffffffffffffffffffffffffffffffffff820361090f577f4e487b7100000000000000000000000000000000000000000000000000000000600052601160045260246000fd5b506001019056fea2646970667358221220599da9903b066c0a9e9be399310647e0e311721d92753e4a203738add53e585864736f6c634300080f0033",
  "devdoc": {
    "kind": "dev",
    "methods": {},
    "version": 1
  },
  "userdoc": {
    "kind": "user",
    "methods": {},
    "version": 1
  },
  "storageLayout": {
    "storage": [],
    "types": null
  }
}