{
  "address": "0x91C1fe08DCEbC24aB5C661d92362460c6adc30fd",
  "abi": [
    {
      "inputs": [
        {
          "internalType": "uint256",
          "name": "x0",
          "type": "uint256"
        },
        {
          "internalType": "uint256",
          "name": "y0",
          "type": "uint256"
        },
        {
          "internalType": "uint256",
          "name": "x1",
          "type": "uint256"
        },
        {
          "internalType": "uint256",
          "name": "y1",
          "type": "uint256"
        }
      ],
      "name": "add",
      "outputs": [
        {
          "internalType": "uint256",
          "name": "",
          "type": "uint256"
        },
        {
          "internalType": "uint256",
          "name": "",
          "type": "uint256"
        }
      ],
      "stateMutability": "pure",
      "type": "function"
    },
    {
      "inputs": [
        {
          "internalType": "uint256",
          "name": "x1",
          "type": "uint256"
        },
        {
          "internalType": "uint256",
          "name": "y1",
          "type": "uint256"
        },
        {
          "internalType": "uint256",
          "name": "x2",
          "type": "uint256"
        },
        {
          "internalType": "uint256",
          "name": "y2",
          "type": "uint256"
        }
      ],
      "name": "addAndReturnProjectivePoint",
      "outputs": [
        {
          "internalType": "uint256[3]",
          "name": "P",
          "type": "uint256[3]"
        }
      ],
      "stateMutability": "pure",
      "type": "function"
    },
    {
      "inputs": [
        {
          "internalType": "uint256",
          "name": "x0",
          "type": "uint256"
        },
        {
          "internalType": "uint256",
          "name": "y0",
          "type": "uint256"
        },
        {
          "internalType": "uint256",
          "name": "z0",
          "type": "uint256"
        },
        {
          "internalType": "uint256",
          "name": "x1",
          "type": "uint256"
        },
        {
          "internalType": "uint256",
          "name": "y1",
          "type": "uint256"
        },
        {
          "internalType": "uint256",
          "name": "z1",
          "type": "uint256"
        }
      ],
      "name": "addProj",
      "outputs": [
        {
          "internalType": "uint256",
          "name": "x2",
          "type": "uint256"
        },
        {
          "internalType": "uint256",
          "name": "y2",
          "type": "uint256"
        },
        {
          "internalType": "uint256",
          "name": "z2",
          "type": "uint256"
        }
      ],
      "stateMutability": "pure",
      "type": "function"
    },
    {
      "inputs": [
        {
          "internalType": "uint256",
          "name": "x",
          "type": "uint256"
        },
        {
          "internalType": "uint256",
          "name": "y",
          "type": "uint256"
        }
      ],
      "name": "isOnCurve",
      "outputs": [
        {
          "internalType": "bool",
          "name": "",
          "type": "bool"
        }
      ],
      "stateMutability": "pure",
      "type": "function"
    },
    {
      "inputs": [
        {
          "internalType": "uint256",
          "name": "x0",
          "type": "uint256"
        },
        {
          "internalType": "uint256",
          "name": "y0",
          "type": "uint256"
        }
      ],
      "name": "isZeroCurve",
      "outputs": [
        {
          "internalType": "bool",
          "name": "isZero",
          "type": "bool"
        }
      ],
      "stateMutability": "pure",
      "type": "function"
    },
    {
      "inputs": [
        {
          "internalType": "uint256",
          "name": "scalar",
          "type": "uint256"
        }
      ],
      "name": "multipleGeneratorByScalar",
      "outputs": [
        {
          "internalType": "uint256",
          "name": "",
          "type": "uint256"
        },
        {
          "internalType": "uint256",
          "name": "",
          "type": "uint256"
        }
      ],
      "stateMutability": "pure",
      "type": "function"
    },
    {
      "inputs": [
        {
          "internalType": "uint256",
          "name": "x0",
          "type": "uint256"
        },
        {
          "internalType": "uint256",
          "name": "y0",
          "type": "uint256"
        },
        {
          "internalType": "uint256",
          "name": "exp",
          "type": "uint256"
        }
      ],
      "name": "multiplyPowerBase2",
      "outputs": [
        {
          "internalType": "uint256",
          "name": "",
          "type": "uint256"
        },
        {
          "internalType": "uint256",
          "name": "",
          "type": "uint256"
        }
      ],
      "stateMutability": "pure",
      "type": "function"
    },
    {
      "inputs": [
        {
          "internalType": "uint256",
          "name": "x0",
          "type": "uint256"
        },
        {
          "internalType": "uint256",
          "name": "y0",
          "type": "uint256"
        },
        {
          "internalType": "uint256",
          "name": "scalar",
          "type": "uint256"
        }
      ],
      "name": "multiplyScalar",
      "outputs": [
        {
          "internalType": "uint256",
          "name": "x1",
          "type": "uint256"
        },
        {
          "internalType": "uint256",
          "name": "y1",
          "type": "uint256"
        }
      ],
      "stateMutability": "pure",
      "type": "function"
    },
    {
      "inputs": [
        {
          "internalType": "uint256",
          "name": "x0",
          "type": "uint256"
        },
        {
          "internalType": "uint256",
          "name": "y0",
          "type": "uint256"
        },
        {
          "internalType": "uint256",
          "name": "z0",
          "type": "uint256"
        }
      ],
      "name": "toAffinePoint",
      "outputs": [
        {
          "internalType": "uint256",
          "name": "x1",
          "type": "uint256"
        },
        {
          "internalType": "uint256",
          "name": "y1",
          "type": "uint256"
        }
      ],
      "stateMutability": "pure",
      "type": "function"
    },
    {
      "inputs": [
        {
          "internalType": "uint256",
          "name": "x0",
          "type": "uint256"
        },
        {
          "internalType": "uint256",
          "name": "y0",
          "type": "uint256"
        }
      ],
      "name": "toProjectivePoint",
      "outputs": [
        {
          "internalType": "uint256[3]",
          "name": "P",
          "type": "uint256[3]"
        }
      ],
      "stateMutability": "pure",
      "type": "function"
    },
    {
      "inputs": [
        {
          "internalType": "uint256",
          "name": "x0",
          "type": "uint256"
        },
        {
          "internalType": "uint256",
          "name": "y0",
          "type": "uint256"
        }
      ],
      "name": "twice",
      "outputs": [
        {
          "internalType": "uint256",
          "name": "",
          "type": "uint256"
        },
        {
          "internalType": "uint256",
          "name": "",
          "type": "uint256"
        }
      ],
      "stateMutability": "pure",
      "type": "function"
    },
    {
      "inputs": [
        {
          "internalType": "uint256",
          "name": "x0",
          "type": "uint256"
        },
        {
          "internalType": "uint256",
          "name": "y0",
          "type": "uint256"
        },
        {
          "internalType": "uint256",
          "name": "z0",
          "type": "uint256"
        }
      ],
      "name": "twiceProj",
      "outputs": [
        {
          "internalType": "uint256",
          "name": "x1",
          "type": "uint256"
        },
        {
          "internalType": "uint256",
          "name": "y1",
          "type": "uint256"
        },
        {
          "internalType": "uint256",
          "name": "z1",
          "type": "uint256"
        }
      ],
      "stateMutability": "pure",
      "type": "function"
    },
    {
      "inputs": [
        {
          "internalType": "bytes32",
          "name": "message",
          "type": "bytes32"
        },
        {
          "internalType": "uint256[2]",
          "name": "rs",
          "type": "uint256[2]"
        },
        {
          "internalType": "uint256[2]",
          "name": "Q",
          "type": "uint256[2]"
        }
      ],
      "name": "validateSignature",
      "outputs": [
        {
          "internalType": "bool",
          "name": "",
          "type": "bool"
        }
      ],
      "stateMutability": "pure",
      "type": "function"
    },
    {
      "inputs": [
        {
          "internalType": "bytes32",
          "name": "message",
          "type": "bytes32"
        },
        {
          "internalType": "bytes",
          "name": "signature",
          "type": "bytes"
        },
        {
          "internalType": "bytes",
          "name": "publicKey",
          "type": "bytes"
        }
      ],
      "name": "validateSignature",
      "outputs": [
        {
          "internalType": "bool",
          "name": "",
          "type": "bool"
        }
      ],
      "stateMutability": "pure",
      "type": "function"
    },
    {
      "inputs": [],
      "name": "zeroAffine",
      "outputs": [
        {
          "internalType": "uint256",
          "name": "x",
          "type": "uint256"
        },
        {
          "internalType": "uint256",
          "name": "y",
          "type": "uint256"
        }
      ],
      "stateMutability": "pure",
      "type": "function"
    },
    {
      "inputs": [],
      "name": "zeroProj",
      "outputs": [
        {
          "internalType": "uint256",
          "name": "x",
          "type": "uint256"
        },
        {
          "internalType": "uint256",
          "name": "y",
          "type": "uint256"
        },
        {
          "internalType": "uint256",
          "name": "z",
          "type": "uint256"
        }
      ],
      "stateMutability": "pure",
      "type": "function"
    }
  ],
  "transactionHash": "0xc799a92ed8740f48a1935610d951f7971f569811d3b8e1c7a5cb7159e023ec2d",
  "args": [],
  "numDeployments": 1,
  "solcInputHash": "526f0164be4668f958a4a6e6d65e5b19",
  "bytecode": "0x608060405234801561001057600080fd5b5061126c806100206000396000f3fe608060405234801561001057600080fd5b50600436106101005760003560e01c806372fb4a1411610097578063c30cfa2d11610066578063c30cfa2d1461040d578063c80edca414610430578063e022d77c14610459578063f214aba01461048857610100565b806372fb4a14146102f05780637ec8da8d1461031957806384dfba461461033c578063ae7e17f01461034457610100565b806314c67060116100d357806314c6706014610211578063322b24aa14610237578063675ca04314610260578063713eca281461028957610100565b806304e960d71461010557806309d3ef31146101955780630afb4ddc146101d15780630b0dbcfa146101ee575b600080fd5b610181600480360360a081101561011b57600080fd5b60408051808201825283359392830192916060830191906020840190600290839083908082843760009201919091525050604080518082018252929594938181019392509060029083908390808284376000920191909152509194506104c39350505050565b604080519115158252519081900360200190f35b6101b8600480360360408110156101ab57600080fd5b50803590602001356106be565b6040805192835260208301919091528051918290030190f35b6101b8600480360360208110156101e757600080fd5b50356106ed565b6101816004803603604081101561020457600080fd5b5080359060200135610744565b61021961086a565b60408051938452602084019290925282820152519081900360600190f35b6101b86004803603606081101561024d57600080fd5b5080359060208101359060400135610874565b6101b86004803603606081101561027657600080fd5b50803590602081013590604001356108bb565b6102b86004803603608081101561029f57600080fd5b508035906020810135906040810135906060013561091d565b6040518082606080838360005b838110156102dd5781810151838201526020016102c5565b5050505090500191505060405180910390f35b6101b86004803603606081101561030657600080fd5b508035906020810135906040013561094e565b6102b86004803603604081101561032f57600080fd5b5080359060200135610a10565b6101b8610a7b565b6101816004803603606081101561035a57600080fd5b8135919081019060408101602082013564010000000081111561037c57600080fd5b82018360208201111561038e57600080fd5b803590602001918460018302840111640100000000831117156103b057600080fd5b9193909290916020810190356401000000008111156103ce57600080fd5b8201836020820111156103e057600080fd5b8035906020019184600183028401116401000000008311171561040257600080fd5b509092509050610a81565b6101816004803603604081101561042357600080fd5b5080359060200135610ae6565b6102196004803603606081101561044657600080fd5b5080359060208101359060400135610b0a565b6101b86004803603608081101561046f57600080fd5b5080359060208101359060408101359060600135610dec565b610219600480360360c081101561049e57600080fd5b5080359060208101359060408101359060608101359060808101359060a00135610e21565b815160009015806104f5575082517fffffffff00000000ffffffffffffffffbce6faada7179e84f3b9cac2fc63255111155b8061050257506020830151155b1561050f575060006106b7565b815160208301516105209190610744565b61052c575060006106b7565b60008080808061056388600160200201517fffffffff00000000ffffffffffffffffbce6faada7179e84f3b9cac2fc632551610f44565b90506105d37f6b17d1f2e12c4247f8bce6e563a440f277037d812deb33a0f4a13945d898c2967f4fe342e2fe1a7f9b8ee7eb4a7c0f9e162bce33576b315ececbb6406837bf51f57fffffffff00000000ffffffffffffffffbce6faada7179e84f3b9cac2fc632551848d0961094e565b885160208a01518b51939850919550610613929091907fffffffff00000000ffffffffffffffffbce6faada7179e84f3b9cac2fc6325519085900961094e565b909450915060006106268685878661091d565b604081015190915061064157600096505050505050506106b7565b600061066882600260200201516ffffffffeffffffffffffffffffffffff60601b19610f44565b90506ffffffffeffffffffffffffffffffffff60601b19808283098351098a517fffffffff00000000ffffffffffffffffbce6faada7179e84f3b9cac2fc632551909106149750505050505050505b9392505050565b60008060006106cf85856001610b0a565b919650945090506106e18585836108bb565b92509250509250929050565b60008061073b7f6b17d1f2e12c4247f8bce6e563a440f277037d812deb33a0f4a13945d898c2967f4fe342e2fe1a7f9b8ee7eb4a7c0f9e162bce33576b315ececbb6406837bf51f58561094e565b91509150915091565b600082158061076657506ffffffffeffffffffffffffffffffffff60601b1983145b8061076f575081155b8061078d57506ffffffffeffffffffffffffffffffffff60601b1982145b1561079a57506000610864565b60006ffffffffeffffffffffffffffffffffff60601b19838409905060006ffffffffeffffffffffffffffffffffff60601b19856ffffffffeffffffffffffffffffffffff60601b198788090990506ffffffffeffffffffffffffffffffffff60601b19807fffffffff00000001000000000000000000000000fffffffffffffffffffffffc8709820890506ffffffffeffffffffffffffffffffffff60601b197f5ac635d8aa3a93e7b3ebbd55769886bc651d06b0cc53b0f63bce3c3e27d2604b820890501490505b92915050565b6000600181909192565b60008084846001835b8681101561089f57610890848484610b0a565b9195509350915060010161087d565b506108ab8383836108bb565b945094505050505b935093915050565b60008060006108de846ffffffffeffffffffffffffffffffffff60601b19610f44565b90506ffffffffeffffffffffffffffffffffff60601b1981870992506ffffffffeffffffffffffffffffffffff60601b19818609915050935093915050565b6109256111fa565b60008061093487878787610dec565b90925090506109438282610a10565b979650505050505050565b600080826109675761095e610a7b565b915091506108b3565b826001141561097a5750839050826108b3565b826002141561098d5761095e85856106be565b50839050828181600180600287066109a757600094508495505b600187901c96505b86156109f5576109c0848484610b0a565b9195509350915060028706600114156109e9576109e1848484898986610e21565b919750955090505b600187901c96506109af565b610a008686836108bb565b9550955050505050935093915050565b610a186111fa565b6ffffffffeffffffffffffffffffffffff60601b196001600008604082018190526ffffffffeffffffffffffffffffffffff60601b19908409815260408101516ffffffffeffffffffffffffffffffffff60601b19908309602082015292915050565b60008091565b6000610a8b611218565b610a93611218565b86866040811015610aa357600080fd5b506020808201359084015235825284846040811015610ac157600080fd5b5060208082013590830152358152610ada8883836104c3565b98975050505050505050565b600082158015610af4575081155b15610b0157506001610864565b50600092915050565b6000806000806000806000610b1f8a8a610ae6565b15610b3b57610b2c61086a565b96509650965050505050610de3565b6ffffffffeffffffffffffffffffffffff60601b19888a0992506ffffffffeffffffffffffffffffffffff60601b196002840992506ffffffffeffffffffffffffffffffffff60601b198a840991506ffffffffeffffffffffffffffffffffff60601b1989830991506ffffffffeffffffffffffffffffffffff60601b196002830991506ffffffffeffffffffffffffffffffffff60601b198a8b0999506ffffffffeffffffffffffffffffffffff60601b1960038b0993506ffffffffeffffffffffffffffffffffff60601b1988890997506ffffffffeffffffffffffffffffffffff60601b197fffffffff00000001000000000000000000000000fffffffffffffffffffffffc890997506ffffffffeffffffffffffffffffffffff60601b1988850893506ffffffffeffffffffffffffffffffffff60601b1984850990506ffffffffeffffffffffffffffffffffff60601b198260020999506ffffffffeffffffffffffffffffffffff60601b198a6ffffffffeffffffffffffffffffffffff60601b1903820890506ffffffffeffffffffffffffffffffffff60601b19816ffffffffeffffffffffffffffffffffff60601b1903830899506ffffffffeffffffffffffffffffffffff60601b198a850999506ffffffffeffffffffffffffffffffffff60601b19838a0998506ffffffffeffffffffffffffffffffffff60601b19898a0998506ffffffffeffffffffffffffffffffffff60601b198960020998506ffffffffeffffffffffffffffffffffff60601b19896ffffffffeffffffffffffffffffffffff60601b19038b0895506ffffffffeffffffffffffffffffffffff60601b1981840996506ffffffffeffffffffffffffffffffffff60601b1983840994506ffffffffeffffffffffffffffffffffff60601b198386099450505050505b93509350939050565b6000806000610e018787600188886001610e21565b91985096509050610e138787836108bb565b925092505094509492505050565b6000806000806000806000610e368d8d610ae6565b15610e4d5789898996509650965050505050610f38565b610e578a8a610ae6565b15610e6e578c8c8c96509650965050505050610f38565b6ffffffffeffffffffffffffffffffffff60601b19888d0993506ffffffffeffffffffffffffffffffffff60601b198b8a0992506ffffffffeffffffffffffffffffffffff60601b19888e0991506ffffffffeffffffffffffffffffffffff60601b198b8b09905080821415610f085782841415610f0057610ef18d8d8d610b0a565b96509650965050505050610f38565b610ef161086a565b610f2c6ffffffffeffffffffffffffffffffffff60601b19898d0983838688610fd3565b91985096509450505050505b96509650969350505050565b6000821580610f5257508183145b80610f5b575081155b15610f6857506000610864565b81831115610f7d57818381610f7957fe5b0692505b600060018385835b8115610fae57818381610f9457fe5b949594048581029094039391928383029003919050610f85565b6000851215610fc7575050505060000382039050610864565b50929695505050505050565b6000808080808080806ffffffffeffffffffffffffffffffffff60601b198a6ffffffffeffffffffffffffffffffffff60601b19038a0890506ffffffffeffffffffffffffffffffffff60601b198b6ffffffffeffffffffffffffffffffffff60601b19038d0894506ffffffffeffffffffffffffffffffffff60601b1985860993506ffffffffeffffffffffffffffffffffff60601b1981820991506ffffffffeffffffffffffffffffffffff60601b198d830991506ffffffffeffffffffffffffffffffffff60601b198c8c089a506ffffffffeffffffffffffffffffffffff60601b19848c099a506ffffffffeffffffffffffffffffffffff60601b198b6ffffffffeffffffffffffffffffffffff60601b1903830891506ffffffffeffffffffffffffffffffffff60601b1982860997506ffffffffeffffffffffffffffffffffff60601b1985850992506ffffffffeffffffffffffffffffffffff60601b19848d099b506ffffffffeffffffffffffffffffffffff60601b19826ffffffffeffffffffffffffffffffffff60601b19038d089b506ffffffffeffffffffffffffffffffffff60601b198c820990506ffffffffeffffffffffffffffffffffff60601b19838a0998506ffffffffeffffffffffffffffffffffff60601b19896ffffffffeffffffffffffffffffffffff60601b1903820896506ffffffffeffffffffffffffffffffffff60601b198d840995505050505050955095509592505050565b60405180606001604052806003906020820280368337509192915050565b6040518060400160405280600290602082028036833750919291505056fea2646970667358221220913a72c695dd29b5892c82fadea56df76a9c18aef271df16ef7146924899aaf964736f6c63430007060033",
  "devdoc": {
    "author": "Tilman Drerup;",
    "details": "NOTE: To disambiguate public keys when verifying signatures, activate          condition 'rs[1] > lowSmax' in validateSignature().",
    "kind": "dev",
    "methods": {
      "add(uint256,uint256,uint256,uint256)": {
        "details": "Add two elliptic curve points in affine coordinates."
      },
      "addAndReturnProjectivePoint(uint256,uint256,uint256,uint256)": {
        "details": "Add two points in affine coordinates and return projective point."
      },
      "addProj(uint256,uint256,uint256,uint256,uint256,uint256)": {
        "details": "Add two elliptic curve points in projective coordinates. See https://www.nayuki.io/page/elliptic-curve-point-addition-in-projective-coordinates"
      },
      "isOnCurve(uint256,uint256)": {
        "details": "Check if a point in affine coordinates is on the curve."
      },
      "isZeroCurve(uint256,uint256)": {
        "details": "Check if the curve is the zero curve."
      },
      "multipleGeneratorByScalar(uint256)": {
        "details": "Multiply the curve's generator point by a scalar."
      },
      "multiplyPowerBase2(uint256,uint256,uint256)": {
        "details": "Multiply an elliptic curve point by a 2 power base (i.e., (2^exp)*P))."
      },
      "multiplyScalar(uint256,uint256,uint256)": {
        "details": "Multiply an elliptic curve point by a scalar."
      },
      "toAffinePoint(uint256,uint256,uint256)": {
        "details": "Transform from projective to affine coordinates."
      },
      "toProjectivePoint(uint256,uint256)": {
        "details": "Transform affine coordinates into projective coordinates."
      },
      "twice(uint256,uint256)": {
        "details": "Double an elliptic curve point in affine coordinates."
      },
      "twiceProj(uint256,uint256,uint256)": {
        "details": "Double an elliptic curve point in projective coordinates. See https://www.nayuki.io/page/elliptic-curve-point-addition-in-projective-coordinates"
      },
      "validateSignature(bytes32,uint256[2],uint256[2])": {
        "details": "Validate combination of message, signature, and public key."
      },
      "zeroAffine()": {
        "details": "Return the zero curve in affine coordinates."
      },
      "zeroProj()": {
        "details": "Return the zero curve in projective coordinates."
      }
    },
    "title": "EllipticCurve",
    "version": 1
  },
  "userdoc": {
    "kind": "user",
    "methods": {},
    "notice": "Implements elliptic curve math; Parametrized for SECP256R1.          Includes components of code by Andreas Olofsson, Alexander Vlasov          (https://github.com/BANKEX/CurveArithmetics), and Avi Asayag          (https://github.com/orbs-network/elliptic-curve-solidity)",
    "version": 1
  },
  "storageLayout": {
    "storage": [],
    "types": null
  }
}