{
  "address": "0xBf081D23317966eEBD59Bc8EDB593A830F373178",
  "abi": [
    {
      "inputs": [
        {
          "internalType": "contract IDkimVerifier",
          "name": "dkimVerifier",
          "type": "address"
        },
        {
          "internalType": "address",
          "name": "signer",
          "type": "address"
        }
      ],
      "stateMutability": "nonpayable",
      "type": "constructor"
    },
    {
      "anonymous": false,
      "inputs": [
        {
          "indexed": true,
          "internalType": "address",
          "name": "account",
          "type": "address"
        },
        {
          "indexed": false,
          "internalType": "bytes32",
          "name": "email",
          "type": "bytes32"
        }
      ],
      "name": "EmailBinded",
      "type": "event"
    },
    {
      "anonymous": false,
      "inputs": [
        {
          "indexed": true,
          "internalType": "address",
          "name": "account",
          "type": "address"
        },
        {
          "indexed": false,
          "internalType": "bytes32",
          "name": "email",
          "type": "bytes32"
        }
      ],
      "name": "EmailUnbinded",
      "type": "event"
    },
    {
      "anonymous": false,
      "inputs": [
        {
          "indexed": true,
          "internalType": "address",
          "name": "previousOwner",
          "type": "address"
        },
        {
          "indexed": true,
          "internalType": "address",
          "name": "newOwner",
          "type": "address"
        }
      ],
      "name": "OwnershipTransferred",
      "type": "event"
    },
    {
      "anonymous": false,
      "inputs": [
        {
          "indexed": true,
          "internalType": "address",
          "name": "signer",
          "type": "address"
        }
      ],
      "name": "SignerChanged",
      "type": "event"
    },
    {
      "inputs": [
        {
          "internalType": "bytes32",
          "name": "email",
          "type": "bytes32"
        },
        {
          "internalType": "bytes",
          "name": "signature",
          "type": "bytes"
        }
      ],
      "name": "bind",
      "outputs": [],
      "stateMutability": "nonpayable",
      "type": "function"
    },
    {
      "inputs": [
        {
          "internalType": "address",
          "name": "signer",
          "type": "address"
        }
      ],
      "name": "changeSigner",
      "outputs": [],
      "stateMutability": "nonpayable",
      "type": "function"
    },
    {
      "inputs": [
        {
          "internalType": "address",
          "name": "",
          "type": "address"
        }
      ],
      "name": "emails",
      "outputs": [
        {
          "internalType": "bytes32",
          "name": "",
          "type": "bytes32"
        }
      ],
      "stateMutability": "view",
      "type": "function"
    },
    {
      "inputs": [
        {
          "internalType": "address",
          "name": "account",
          "type": "address"
        },
        {
          "internalType": "bytes32",
          "name": "email",
          "type": "bytes32"
        }
      ],
      "name": "getHash",
      "outputs": [
        {
          "internalType": "bytes32",
          "name": "",
          "type": "bytes32"
        }
      ],
      "stateMutability": "view",
      "type": "function"
    },
    {
      "inputs": [
        {
          "internalType": "address",
          "name": "",
          "type": "address"
        }
      ],
      "name": "nonces",
      "outputs": [
        {
          "internalType": "uint256",
          "name": "",
          "type": "uint256"
        }
      ],
      "stateMutability": "view",
      "type": "function"
    },
    {
      "inputs": [
        {
          "internalType": "bytes32",
          "name": "",
          "type": "bytes32"
        }
      ],
      "name": "nullifierHashes",
      "outputs": [
        {
          "internalType": "bool",
          "name": "",
          "type": "bool"
        }
      ],
      "stateMutability": "view",
      "type": "function"
    },
    {
      "inputs": [],
      "name": "owner",
      "outputs": [
        {
          "internalType": "address",
          "name": "",
          "type": "address"
        }
      ],
      "stateMutability": "view",
      "type": "function"
    },
    {
      "inputs": [],
      "name": "renounceOwnership",
      "outputs": [],
      "stateMutability": "nonpayable",
      "type": "function"
    },
    {
      "inputs": [
        {
          "internalType": "string",
          "name": "typ",
          "type": "string"
        },
        {
          "internalType": "address",
          "name": "account",
          "type": "address"
        },
        {
          "internalType": "bytes",
          "name": "pubkey",
          "type": "bytes"
        }
      ],
      "name": "subjectHex",
      "outputs": [
        {
          "internalType": "bytes",
          "name": "",
          "type": "bytes"
        }
      ],
      "stateMutability": "view",
      "type": "function"
    },
    {
      "inputs": [
        {
          "internalType": "address",
          "name": "newOwner",
          "type": "address"
        }
      ],
      "name": "transferOwnership",
      "outputs": [],
      "stateMutability": "nonpayable",
      "type": "function"
    },
    {
      "inputs": [],
      "name": "unbind",
      "outputs": [
        {
          "internalType": "bytes32",
          "name": "email",
          "type": "bytes32"
        }
      ],
      "stateMutability": "nonpayable",
      "type": "function"
    },
    {
      "inputs": [
        {
          "internalType": "bytes32",
          "name": "server",
          "type": "bytes32"
        },
        {
          "internalType": "address",
          "name": "account",
          "type": "address"
        },
        {
          "internalType": "bytes",
          "name": "data",
          "type": "bytes"
        },
        {
          "internalType": "bytes",
          "name": "signature",
          "type": "bytes"
        },
        {
          "internalType": "bytes",
          "name": "pubkey",
          "type": "bytes"
        }
      ],
      "name": "verify",
      "outputs": [
        {
          "internalType": "bool",
          "name": "",
          "type": "bool"
        }
      ],
      "stateMutability": "nonpayable",
      "type": "function"
    },
    {
      "inputs": [],
      "name": "verifyingSigner",
      "outputs": [
        {
          "internalType": "address",
          "name": "",
          "type": "address"
        }
      ],
      "stateMutability": "view",
      "type": "function"
    }
  ],
  "transactionHash": "0xb3272a57b8f0eedd2af8d6d4cb8937c0bc6702adbb827983fab6199fd29516c2",
  "args": [
    "0xC04a118DA862fB00a4E3F6eBa725b29AF58efc43",
    "0x7c029553644F5E9442cb576c1056e0f7663Db1Fa"
  ],
  "numDeployments": 3,
  "solcInputHash": "6381165db0de145de02862d3b6caa93d",
  "bytecode": "0x60a06040523480156200001157600080fd5b5060405162001e6338038062001e638339810160408190526200003491620000fd565b6200003f3362000094565b6001600160a01b03828116608052600180546001600160a01b03191691831691821790556040517f5719a5656c5cfdaafa148ecf366fd3b0a7fae06449ce2a46225977fb7417e29d90600090a250506200013c565b600080546001600160a01b038381166001600160a01b0319831681178455604051919092169283917f8be0079c531659141344cd1fd0a4f28419497f9722a3daafe3b4186f6b6457e09190a35050565b6001600160a01b0381168114620000fa57600080fd5b50565b600080604083850312156200011157600080fd5b82516200011e81620000e4565b60208401519092506200013181620000e4565b809150509250929050565b608051611cfd62000166600039600081816108b701528181610a140152610b380152611cfd6000f3fe608060405234801561001057600080fd5b50600436106100df5760003560e01c80637ecebe001161008c578063b6b2574211610066578063b6b2574214610210578063ba075e0c14610218578063cb2da07c1461022b578063f2fde38b1461024b57600080fd5b80637ecebe00146101bf5780638da5cb5b146101df578063aad2b723146101fd57600080fd5b806323d9ac9b116100bd57806323d9ac9b1461015d578063333b6fb3146101a2578063715018a6146101b757600080fd5b8063060f919b146100e457806317cc915c1461010a5780631fe8c6b61461013d575b600080fd5b6100f76100f23660046115f8565b61025e565b6040519081526020015b60405180910390f35b61012d610118366004611622565b60046020526000908152604090205460ff1681565b6040519015158152602001610101565b61015061014b36600461173d565b6102c1565b6040516101019190611800565b60015461017d9073ffffffffffffffffffffffffffffffffffffffff1681565b60405173ffffffffffffffffffffffffffffffffffffffff9091168152602001610101565b6101b56101b0366004611893565b61050a565b005b6101b5610689565b6100f76101cd3660046118df565b60036020526000908152604090205481565b60005473ffffffffffffffffffffffffffffffffffffffff1661017d565b6101b561020b3660046118df565b61069d565b6100f7610714565b61012d6102263660046118fa565b6107dd565b6100f76102393660046118df565b60026020526000908152604090205481565b6101b56102593660046118df565b610d0a565b73ffffffffffffffffffffffffffffffffffffffff8216600081815260036020908152604091829020548251468184015280840194909452606084015260808084018590528251808503909101815260a090930190915281519101205b92915050565b60606000825160026102d391906119dd565b67ffffffffffffffff8111156102eb576102eb61163b565b6040519080825280601f01601f191660200182016040528015610315576020820181803683370190505b5060408051808201909152601081527f3031323334353637383961626364656600000000000000000000000000000000602082015290915060005b84518110156104c85781825186838151811061036e5761036e6119f4565b0160200151610380919060f81c611a52565b81518110610390576103906119f4565b01602001517fff0000000000000000000000000000000000000000000000000000000000000016836103c38360026119dd565b815181106103d3576103d36119f4565b60200101907effffffffffffffffffffffffffffffffffffffffffffffffffffffffffffff1916908160001a905350818251868381518110610417576104176119f4565b0160200151610429919060f81c611a66565b81518110610439576104396119f4565b01602001517fff00000000000000000000000000000000000000000000000000000000000000168361046c8360026119dd565b610477906001611a7a565b81518110610487576104876119f4565b60200101907effffffffffffffffffffffffffffffffffffffffffffffffffffffffffffff1916908160001a905350806104c081611a8d565b915050610350565b50856104d346610dc1565b6104dc87610e7f565b846040516020016104f09493929190611ac5565b604051602081830303815290604052925050509392505050565b600061054c610519338661025e565b7f19457468657265756d205369676e6564204d6573736167653a0a3332000000006000908152601c91909152603c902090565b905061058e8184848080601f016020809104026020016040519081016040528093929190818152602001838380828437600092019190915250610ea292505050565b60015473ffffffffffffffffffffffffffffffffffffffff908116911614610617576040517f08c379a000000000000000000000000000000000000000000000000000000000815260206004820152600f60248201527f6572726f72207369676e6174757265000000000000000000000000000000000060448201526064015b60405180910390fd5b33600090815260036020526040812080549161063283611a8d565b90915550503360008181526002602052604090819020869055517fcbe6f129c479e90eae19ad4df47cdf0d8edcfe3d9caf30b5e5943efa3004b5159061067b9087815260200190565b60405180910390a250505050565b610691610ec6565b61069b6000610f47565b565b6106a5610ec6565b600180547fffffffffffffffffffffffff00000000000000000000000000000000000000001673ffffffffffffffffffffffffffffffffffffffff83169081179091556040517f5719a5656c5cfdaafa148ecf366fd3b0a7fae06449ce2a46225977fb7417e29d90600090a250565b336000908152600260205260408120549081900361078e576040517f08c379a000000000000000000000000000000000000000000000000000000000815260206004820152601260248201527f656d61696c206e6f742062696e64207965740000000000000000000000000000604482015260640161060e565b3360008181526002602052604080822091909155517f3e9a4081cf69725b7f0c26855e0b79a6c96a5bb433f3ab6db0cf03aff56aa264906107d29084815260200190565b60405180910390a290565b60008087876040516107f0929190611b1c565b604080519182900390912060008181526004602052919091205490915060ff1615610877576040517f08c379a000000000000000000000000000000000000000000000000000000000815260206004820152600f60248201527f7573656420656d61696c20646174610000000000000000000000000000000000604482015260640161060e565b6040517f391c87c800000000000000000000000000000000000000000000000000000000815260009073ffffffffffffffffffffffffffffffffffffffff7f0000000000000000000000000000000000000000000000000000000000000000169063391c87c8906108ee908c908c90600401611b75565b600060405180830381865afa15801561090b573d6000803e3d6000fd5b505050506040513d6000823e601f3d9081017fffffffffffffffffffffffffffffffffffffffffffffffffffffffffffffffe01682016040526109519190810190611b91565b80516020808301919091203360009081526002909252604090912054919250146109d7576040517f08c379a000000000000000000000000000000000000000000000000000000000815260206004820152601160248201527f6572726f7220656d61696c206f776e6572000000000000000000000000000000604482015260640161060e565b6040517f5bf48e3a00000000000000000000000000000000000000000000000000000000815273ffffffffffffffffffffffffffffffffffffffff7f00000000000000000000000000000000000000000000000000000000000000001690635bf48e3a90610a51908e908d908d908d908d90600401611c08565b602060405180830381865afa158015610a6e573d6000803e3d6000fd5b505050506040513d601f19601f82011682018060405250810190610a929190611c41565b610af8576040517f08c379a000000000000000000000000000000000000000000000000000000000815260206004820152601460248201527f6572726f7220646b696d207369676e6174757265000000000000000000000000604482015260640161060e565b6040517fa3364fd900000000000000000000000000000000000000000000000000000000815260009073ffffffffffffffffffffffffffffffffffffffff7f0000000000000000000000000000000000000000000000000000000000000000169063a3364fd990610b6f908d908d90600401611b75565b600060405180830381865afa158015610b8c573d6000803e3d6000fd5b505050506040513d6000823e601f3d9081017fffffffffffffffffffffffffffffffffffffffffffffffffffffffffffffffe0168201604052610bd29190810190611b91565b9050610c4a6040518060400160405280600281526020017f30310000000000000000000000000000000000000000000000000000000000008152508c88888080601f0160208091040260200160405190810160405280939291908181526020018383808284376000920191909152506102c192505050565b80519060200120818051906020012014610cc0576040517f08c379a000000000000000000000000000000000000000000000000000000000815260206004820152601a60248201527f6572726f7220656d61696c2074797065206f72207075626b6579000000000000604482015260640161060e565b5050600090815260046020526040902080547fffffffffffffffffffffffffffffffffffffffffffffffffffffffffffffff00166001908117909155905098975050505050505050565b610d12610ec6565b73ffffffffffffffffffffffffffffffffffffffff8116610db5576040517f08c379a000000000000000000000000000000000000000000000000000000000815260206004820152602660248201527f4f776e61626c653a206e6577206f776e657220697320746865207a65726f206160448201527f6464726573730000000000000000000000000000000000000000000000000000606482015260840161060e565b610dbe81610f47565b50565b60606000610dce83610fbc565b600101905060008167ffffffffffffffff811115610dee57610dee61163b565b6040519080825280601f01601f191660200182016040528015610e18576020820181803683370190505b5090508181016020015b7fffffffffffffffffffffffffffffffffffffffffffffffffffffffffffffffff017f3031323334353637383961626364656600000000000000000000000000000000600a86061a8153600a8504945084610e2257509392505050565b60606102bb73ffffffffffffffffffffffffffffffffffffffff8316601461109e565b6000806000610eb185856112e8565b91509150610ebe8161132d565b509392505050565b60005473ffffffffffffffffffffffffffffffffffffffff16331461069b576040517f08c379a000000000000000000000000000000000000000000000000000000000815260206004820181905260248201527f4f776e61626c653a2063616c6c6572206973206e6f7420746865206f776e6572604482015260640161060e565b6000805473ffffffffffffffffffffffffffffffffffffffff8381167fffffffffffffffffffffffff0000000000000000000000000000000000000000831681178455604051919092169283917f8be0079c531659141344cd1fd0a4f28419497f9722a3daafe3b4186f6b6457e09190a35050565b6000807a184f03e93ff9f4daa797ed6e38ed64bf6a1f0100000000000000008310611005577a184f03e93ff9f4daa797ed6e38ed64bf6a1f010000000000000000830492506040015b6d04ee2d6d415b85acef81000000008310611031576d04ee2d6d415b85acef8100000000830492506020015b662386f26fc10000831061104f57662386f26fc10000830492506010015b6305f5e1008310611067576305f5e100830492506008015b612710831061107b57612710830492506004015b6064831061108d576064830492506002015b600a83106102bb5760010192915050565b606060006110ad8360026119dd565b6110b8906002611a7a565b67ffffffffffffffff8111156110d0576110d061163b565b6040519080825280601f01601f1916602001820160405280156110fa576020820181803683370190505b5090507f300000000000000000000000000000000000000000000000000000000000000081600081518110611131576111316119f4565b60200101907effffffffffffffffffffffffffffffffffffffffffffffffffffffffffffff1916908160001a9053507f780000000000000000000000000000000000000000000000000000000000000081600181518110611194576111946119f4565b60200101907effffffffffffffffffffffffffffffffffffffffffffffffffffffffffffff1916908160001a90535060006111d08460026119dd565b6111db906001611a7a565b90505b6001811115611278577f303132333435363738396162636465660000000000000000000000000000000085600f166010811061121c5761121c6119f4565b1a60f81b828281518110611232576112326119f4565b60200101907effffffffffffffffffffffffffffffffffffffffffffffffffffffffffffff1916908160001a90535060049490941c9361127181611c63565b90506111de565b5083156112e1576040517f08c379a000000000000000000000000000000000000000000000000000000000815260206004820181905260248201527f537472696e67733a20686578206c656e67746820696e73756666696369656e74604482015260640161060e565b9392505050565b600080825160410361131e5760208301516040840151606085015160001a611312878285856114e0565b94509450505050611326565b506000905060025b9250929050565b600081600481111561134157611341611c98565b036113495750565b600181600481111561135d5761135d611c98565b036113c4576040517f08c379a000000000000000000000000000000000000000000000000000000000815260206004820152601860248201527f45434453413a20696e76616c6964207369676e61747572650000000000000000604482015260640161060e565b60028160048111156113d8576113d8611c98565b0361143f576040517f08c379a000000000000000000000000000000000000000000000000000000000815260206004820152601f60248201527f45434453413a20696e76616c6964207369676e6174757265206c656e67746800604482015260640161060e565b600381600481111561145357611453611c98565b03610dbe576040517f08c379a000000000000000000000000000000000000000000000000000000000815260206004820152602260248201527f45434453413a20696e76616c6964207369676e6174757265202773272076616c60448201527f7565000000000000000000000000000000000000000000000000000000000000606482015260840161060e565b6000807f7fffffffffffffffffffffffffffffff5d576e7357a4501ddfe92f46681b20a083111561151757506000905060036115c6565b6040805160008082526020820180845289905260ff881692820192909252606081018690526080810185905260019060a0016020604051602081039080840390855afa15801561156b573d6000803e3d6000fd5b50506040517fffffffffffffffffffffffffffffffffffffffffffffffffffffffffffffffe0015191505073ffffffffffffffffffffffffffffffffffffffff81166115bf576000600192509250506115c6565b9150600090505b94509492505050565b803573ffffffffffffffffffffffffffffffffffffffff811681146115f357600080fd5b919050565b6000806040838503121561160b57600080fd5b611614836115cf565b946020939093013593505050565b60006020828403121561163457600080fd5b5035919050565b7f4e487b7100000000000000000000000000000000000000000000000000000000600052604160045260246000fd5b604051601f82017fffffffffffffffffffffffffffffffffffffffffffffffffffffffffffffffe016810167ffffffffffffffff811182821017156116b1576116b161163b565b604052919050565b600067ffffffffffffffff8211156116d3576116d361163b565b50601f017fffffffffffffffffffffffffffffffffffffffffffffffffffffffffffffffe01660200190565b600061171261170d846116b9565b61166a565b905082815283838301111561172657600080fd5b828260208301376000602084830101529392505050565b60008060006060848603121561175257600080fd5b833567ffffffffffffffff8082111561176a57600080fd5b818601915086601f83011261177e57600080fd5b61178d878335602085016116ff565b945061179b602087016115cf565b935060408601359150808211156117b157600080fd5b508401601f810186136117c357600080fd5b6117d2868235602084016116ff565b9150509250925092565b60005b838110156117f75781810151838201526020016117df565b50506000910152565b602081526000825180602084015261181f8160408501602087016117dc565b601f017fffffffffffffffffffffffffffffffffffffffffffffffffffffffffffffffe0169190910160400192915050565b60008083601f84011261186357600080fd5b50813567ffffffffffffffff81111561187b57600080fd5b60208301915083602082850101111561132657600080fd5b6000806000604084860312156118a857600080fd5b83359250602084013567ffffffffffffffff8111156118c657600080fd5b6118d286828701611851565b9497909650939450505050565b6000602082840312156118f157600080fd5b6112e1826115cf565b60008060008060008060008060a0898b03121561191657600080fd5b8835975061192660208a016115cf565b9650604089013567ffffffffffffffff8082111561194357600080fd5b61194f8c838d01611851565b909850965060608b013591508082111561196857600080fd5b6119748c838d01611851565b909650945060808b013591508082111561198d57600080fd5b5061199a8b828c01611851565b999c989b5096995094979396929594505050565b7f4e487b7100000000000000000000000000000000000000000000000000000000600052601160045260246000fd5b80820281158282048414176102bb576102bb6119ae565b7f4e487b7100000000000000000000000000000000000000000000000000000000600052603260045260246000fd5b7f4e487b7100000000000000000000000000000000000000000000000000000000600052601260045260246000fd5b600082611a6157611a61611a23565b500490565b600082611a7557611a75611a23565b500690565b808201808211156102bb576102bb6119ae565b60007fffffffffffffffffffffffffffffffffffffffffffffffffffffffffffffffff8203611abe57611abe6119ae565b5060010190565b60008551611ad7818460208a016117dc565b855190830190611aeb818360208a016117dc565b8551910190611afe8183602089016117dc565b8451910190611b118183602088016117dc565b019695505050505050565b8183823760009101908152919050565b8183528181602085013750600060208284010152600060207fffffffffffffffffffffffffffffffffffffffffffffffffffffffffffffffe0601f840116840101905092915050565b602081526000611b89602083018486611b2c565b949350505050565b600060208284031215611ba357600080fd5b815167ffffffffffffffff811115611bba57600080fd5b8201601f81018413611bcb57600080fd5b8051611bd961170d826116b9565b818152856020838501011115611bee57600080fd5b611bff8260208301602086016117dc565b95945050505050565b858152606060208201526000611c22606083018688611b2c565b8281036040840152611c35818587611b2c565b98975050505050505050565b600060208284031215611c5357600080fd5b815180151581146112e157600080fd5b600081611c7257611c726119ae565b507fffffffffffffffffffffffffffffffffffffffffffffffffffffffffffffffff0190565b7f4e487b7100000000000000000000000000000000000000000000000000000000600052602160045260246000fdfea2646970667358221220fd29e7f6f0e2b201290cb74c58f83f1a3e043a52458892afe488a734baddd5e164736f6c63430008130033",
  "devdoc": {
    "kind": "dev",
    "methods": {
      "owner()": {
        "details": "Returns the address of the current owner."
      },
      "renounceOwnership()": {
        "details": "Leaves the contract without owner. It will not be possible to call `onlyOwner` functions. Can only be called by the current owner. NOTE: Renouncing ownership will leave the contract without an owner, thereby disabling any functionality that is only available to the owner."
      },
      "transferOwnership(address)": {
        "details": "Transfers ownership of the contract to a new account (`newOwner`). Can only be called by the current owner."
      }
    },
    "version": 1
  },
  "userdoc": {
    "kind": "user",
    "methods": {},
    "version": 1
  },
  "storageLayout": {
    "storage": [
      {
        "astId": 1087,
        "contract": "contracts/accounts/guardian/EmailGuardian.sol:EmailGuardian",
        "label": "_owner",
        "offset": 0,
        "slot": "0",
        "type": "t_address"
      },
      {
        "astId": 4139,
        "contract": "contracts/accounts/guardian/EmailGuardian.sol:EmailGuardian",
        "label": "verifyingSigner",
        "offset": 0,
        "slot": "1",
        "type": "t_address"
      },
      {
        "astId": 4143,
        "contract": "contracts/accounts/guardian/EmailGuardian.sol:EmailGuardian",
        "label": "emails",
        "offset": 0,
        "slot": "2",
        "type": "t_mapping(t_address,t_bytes32)"
      },
      {
        "astId": 4147,
        "contract": "contracts/accounts/guardian/EmailGuardian.sol:EmailGuardian",
        "label": "nonces",
        "offset": 0,
        "slot": "3",
        "type": "t_mapping(t_address,t_uint256)"
      },
      {
        "astId": 4151,
        "contract": "contracts/accounts/guardian/EmailGuardian.sol:EmailGuardian",
        "label": "nullifierHashes",
        "offset": 0,
        "slot": "4",
        "type": "t_mapping(t_bytes32,t_bool)"
      }
    ],
    "types": {
      "t_address": {
        "encoding": "inplace",
        "label": "address",
        "numberOfBytes": "20"
      },
      "t_bool": {
        "encoding": "inplace",
        "label": "bool",
        "numberOfBytes": "1"
      },
      "t_bytes32": {
        "encoding": "inplace",
        "label": "bytes32",
        "numberOfBytes": "32"
      },
      "t_mapping(t_address,t_bytes32)": {
        "encoding": "mapping",
        "key": "t_address",
        "label": "mapping(address => bytes32)",
        "numberOfBytes": "32",
        "value": "t_bytes32"
      },
      "t_mapping(t_address,t_uint256)": {
        "encoding": "mapping",
        "key": "t_address",
        "label": "mapping(address => uint256)",
        "numberOfBytes": "32",
        "value": "t_uint256"
      },
      "t_mapping(t_bytes32,t_bool)": {
        "encoding": "mapping",
        "key": "t_bytes32",
        "label": "mapping(bytes32 => bool)",
        "numberOfBytes": "32",
        "value": "t_bool"
      },
      "t_uint256": {
        "encoding": "inplace",
        "label": "uint256",
        "numberOfBytes": "32"
      }
    }
  }
}