{
  "address": "0xfaa4846fda0f5fc7Fa962064e50CEED67a1C45dE",
  "abi": [
    {
      "inputs": [
        {
          "internalType": "uint256",
          "name": "preOpGas",
          "type": "uint256"
        },
        {
          "internalType": "uint256",
          "name": "paid",
          "type": "uint256"
        },
        {
          "internalType": "uint64",
          "name": "validAfter",
          "type": "uint64"
        },
        {
          "internalType": "uint64",
          "name": "validBefore",
          "type": "uint64"
        }
      ],
      "name": "ExecutionResult",
      "type": "error"
    },
    {
      "inputs": [
        {
          "internalType": "uint256",
          "name": "opIndex",
          "type": "uint256"
        },
        {
          "internalType": "address",
          "name": "paymaster",
          "type": "address"
        },
        {
          "internalType": "string",
          "name": "reason",
          "type": "string"
        }
      ],
      "name": "FailedOp",
      "type": "error"
    },
    {
      "inputs": [
        {
          "internalType": "address",
          "name": "sender",
          "type": "address"
        }
      ],
      "name": "SenderAddressResult",
      "type": "error"
    },
    {
      "inputs": [
        {
          "internalType": "address",
          "name": "aggregator",
          "type": "address"
        }
      ],
      "name": "SignatureValidationFailed",
      "type": "error"
    },
    {
      "inputs": [
        {
          "components": [
            {
              "internalType": "uint256",
              "name": "preOpGas",
              "type": "uint256"
            },
            {
              "internalType": "uint256",
              "name": "prefund",
              "type": "uint256"
            },
            {
              "internalType": "bool",
              "name": "sigFailed",
              "type": "bool"
            },
            {
              "internalType": "uint64",
              "name": "validAfter",
              "type": "uint64"
            },
            {
              "internalType": "uint64",
              "name": "validUntil",
              "type": "uint64"
            },
            {
              "internalType": "bytes",
              "name": "paymasterContext",
              "type": "bytes"
            }
          ],
          "internalType": "struct IEntryPoint.ReturnInfo",
          "name": "returnInfo",
          "type": "tuple"
        },
        {
          "components": [
            {
              "internalType": "uint256",
              "name": "stake",
              "type": "uint256"
            },
            {
              "internalType": "uint256",
              "name": "unstakeDelaySec",
              "type": "uint256"
            }
          ],
          "internalType": "struct IStakeManager.StakeInfo",
          "name": "senderInfo",
          "type": "tuple"
        },
        {
          "components": [
            {
              "internalType": "uint256",
              "name": "stake",
              "type": "uint256"
            },
            {
              "internalType": "uint256",
              "name": "unstakeDelaySec",
              "type": "uint256"
            }
          ],
          "internalType": "struct IStakeManager.StakeInfo",
          "name": "factoryInfo",
          "type": "tuple"
        },
        {
          "components": [
            {
              "internalType": "uint256",
              "name": "stake",
              "type": "uint256"
            },
            {
              "internalType": "uint256",
              "name": "unstakeDelaySec",
              "type": "uint256"
            }
          ],
          "internalType": "struct IStakeManager.StakeInfo",
          "name": "paymasterInfo",
          "type": "tuple"
        }
      ],
      "name": "ValidationResult",
      "type": "error"
    },
    {
      "inputs": [
        {
          "components": [
            {
              "internalType": "uint256",
              "name": "preOpGas",
              "type": "uint256"
            },
            {
              "internalType": "uint256",
              "name": "prefund",
              "type": "uint256"
            },
            {
              "internalType": "bool",
              "name": "sigFailed",
              "type": "bool"
            },
            {
              "internalType": "uint64",
              "name": "validAfter",
              "type": "uint64"
            },
            {
              "internalType": "uint64",
              "name": "validUntil",
              "type": "uint64"
            },
            {
              "internalType": "bytes",
              "name": "paymasterContext",
              "type": "bytes"
            }
          ],
          "internalType": "struct IEntryPoint.ReturnInfo",
          "name": "returnInfo",
          "type": "tuple"
        },
        {
          "components": [
            {
              "internalType": "uint256",
              "name": "stake",
              "type": "uint256"
            },
            {
              "internalType": "uint256",
              "name": "unstakeDelaySec",
              "type": "uint256"
            }
          ],
          "internalType": "struct IStakeManager.StakeInfo",
          "name": "senderInfo",
          "type": "tuple"
        },
        {
          "components": [
            {
              "internalType": "uint256",
              "name": "stake",
              "type": "uint256"
            },
            {
              "internalType": "uint256",
              "name": "unstakeDelaySec",
              "type": "uint256"
            }
          ],
          "internalType": "struct IStakeManager.StakeInfo",
          "name": "factoryInfo",
          "type": "tuple"
        },
        {
          "components": [
            {
              "internalType": "uint256",
              "name": "stake",
              "type": "uint256"
            },
            {
              "internalType": "uint256",
              "name": "unstakeDelaySec",
              "type": "uint256"
            }
          ],
          "internalType": "struct IStakeManager.StakeInfo",
          "name": "paymasterInfo",
          "type": "tuple"
        },
        {
          "components": [
            {
              "internalType": "address",
              "name": "actualAggregator",
              "type": "address"
            },
            {
              "components": [
                {
                  "internalType": "uint256",
                  "name": "stake",
                  "type": "uint256"
                },
                {
                  "internalType": "uint256",
                  "name": "unstakeDelaySec",
                  "type": "uint256"
                }
              ],
              "internalType": "struct IStakeManager.StakeInfo",
              "name": "stakeInfo",
              "type": "tuple"
            }
          ],
          "internalType": "struct IEntryPoint.AggregatorStakeInfo",
          "name": "aggregatorInfo",
          "type": "tuple"
        }
      ],
      "name": "ValidationResultWithAggregation",
      "type": "error"
    },
    {
      "anonymous": false,
      "inputs": [
        {
          "indexed": true,
          "internalType": "bytes32",
          "name": "userOpHash",
          "type": "bytes32"
        },
        {
          "indexed": true,
          "internalType": "address",
          "name": "sender",
          "type": "address"
        },
        {
          "indexed": false,
          "internalType": "address",
          "name": "factory",
          "type": "address"
        },
        {
          "indexed": false,
          "internalType": "address",
          "name": "paymaster",
          "type": "address"
        }
      ],
      "name": "AccountDeployed",
      "type": "event"
    },
    {
      "anonymous": false,
      "inputs": [
        {
          "indexed": true,
          "internalType": "address",
          "name": "account",
          "type": "address"
        },
        {
          "indexed": false,
          "internalType": "uint256",
          "name": "totalDeposit",
          "type": "uint256"
        }
      ],
      "name": "Deposited",
      "type": "event"
    },
    {
      "anonymous": false,
      "inputs": [
        {
          "indexed": false,
          "internalType": "address",
          "name": "aggregator",
          "type": "address"
        }
      ],
      "name": "SignatureAggregatorChanged",
      "type": "event"
    },
    {
      "anonymous": false,
      "inputs": [
        {
          "indexed": true,
          "internalType": "address",
          "name": "account",
          "type": "address"
        },
        {
          "indexed": false,
          "internalType": "uint256",
          "name": "totalStaked",
          "type": "uint256"
        },
        {
          "indexed": false,
          "internalType": "uint256",
          "name": "withdrawTime",
          "type": "uint256"
        }
      ],
      "name": "StakeLocked",
      "type": "event"
    },
    {
      "anonymous": false,
      "inputs": [
        {
          "indexed": true,
          "internalType": "address",
          "name": "account",
          "type": "address"
        },
        {
          "indexed": false,
          "internalType": "uint256",
          "name": "withdrawTime",
          "type": "uint256"
        }
      ],
      "name": "StakeUnlocked",
      "type": "event"
    },
    {
      "anonymous": false,
      "inputs": [
        {
          "indexed": true,
          "internalType": "address",
          "name": "account",
          "type": "address"
        },
        {
          "indexed": false,
          "internalType": "address",
          "name": "withdrawAddress",
          "type": "address"
        },
        {
          "indexed": false,
          "internalType": "uint256",
          "name": "amount",
          "type": "uint256"
        }
      ],
      "name": "StakeWithdrawn",
      "type": "event"
    },
    {
      "anonymous": false,
      "inputs": [
        {
          "indexed": true,
          "internalType": "bytes32",
          "name": "userOpHash",
          "type": "bytes32"
        },
        {
          "indexed": true,
          "internalType": "address",
          "name": "sender",
          "type": "address"
        },
        {
          "indexed": true,
          "internalType": "address",
          "name": "paymaster",
          "type": "address"
        },
        {
          "indexed": false,
          "internalType": "uint256",
          "name": "nonce",
          "type": "uint256"
        },
        {
          "indexed": false,
          "internalType": "bool",
          "name": "success",
          "type": "bool"
        },
        {
          "indexed": false,
          "internalType": "uint256",
          "name": "actualGasCost",
          "type": "uint256"
        },
        {
          "indexed": false,
          "internalType": "uint256",
          "name": "actualGasUsed",
          "type": "uint256"
        }
      ],
      "name": "UserOperationEvent",
      "type": "event"
    },
    {
      "anonymous": false,
      "inputs": [
        {
          "indexed": true,
          "internalType": "bytes32",
          "name": "userOpHash",
          "type": "bytes32"
        },
        {
          "indexed": true,
          "internalType": "address",
          "name": "sender",
          "type": "address"
        },
        {
          "indexed": false,
          "internalType": "uint256",
          "name": "nonce",
          "type": "uint256"
        },
        {
          "indexed": false,
          "internalType": "bytes",
          "name": "revertReason",
          "type": "bytes"
        }
      ],
      "name": "UserOperationRevertReason",
      "type": "event"
    },
    {
      "anonymous": false,
      "inputs": [
        {
          "indexed": true,
          "internalType": "address",
          "name": "account",
          "type": "address"
        },
        {
          "indexed": false,
          "internalType": "address",
          "name": "withdrawAddress",
          "type": "address"
        },
        {
          "indexed": false,
          "internalType": "uint256",
          "name": "amount",
          "type": "uint256"
        }
      ],
      "name": "Withdrawn",
      "type": "event"
    },
    {
      "inputs": [],
      "name": "SIG_VALIDATION_FAILED",
      "outputs": [
        {
          "internalType": "uint256",
          "name": "",
          "type": "uint256"
        }
      ],
      "stateMutability": "view",
      "type": "function"
    },
    {
      "inputs": [
        {
          "internalType": "uint32",
          "name": "_unstakeDelaySec",
          "type": "uint32"
        }
      ],
      "name": "addStake",
      "outputs": [],
      "stateMutability": "payable",
      "type": "function"
    },
    {
      "inputs": [
        {
          "internalType": "address",
          "name": "account",
          "type": "address"
        }
      ],
      "name": "balanceOf",
      "outputs": [
        {
          "internalType": "uint256",
          "name": "",
          "type": "uint256"
        }
      ],
      "stateMutability": "view",
      "type": "function"
    },
    {
      "inputs": [
        {
          "internalType": "address",
          "name": "account",
          "type": "address"
        }
      ],
      "name": "depositTo",
      "outputs": [],
      "stateMutability": "payable",
      "type": "function"
    },
    {
      "inputs": [
        {
          "internalType": "address",
          "name": "",
          "type": "address"
        }
      ],
      "name": "deposits",
      "outputs": [
        {
          "internalType": "uint112",
          "name": "deposit",
          "type": "uint112"
        },
        {
          "internalType": "bool",
          "name": "staked",
          "type": "bool"
        },
        {
          "internalType": "uint112",
          "name": "stake",
          "type": "uint112"
        },
        {
          "internalType": "uint32",
          "name": "unstakeDelaySec",
          "type": "uint32"
        },
        {
          "internalType": "uint64",
          "name": "withdrawTime",
          "type": "uint64"
        }
      ],
      "stateMutability": "view",
      "type": "function"
    },
    {
      "inputs": [
        {
          "internalType": "address",
          "name": "account",
          "type": "address"
        }
      ],
      "name": "getDepositInfo",
      "outputs": [
        {
          "components": [
            {
              "internalType": "uint112",
              "name": "deposit",
              "type": "uint112"
            },
            {
              "internalType": "bool",
              "name": "staked",
              "type": "bool"
            },
            {
              "internalType": "uint112",
              "name": "stake",
              "type": "uint112"
            },
            {
              "internalType": "uint32",
              "name": "unstakeDelaySec",
              "type": "uint32"
            },
            {
              "internalType": "uint64",
              "name": "withdrawTime",
              "type": "uint64"
            }
          ],
          "internalType": "struct IStakeManager.DepositInfo",
          "name": "info",
          "type": "tuple"
        }
      ],
      "stateMutability": "view",
      "type": "function"
    },
    {
      "inputs": [
        {
          "internalType": "bytes",
          "name": "initCode",
          "type": "bytes"
        }
      ],
      "name": "getSenderAddress",
      "outputs": [],
      "stateMutability": "nonpayable",
      "type": "function"
    },
    {
      "inputs": [
        {
          "components": [
            {
              "internalType": "address",
              "name": "sender",
              "type": "address"
            },
            {
              "internalType": "uint256",
              "name": "nonce",
              "type": "uint256"
            },
            {
              "internalType": "bytes",
              "name": "initCode",
              "type": "bytes"
            },
            {
              "internalType": "bytes",
              "name": "callData",
              "type": "bytes"
            },
            {
              "internalType": "uint256",
              "name": "callGasLimit",
              "type": "uint256"
            },
            {
              "internalType": "uint256",
              "name": "verificationGasLimit",
              "type": "uint256"
            },
            {
              "internalType": "uint256",
              "name": "preVerificationGas",
              "type": "uint256"
            },
            {
              "internalType": "uint256",
              "name": "maxFeePerGas",
              "type": "uint256"
            },
            {
              "internalType": "uint256",
              "name": "maxPriorityFeePerGas",
              "type": "uint256"
            },
            {
              "internalType": "bytes",
              "name": "paymasterAndData",
              "type": "bytes"
            },
            {
              "internalType": "bytes",
              "name": "signature",
              "type": "bytes"
            }
          ],
          "internalType": "struct UserOperation",
          "name": "userOp",
          "type": "tuple"
        }
      ],
      "name": "getUserOpHash",
      "outputs": [
        {
          "internalType": "bytes32",
          "name": "",
          "type": "bytes32"
        }
      ],
      "stateMutability": "view",
      "type": "function"
    },
    {
      "inputs": [
        {
          "components": [
            {
              "components": [
                {
                  "internalType": "address",
                  "name": "sender",
                  "type": "address"
                },
                {
                  "internalType": "uint256",
                  "name": "nonce",
                  "type": "uint256"
                },
                {
                  "internalType": "bytes",
                  "name": "initCode",
                  "type": "bytes"
                },
                {
                  "internalType": "bytes",
                  "name": "callData",
                  "type": "bytes"
                },
                {
                  "internalType": "uint256",
                  "name": "callGasLimit",
                  "type": "uint256"
                },
                {
                  "internalType": "uint256",
                  "name": "verificationGasLimit",
                  "type": "uint256"
                },
                {
                  "internalType": "uint256",
                  "name": "preVerificationGas",
                  "type": "uint256"
                },
                {
                  "internalType": "uint256",
                  "name": "maxFeePerGas",
                  "type": "uint256"
                },
                {
                  "internalType": "uint256",
                  "name": "maxPriorityFeePerGas",
                  "type": "uint256"
                },
                {
                  "internalType": "bytes",
                  "name": "paymasterAndData",
                  "type": "bytes"
                },
                {
                  "internalType": "bytes",
                  "name": "signature",
                  "type": "bytes"
                }
              ],
              "internalType": "struct UserOperation[]",
              "name": "userOps",
              "type": "tuple[]"
            },
            {
              "internalType": "contract IAggregator",
              "name": "aggregator",
              "type": "address"
            },
            {
              "internalType": "bytes",
              "name": "signature",
              "type": "bytes"
            }
          ],
          "internalType": "struct IEntryPoint.UserOpsPerAggregator[]",
          "name": "opsPerAggregator",
          "type": "tuple[]"
        },
        {
          "internalType": "address payable",
          "name": "beneficiary",
          "type": "address"
        }
      ],
      "name": "handleAggregatedOps",
      "outputs": [],
      "stateMutability": "nonpayable",
      "type": "function"
    },
    {
      "inputs": [
        {
          "components": [
            {
              "internalType": "address",
              "name": "sender",
              "type": "address"
            },
            {
              "internalType": "uint256",
              "name": "nonce",
              "type": "uint256"
            },
            {
              "internalType": "bytes",
              "name": "initCode",
              "type": "bytes"
            },
            {
              "internalType": "bytes",
              "name": "callData",
              "type": "bytes"
            },
            {
              "internalType": "uint256",
              "name": "callGasLimit",
              "type": "uint256"
            },
            {
              "internalType": "uint256",
              "name": "verificationGasLimit",
              "type": "uint256"
            },
            {
              "internalType": "uint256",
              "name": "preVerificationGas",
              "type": "uint256"
            },
            {
              "internalType": "uint256",
              "name": "maxFeePerGas",
              "type": "uint256"
            },
            {
              "internalType": "uint256",
              "name": "maxPriorityFeePerGas",
              "type": "uint256"
            },
            {
              "internalType": "bytes",
              "name": "paymasterAndData",
              "type": "bytes"
            },
            {
              "internalType": "bytes",
              "name": "signature",
              "type": "bytes"
            }
          ],
          "internalType": "struct UserOperation[]",
          "name": "ops",
          "type": "tuple[]"
        },
        {
          "internalType": "address payable",
          "name": "beneficiary",
          "type": "address"
        }
      ],
      "name": "handleOps",
      "outputs": [],
      "stateMutability": "nonpayable",
      "type": "function"
    },
    {
      "inputs": [
        {
          "internalType": "bytes",
          "name": "callData",
          "type": "bytes"
        },
        {
          "components": [
            {
              "components": [
                {
                  "internalType": "address",
                  "name": "sender",
                  "type": "address"
                },
                {
                  "internalType": "uint256",
                  "name": "nonce",
                  "type": "uint256"
                },
                {
                  "internalType": "uint256",
                  "name": "callGasLimit",
                  "type": "uint256"
                },
                {
                  "internalType": "uint256",
                  "name": "verificationGasLimit",
                  "type": "uint256"
                },
                {
                  "internalType": "uint256",
                  "name": "preVerificationGas",
                  "type": "uint256"
                },
                {
                  "internalType": "address",
                  "name": "paymaster",
                  "type": "address"
                },
                {
                  "internalType": "uint256",
                  "name": "maxFeePerGas",
                  "type": "uint256"
                },
                {
                  "internalType": "uint256",
                  "name": "maxPriorityFeePerGas",
                  "type": "uint256"
                }
              ],
              "internalType": "struct EntryPoint.MemoryUserOp",
              "name": "mUserOp",
              "type": "tuple"
            },
            {
              "internalType": "bytes32",
              "name": "userOpHash",
              "type": "bytes32"
            },
            {
              "internalType": "uint256",
              "name": "prefund",
              "type": "uint256"
            },
            {
              "internalType": "uint256",
              "name": "contextOffset",
              "type": "uint256"
            },
            {
              "internalType": "uint256",
              "name": "preOpGas",
              "type": "uint256"
            }
          ],
          "internalType": "struct EntryPoint.UserOpInfo",
          "name": "opInfo",
          "type": "tuple"
        },
        {
          "internalType": "bytes",
          "name": "context",
          "type": "bytes"
        }
      ],
      "name": "innerHandleOp",
      "outputs": [
        {
          "internalType": "uint256",
          "name": "actualGasCost",
          "type": "uint256"
        }
      ],
      "stateMutability": "nonpayable",
      "type": "function"
    },
    {
      "inputs": [
        {
          "components": [
            {
              "internalType": "address",
              "name": "sender",
              "type": "address"
            },
            {
              "internalType": "uint256",
              "name": "nonce",
              "type": "uint256"
            },
            {
              "internalType": "bytes",
              "name": "initCode",
              "type": "bytes"
            },
            {
              "internalType": "bytes",
              "name": "callData",
              "type": "bytes"
            },
            {
              "internalType": "uint256",
              "name": "callGasLimit",
              "type": "uint256"
            },
            {
              "internalType": "uint256",
              "name": "verificationGasLimit",
              "type": "uint256"
            },
            {
              "internalType": "uint256",
              "name": "preVerificationGas",
              "type": "uint256"
            },
            {
              "internalType": "uint256",
              "name": "maxFeePerGas",
              "type": "uint256"
            },
            {
              "internalType": "uint256",
              "name": "maxPriorityFeePerGas",
              "type": "uint256"
            },
            {
              "internalType": "bytes",
              "name": "paymasterAndData",
              "type": "bytes"
            },
            {
              "internalType": "bytes",
              "name": "signature",
              "type": "bytes"
            }
          ],
          "internalType": "struct UserOperation",
          "name": "op",
          "type": "tuple"
        }
      ],
      "name": "simulateHandleOp",
      "outputs": [],
      "stateMutability": "nonpayable",
      "type": "function"
    },
    {
      "inputs": [
        {
          "components": [
            {
              "internalType": "address",
              "name": "sender",
              "type": "address"
            },
            {
              "internalType": "uint256",
              "name": "nonce",
              "type": "uint256"
            },
            {
              "internalType": "bytes",
              "name": "initCode",
              "type": "bytes"
            },
            {
              "internalType": "bytes",
              "name": "callData",
              "type": "bytes"
            },
            {
              "internalType": "uint256",
              "name": "callGasLimit",
              "type": "uint256"
            },
            {
              "internalType": "uint256",
              "name": "verificationGasLimit",
              "type": "uint256"
            },
            {
              "internalType": "uint256",
              "name": "preVerificationGas",
              "type": "uint256"
            },
            {
              "internalType": "uint256",
              "name": "maxFeePerGas",
              "type": "uint256"
            },
            {
              "internalType": "uint256",
              "name": "maxPriorityFeePerGas",
              "type": "uint256"
            },
            {
              "internalType": "bytes",
              "name": "paymasterAndData",
              "type": "bytes"
            },
            {
              "internalType": "bytes",
              "name": "signature",
              "type": "bytes"
            }
          ],
          "internalType": "struct UserOperation",
          "name": "userOp",
          "type": "tuple"
        }
      ],
      "name": "simulateValidation",
      "outputs": [],
      "stateMutability": "nonpayable",
      "type": "function"
    },
    {
      "inputs": [],
      "name": "unlockStake",
      "outputs": [],
      "stateMutability": "nonpayable",
      "type": "function"
    },
    {
      "inputs": [
        {
          "internalType": "address payable",
          "name": "withdrawAddress",
          "type": "address"
        }
      ],
      "name": "withdrawStake",
      "outputs": [],
      "stateMutability": "nonpayable",
      "type": "function"
    },
    {
      "inputs": [
        {
          "internalType": "address payable",
          "name": "withdrawAddress",
          "type": "address"
        },
        {
          "internalType": "uint256",
          "name": "withdrawAmount",
          "type": "uint256"
        }
      ],
      "name": "withdrawTo",
      "outputs": [],
      "stateMutability": "nonpayable",
      "type": "function"
    },
    {
      "stateMutability": "payable",
      "type": "receive"
    }
  ],
  "transactionHash": "0x0c7acb0bb19bd0cfa1b9e8aed104fd7a6344e70c7c42c992d5f7884b26c20afa",
  "args": [],
  "numDeployments": 1,
  "solcInputHash": "cd9e8c6ae70f3f527ad844ca9f0dd521",
  "bytecode": "0x60a0604052604051620000129062000050565b604051809103906000f0801580156200002f573d6000803e3d6000fd5b506001600160a01b03166080523480156200004957600080fd5b506200005e565b6102338062003f1a83390190565b608051613e99620000816000396000818161114f0152612d9e0152613e996000f3fe6080604052600436106100f75760003560e01c80639b249f691161008a578063c207711611610059578063c2077116146103bb578063c23a5cea146103db578063ee219423146103fb578063fc7e286d1461041b57600080fd5b80639b249f6914610353578063a619353114610373578063b760faf914610393578063bb9fe6bf146103a657600080fd5b80634b1d7cf5116100c65780634b1d7cf5146101925780635287ce12146101b257806370a08231146102f85780638f41ec5a1461033e57600080fd5b80630396cb601461010c5780631d7327561461011f5780631fad948c14610152578063205c28781461017257600080fd5b3661010757610105336104f9565b005b600080fd5b61010561011a36600461306c565b610567565b34801561012b57600080fd5b5061013f61013a3660046131ad565b610883565b6040519081526020015b60405180910390f35b34801561015e57600080fd5b5061010561016d366004613336565b610a55565b34801561017e57600080fd5b5061010561018d36600461338d565b610b98565b34801561019e57600080fd5b506101056101ad366004613336565b610d4c565b3480156101be57600080fd5b506102976101cd3660046133b9565b6040805160a081018252600080825260208201819052918101829052606081018290526080810191909152506001600160a01b031660009081526020818152604091829020825160a08101845281546dffffffffffffffffffffffffffff80821683526e010000000000000000000000000000820460ff161515948301949094526f0100000000000000000000000000000090049092169282019290925260019091015463ffffffff81166060830152640100000000900467ffffffffffffffff16608082015290565b6040805182516dffffffffffffffffffffffffffff908116825260208085015115159083015283830151169181019190915260608083015163ffffffff169082015260809182015167ffffffffffffffff169181019190915260a001610149565b34801561030457600080fd5b5061013f6103133660046133b9565b6001600160a01b03166000908152602081905260409020546dffffffffffffffffffffffffffff1690565b34801561034a57600080fd5b5061013f600181565b34801561035f57600080fd5b5061010561036e3660046133d6565b61111f565b34801561037f57600080fd5b5061013f61038e366004613418565b611207565b6101056103a13660046133b9565b6104f9565b3480156103b257600080fd5b50610105611249565b3480156103c757600080fd5b506101056103d6366004613418565b6113ce565b3480156103e757600080fd5b506101056103f63660046133b9565b611472565b34801561040757600080fd5b50610105610416366004613418565b6116f4565b34801561042757600080fd5b506104aa6104363660046133b9565b600060208190529081526040902080546001909101546dffffffffffffffffffffffffffff808316926e010000000000000000000000000000810460ff16926f010000000000000000000000000000009091049091169063ffffffff811690640100000000900467ffffffffffffffff1685565b604080516dffffffffffffffffffffffffffff96871681529415156020860152929094169183019190915263ffffffff16606082015267ffffffffffffffff909116608082015260a001610149565b61050381346119c7565b6001600160a01b03811660008181526020818152604091829020805492516dffffffffffffffffffffffffffff909316835292917f2da466a7b24304f47e87fa2e1e5a81b9831ce54fec19055ce277ca2f39ba42c491015b60405180910390a25050565b33600090815260208190526040902063ffffffff82166105ce5760405162461bcd60e51b815260206004820152601a60248201527f6d757374207370656369667920756e7374616b652064656c617900000000000060448201526064015b60405180910390fd5b600181015463ffffffff908116908316101561062c5760405162461bcd60e51b815260206004820152601c60248201527f63616e6e6f7420646563726561736520756e7374616b652074696d650000000060448201526064016105c5565b805460009061065f9034906f0100000000000000000000000000000090046dffffffffffffffffffffffffffff16613483565b9050600081116106b15760405162461bcd60e51b815260206004820152601260248201527f6e6f207374616b6520737065636966696564000000000000000000000000000060448201526064016105c5565b6dffffffffffffffffffffffffffff811061070e5760405162461bcd60e51b815260206004820152600e60248201527f7374616b65206f766572666c6f7700000000000000000000000000000000000060448201526064016105c5565b6040805160a08101825283546dffffffffffffffffffffffffffff90811682526001602080840182815286841685870190815263ffffffff808b16606088019081526000608089018181523380835296829052908a9020985189549551945189166f01000000000000000000000000000000027fffffff0000000000000000000000000000ffffffffffffffffffffffffffffff9515156e010000000000000000000000000000027fffffffffffffffffffffffffffffffffff0000000000000000000000000000009097169190991617949094179290921695909517865551949092018054925167ffffffffffffffff16640100000000027fffffffffffffffffffffffffffffffffffffffff000000000000000000000000909316949093169390931717905590517fa5ae833d0bb1dcd632d98a8b70973e8516812898e19bf27b70071ebc8dc52c0190610876908490879091825263ffffffff16602082015260400190565b60405180910390a2505050565b6000805a90503330146108d85760405162461bcd60e51b815260206004820152601760248201527f4141393220696e7465726e616c2063616c6c206f6e6c7900000000000000000060448201526064016105c5565b8451604081015160608201518101611388015a101561091b577fdeaddead0000000000000000000000000000000000000000000000000000000060005260206000fd5b600088156109f25760008084600001516001600160a01b0316848d8d604051610945929190613496565b60006040518083038160008787f1925050503d8060008114610983576040519150601f19603f3d011682016040523d82523d6000602084013e610988565b606091505b5091509150816109ef578051156109ea5784600001516001600160a01b03168a602001517f1c4fada7374c0a9ee8841fc38afe82932dc0f8e69012e927f061a8bae611a2018760200151846040516109e19291906134f6565b60405180910390a35b600192505b50505b600088608001515a8603019050610a446000838b8b8b8080601f016020809104026020016040519081016040528093929190818152602001838380828437600092019190915250889250611a9d915050565b955050505050505b95945050505050565b8160008167ffffffffffffffff811115610a7157610a716130e2565b604051908082528060200260200182016040528015610aaa57816020015b610a97612fe2565b815260200190600190039081610a8f5790505b50905060005b82811015610b25576000828281518110610acc57610acc61350f565b60200260200101519050600080610b09848a8a87818110610aef57610aef61350f565b9050602002810190610b01919061353e565b856000611dce565b5091509150610b1a84848484611f6b565b505050600101610ab0565b506000805b83811015610b8557610b7981888884818110610b4857610b4861350f565b9050602002810190610b5a919061353e565b858481518110610b6c57610b6c61350f565b602002602001015161213d565b90910190600101610b2a565b50610b90848261229e565b505050505050565b33600090815260208190526040902080546dffffffffffffffffffffffffffff16821115610c085760405162461bcd60e51b815260206004820152601960248201527f576974686472617720616d6f756e7420746f6f206c617267650000000000000060448201526064016105c5565b8054610c259083906dffffffffffffffffffffffffffff1661357c565b81547fffffffffffffffffffffffffffffffffffff0000000000000000000000000000166dffffffffffffffffffffffffffff91909116178155604080516001600160a01b03851681526020810184905233917fd1c19fbcd4551a5edfb66d43d2e337c04837afda3482b42bdf569a8fccdae5fb910160405180910390a26000836001600160a01b03168360405160006040518083038185875af1925050503d8060008114610cf0576040519150601f19603f3d011682016040523d82523d6000602084013e610cf5565b606091505b5050905080610d465760405162461bcd60e51b815260206004820152601260248201527f6661696c656420746f207769746864726177000000000000000000000000000060448201526064016105c5565b50505050565b816000805b82811015610da657858582818110610d6b57610d6b61350f565b9050602002810190610d7d919061358f565b610d8790806135c3565b610d92915083613483565b915080610d9e8161362b565b915050610d51565b5060008167ffffffffffffffff811115610dc257610dc26130e2565b604051908082528060200260200182016040528015610dfb57816020015b610de8612fe2565b815260200190600190039081610de05790505b5090506000805b84811015610fb65736888883818110610e1d57610e1d61350f565b9050602002810190610e2f919061358f565b9050366000610e3e83806135c3565b90925090506000610e5560408501602086016133b9565b90508160005b81811015610ee7576000898981518110610e7757610e7761350f565b60200260200101519050600080610eb38b898987818110610e9a57610e9a61350f565b9050602002810190610eac919061353e565b8589611dce565b5091509150610ec484848484611f6b565b8a610ece8161362b565b9b50505050508080610edf9061362b565b915050610e5b565b506001600160a01b03821615610f9e576001600160a01b03821663e3563a4f8585610f1560408a018a613663565b6040518563ffffffff1660e01b8152600401610f34949392919061384e565b60006040518083038186803b158015610f4c57600080fd5b505afa925050508015610f5d575060015b610f9e576040517f86a9f7500000000000000000000000000000000000000000000000000000000081526001600160a01b03831660048201526024016105c5565b50505050508080610fae9061362b565b915050610e02565b50600080915060005b858110156110d65736898983818110610fda57610fda61350f565b9050602002810190610fec919061358f565b90507f575ff3acadd5ab348fe1855e217e0f3678f8d767d7494c9f9fefbee2e17cca4d61101f60408301602084016133b9565b6040516001600160a01b03909116815260200160405180910390a136600061104783806135c3565b90925090508060005b818110156110be576110928885858481811061106e5761106e61350f565b9050602002810190611080919061353e565b8b8b81518110610b6c57610b6c61350f565b61109c9088613483565b9650876110a88161362b565b98505080806110b69061362b565b915050611050565b505050505080806110ce9061362b565b915050610fbf565b50604051600081527f575ff3acadd5ab348fe1855e217e0f3678f8d767d7494c9f9fefbee2e17cca4d9060200160405180910390a1611115868261229e565b5050505050505050565b6040517f570e1a360000000000000000000000000000000000000000000000000000000081526001600160a01b037f0000000000000000000000000000000000000000000000000000000000000000169063570e1a36906111869085908590600401613905565b6020604051808303816000875af11580156111a5573d6000803e3d6000fd5b505050506040513d601f19601f820116820180604052508101906111c99190613919565b6040517f6ca7b8060000000000000000000000000000000000000000000000000000000081526001600160a01b0390911660048201526024016105c5565b60006112128261239c565b6040805160208101929092523090820152466060820152608001604051602081830303815290604052805190602001209050919050565b3360009081526020819052604081206001810154909163ffffffff90911690036112b55760405162461bcd60e51b815260206004820152600a60248201527f6e6f74207374616b65640000000000000000000000000000000000000000000060448201526064016105c5565b80546e010000000000000000000000000000900460ff166113185760405162461bcd60e51b815260206004820152601160248201527f616c726561647920756e7374616b696e6700000000000000000000000000000060448201526064016105c5565b60018101546000906113309063ffffffff1642613936565b6001830180547fffffffffffffffffffffffffffffffffffffffff0000000000000000ffffffff1664010000000067ffffffffffffffff84169081029190911790915583547fffffffffffffffffffffffffffffffffff00ffffffffffffffffffffffffffff16845560405190815290915033907ffa9b3c14cc825c412c9ed81b3ba365a5b459439403f18829e572ed53a4180f0a9060200161055b565b6113d6612fe2565b6000806113e7600085856001611dce565b50915091506000806113f984846123b5565b925092505061140743600052565b60006114156000888861213d565b60808701516040517fcd8ac24600000000000000000000000000000000000000000000000000000000815260048101919091526024810182905267ffffffffffffffff8086166044830152841660648201529091506084016105c5565b33600090815260208190526040902080546f0100000000000000000000000000000090046dffffffffffffffffffffffffffff16806114f35760405162461bcd60e51b815260206004820152601460248201527f4e6f207374616b6520746f20776974686472617700000000000000000000000060448201526064016105c5565b6001820154640100000000900467ffffffffffffffff166115565760405162461bcd60e51b815260206004820152601d60248201527f6d7573742063616c6c20756e6c6f636b5374616b65282920666972737400000060448201526064016105c5565b60018201544264010000000090910467ffffffffffffffff1611156115bd5760405162461bcd60e51b815260206004820152601b60248201527f5374616b65207769746864726177616c206973206e6f7420647565000000000060448201526064016105c5565b6001820180547fffffffffffffffffffffffffffffffffffffffff00000000000000000000000016905581547fffffff0000000000000000000000000000ffffffffffffffffffffffffffffff168255604080516001600160a01b03851681526020810183905233917fb7c918e0e249f999e965cafeb6c664271b3f4317d296461500e71da39f0cbda3910160405180910390a26000836001600160a01b03168260405160006040518083038185875af1925050503d806000811461169e576040519150601f19603f3d011682016040523d82523d6000602084013e6116a3565b606091505b5050905080610d465760405162461bcd60e51b815260206004820152601860248201527f6661696c656420746f207769746864726177207374616b65000000000000000060448201526064016105c5565b6116fc612fe2565b600080600061170f600086866001611dce565b865160a00151604080518082018252600080825260208083018281526001600160a01b03958616835282825284832080546dffffffffffffffffffffffffffff6f01000000000000000000000000000000918290048116875260019283015463ffffffff9081169094528f51518851808a018a5287815280870188815291909a168752868652888720805493909304909116895291015490911690528351808501909452818452830152949750929550909350903660006117d360408b018b613663565b9092509050600060148210156117ea576000611805565b6117f860146000848661395e565b61180191613988565b60601c5b604080518082018252600080825260208083018281526001600160a01b03861683529082905292902080546f0100000000000000000000000000000090046dffffffffffffffffffffffffffff1682526001015463ffffffff169091529091509350505050600080600061187989896123b5565b92509250925060006040518060c001604052808c6080015181526020018c60400151815260200185151581526020018467ffffffffffffffff1681526020018367ffffffffffffffff1681526020016118d38d6060015190565b905290506001600160a01b0388161561198d576040805180820182526001600160a01b038a1680825282518084018452600080825260208083018281529382528181529085902080546f0100000000000000000000000000000090046dffffffffffffffffffffffffffff1683526001015463ffffffff169092529082015290517f356877a30000000000000000000000000000000000000000000000000000000081526105c5908390899089908c908690600401613a29565b808686896040517ff04297e90000000000000000000000000000000000000000000000000000000081526004016105c59493929190613aa9565b6001600160a01b038216600090815260208190526040812080549091906119ff9084906dffffffffffffffffffffffffffff16613483565b90506dffffffffffffffffffffffffffff811115611a5f5760405162461bcd60e51b815260206004820152601060248201527f6465706f736974206f766572666c6f770000000000000000000000000000000060448201526064016105c5565b81547fffffffffffffffffffffffffffffffffffff0000000000000000000000000000166dffffffffffffffffffffffffffff919091161790555050565b6000805a855190915060009081611ab382612432565b60a08301519091506001600160a01b038116611ad25782519350611ca6565b809350600088511115611ca657868202955060028a6002811115611af857611af8613afc565b14611b835760608301516040517fa9a234090000000000000000000000000000000000000000000000000000000081526001600160a01b0383169163a9a2340991611b4b908e908d908c90600401613b2b565b600060405180830381600088803b158015611b6557600080fd5b5087f1158015611b79573d6000803e3d6000fd5b5050505050611ca6565b60608301516040517fa9a234090000000000000000000000000000000000000000000000000000000081526001600160a01b0383169163a9a2340991611bd1908e908d908c90600401613b2b565b600060405180830381600088803b158015611beb57600080fd5b5087f193505050508015611bfd575060015b611ca657611c09613b8b565b806308c379a003611c465750611c1d613ba7565b80611c285750611c48565b8b828260405162fa072b60e01b81526004016105c593929190613c4f565b505b60405162fa072b60e01b8152600481018c90526001600160a01b038216602482015260606044820152601160648201527f41353020706f73744f7020726576657274000000000000000000000000000000608482015260a4016105c5565b5a85038701965081870295508589604001511015611d1c5760405162fa072b60e01b8152600481018c90526001600160a01b038216602482015260606044820152601f60648201527f4135312070726566756e642062656c6f772061637475616c476173436f737400608482015260a4016105c5565b6040890151869003611d2e85826119c7565b6000808c6002811115611d4357611d43613afc565b1490508460a001516001600160a01b031685600001516001600160a01b03168c602001517f49628fd1471006c1482da88028e9ce4dbb080b815c9b0344d39e5a8e6ec1419f8860200151858d8f604051611db6949392919093845291151560208401526040830152606082015260800190565b60405180910390a45050505050505095945050505050565b6000806000805a8651909150611de48882612462565b611ded88611207565b6020880152604081015160608201516080830151171760e089013517610100890135176effffffffffffffffffffffffffffff811115611e6f5760405162461bcd60e51b815260206004820152601860248201527f41413934206761732076616c756573206f766572666c6f77000000000000000060448201526064016105c5565b600080611e7b8461255b565b9050611e8a8c8c8c8c856125a9565b995096509150611e9943600052565b60a08401516060906001600160a01b031615611ec157611ebc8d8d8d85876129c8565b985090505b60005a87039050808d60a001351015611f3b578d8660a0015160405162fa072b60e01b81526004016105c59291909182526001600160a01b03166020820152606060408201819052601e908201527f41413430206f76657220766572696669636174696f6e4761734c696d69740000608082015260a00190565b60408c018390528160608d015260c08d01355a8803018c6080018181525050505050505050509450945094915050565b600080611f7784612c2b565b915091508115611fd75760405162fa072b60e01b8152600481018790526000602482015260606044820152601460648201527f41413234207369676e6174757265206572726f72000000000000000000000000608482015260a4016105c5565b80156120335760405162fa072b60e01b8152600481018790526000602482015260606044820152601760648201527f414132322065787069726564206f72206e6f7420647565000000000000000000608482015260a4016105c5565b61203c83612c2b565b909250905081156120ac57845160a0015160405162fa072b60e01b8152600481018890526001600160a01b03909116602482015260606044820152601460648201527f41413334207369676e6174757265206572726f72000000000000000000000000608482015260a4016105c5565b8015610b9057845160a0015160405162fa072b60e01b8152600481018890526001600160a01b03909116602482015260606044820152602160648201527f41413332207061796d61737465722065787069726564206f72206e6f7420647560848201527f650000000000000000000000000000000000000000000000000000000000000060a482015260c4016105c5565b6000805a90506000612150846060015190565b905030631d7327566121656060880188613663565b87856040518563ffffffff1660e01b81526004016121869493929190613c77565b6020604051808303816000875af19250505080156121c1575060408051601f3d908101601f191682019092526121be91810190613d2b565b60015b61229257600060206000803e506000517f2152215300000000000000000000000000000000000000000000000000000000810161225d57845160a0015160405162fa072b60e01b8152600481018990526001600160a01b03909116602482015260606044820152600f60648201527f41413935206f7574206f66206761730000000000000000000000000000000000608482015260a4016105c5565b600085608001515a61226f908661357c565b6122799190613483565b9050612289886002888685611a9d565b94505050612295565b92505b50509392505050565b6001600160a01b0382166122f45760405162461bcd60e51b815260206004820152601860248201527f4141393020696e76616c69642062656e6566696369617279000000000000000060448201526064016105c5565b6000826001600160a01b03168260405160006040518083038185875af1925050503d8060008114612341576040519150601f19603f3d011682016040523d82523d6000602084013e612346565b606091505b50509050806123975760405162461bcd60e51b815260206004820152601f60248201527f41413931206661696c65642073656e6420746f2062656e65666963696172790060448201526064016105c5565b505050565b60006123a782612c77565b805190602001209050919050565b60008060006123c385612cb6565b91945092509050600080806123d787612cb6565b92509250925085806123e65750825b95508167ffffffffffffffff168567ffffffffffffffff161015612408578194505b8067ffffffffffffffff168467ffffffffffffffff161115612428578093505b5050509250925092565b60c081015160e08201516000919080820361244e575092915050565b61245a82488301612cdc565b949350505050565b61246f60208301836133b9565b6001600160a01b0316815260208083013590820152608080830135604083015260a0830135606083015260c0808401359183019190915260e08084013591830191909152610100830135908201523660006124ce610120850185613663565b9092509050801561254e57601481101561252a5760405162461bcd60e51b815260206004820152601d60248201527f4141393320696e76616c6964207061796d6173746572416e644461746100000060448201526064016105c5565b61253860146000838561395e565b61254191613988565b60601c60a0840152610d46565b600060a084015250505050565b60a081015160009081906001600160a01b031661257957600161257c565b60035b60ff16905060008360800151828560600151028560400151010190506125a184612432565b029392505050565b6000806000805a87518051919250906125cf8b8a6125ca60408e018e613663565b612cf6565b7fffffffffffffffffffffffffffffffffffffffffffffffffffffffffffffffff6001600160a01b038916016127635761260843600052565b806001600160a01b03163b6000036126705760405162fa072b60e01b8152600060048201819052602482015260606044820152601960648201527f41413230206163636f756e74206e6f74206465706c6f79656400000000000000608482015260a4016105c5565b60a08201516001600160a01b031615801590612698575060a08201516001600160a01b03163b155b156126f35760405162fa072b60e01b8152600060048201819052602482015260606044820152601b60648201527f41413330207061796d6173746572206e6f74206465706c6f7965640000000000608482015260a4016105c5565b806001600160a01b0316633ad59dbc6040518163ffffffff1660e01b8152600401602060405180830381865afa92505050801561274d575060408051601f3d908101601f1916820190925261274a91810190613919565b60015b61275d5760009450849750612763565b97508794505b60a08201516000906001600160a01b0381166127b8576001600160a01b0383166000908152602081905260409020546dffffffffffffffffffffffffffff168981116127b157808a036127b4565b60005b9250505b826001600160a01b0316630825d1fc85606001518e8e602001518e876040518663ffffffff1660e01b81526004016127f39493929190613d44565b60206040518083038160008887f19350505050801561282f575060408051601f3d908101601f1916820190925261282c91810190613d2b565b60015b6128d15761283b613b8b565b806308c379a003612879575061284f613ba7565b8061285a575061287b565b8d60008260405162fa072b60e01b81526004016105c593929190613c4f565b505b60405162fa072b60e01b8152600481018e90526000602482015260606044820152601660648201527f4141323320726576657274656420286f72204f4f472900000000000000000000608482015260a4016105c5565b95506001600160a01b0381166129b3576001600160a01b038316600090815260208190526040902080546dffffffffffffffffffffffffffff16808b1115612977578e600060405162fa072b60e01b81526004016105c59291909182526001600160a01b031660208201526060604082018190526017908201527f41413231206469646e2774207061792070726566756e64000000000000000000608082015260a00190565b81547fffffffffffffffffffffffffffffffffffff000000000000000000000000000016908b90036dffffffffffffffffffffffffffff161790555b5a850397505050505050955095509592505050565b82516060818101519091600091848111612a245760405162461bcd60e51b815260206004820152601f60248201527f4141343120746f6f206c6974746c6520766572696669636174696f6e4761730060448201526064016105c5565b60a08201516001600160a01b038116600090815260208190526040902080548784039291906dffffffffffffffffffffffffffff1689811015612abf5760405162fa072b60e01b8152600481018e90526001600160a01b038416602482015260606044820152601e60648201527f41413331207061796d6173746572206465706f73697420746f6f206c6f770000608482015260a4016105c5565b8981038260000160006101000a8154816dffffffffffffffffffffffffffff02191690836dffffffffffffffffffffffffffff160217905550826001600160a01b031663f465c77e858e8e602001518e6040518563ffffffff1660e01b8152600401612b2d93929190613d7c565b60006040518083038160008887f193505050508015612b6e57506040513d6000823e601f3d908101601f19168201604052612b6b9190810190613da1565b60015b612c1757612b7a613b8b565b806308c379a003612bb75750612b8e613ba7565b80612b995750612bb9565b8d848260405162fa072b60e01b81526004016105c593929190613c4f565b505b60405162fa072b60e01b8152600481018e90526001600160a01b038416602482015260606044820152601660648201527f4141333320726576657274656420286f72204f4f472900000000000000000000608482015260a4016105c5565b909e909d509b505050505050505050505050565b60008082600003612c4157506000928392509050565b600080612c4d85612cb6565b91955067ffffffffffffffff908116935016905042811080612c6e57508142105b92505050915091565b6060366000612c8a610140850185613663565b915091508360208184030360405194506020810185016040528085528082602087013750505050919050565b60ff81161515600080612cce6001600886901c613e43565b929460489490941c93915050565b6000818310612ceb5781612ced565b825b90505b92915050565b8015610d46578251516001600160a01b0381163b15612d655760405162fa072b60e01b8152600481018690526000602482015260606044820152601f60648201527f414131302073656e64657220616c726561647920636f6e737472756374656400608482015260a4016105c5565b8351606001516040517f570e1a360000000000000000000000000000000000000000000000000000000081526000916001600160a01b037f0000000000000000000000000000000000000000000000000000000000000000169163570e1a369190612dd69088908890600401613905565b60206040518083038160008887f1158015612df5573d6000803e3d6000fd5b50505050506040513d601f19601f82011682018060405250810190612e1a9190613919565b90506001600160a01b038116612e805760405162fa072b60e01b8152600481018790526000602482015260606044820152601b60648201527f4141313320696e6974436f6465206661696c6564206f72204f4f470000000000608482015260a4016105c5565b816001600160a01b0316816001600160a01b031614612eef5760405162fa072b60e01b8152600481018790526000602482015260606044820152602060648201527f4141313420696e6974436f6465206d7573742072657475726e2073656e646572608482015260a4016105c5565b806001600160a01b03163b600003612f575760405162fa072b60e01b8152600481018790526000602482015260606044820152602060648201527f4141313520696e6974436f6465206d757374206372656174652073656e646572608482015260a4016105c5565b6000612f66601482868861395e565b612f6f91613988565b60601c9050826001600160a01b031686602001517fd51a9c61267aa6196961883ecf5ff2da6619c37dac0fa92122513fb32c032d2d83896000015160a00151604051612fd19291906001600160a01b0392831681529116602082015260400190565b60405180910390a350505050505050565b6040518060a0016040528061304760405180610100016040528060006001600160a01b031681526020016000815260200160008152602001600081526020016000815260200160006001600160a01b0316815260200160008152602001600081525090565b8152602001600080191681526020016000815260200160008152602001600081525090565b60006020828403121561307e57600080fd5b813563ffffffff8116811461309257600080fd5b9392505050565b60008083601f8401126130ab57600080fd5b50813567ffffffffffffffff8111156130c357600080fd5b6020830191508360208285010111156130db57600080fd5b9250929050565b7f4e487b7100000000000000000000000000000000000000000000000000000000600052604160045260246000fd5b60a0810181811067ffffffffffffffff82111715613131576131316130e2565b60405250565b610100810181811067ffffffffffffffff82111715613131576131316130e2565b601f19601f830116810181811067ffffffffffffffff8211171561317e5761317e6130e2565b6040525050565b6001600160a01b038116811461319a57600080fd5b50565b80356131a881613185565b919050565b60008060008060008587036101c08112156131c757600080fd5b863567ffffffffffffffff808211156131df57600080fd5b6131eb8a838b01613099565b9098509650601f19929092019161018091508183121561320a57600080fd5b60405161321681613111565b6101008085121561322657600080fd5b604051945061323485613137565b61324060208c0161319d565b855260408b0135602086015260608b0135604086015260808b0135606086015260a08b0135608086015261327660c08c0161319d565b60a086015260e08b81013560c0870152908b0135908501529283526101208901356020840152610140890135604084015261016089013560608401528189013560808401529194506101a088013591808311156132d257600080fd5b50506132e088828901613099565b969995985093965092949392505050565b60008083601f84011261330357600080fd5b50813567ffffffffffffffff81111561331b57600080fd5b6020830191508360208260051b85010111156130db57600080fd5b60008060006040848603121561334b57600080fd5b833567ffffffffffffffff81111561336257600080fd5b61336e868287016132f1565b909450925050602084013561338281613185565b809150509250925092565b600080604083850312156133a057600080fd5b82356133ab81613185565b946020939093013593505050565b6000602082840312156133cb57600080fd5b813561309281613185565b600080602083850312156133e957600080fd5b823567ffffffffffffffff81111561340057600080fd5b61340c85828601613099565b90969095509350505050565b60006020828403121561342a57600080fd5b813567ffffffffffffffff81111561344157600080fd5b8201610160818503121561309257600080fd5b7f4e487b7100000000000000000000000000000000000000000000000000000000600052601160045260246000fd5b80820180821115612cf057612cf0613454565b8183823760009101908152919050565b60005b838110156134c15781810151838201526020016134a9565b50506000910152565b600081518084526134e28160208601602086016134a6565b601f01601f19169290920160200192915050565b82815260406020820152600061245a60408301846134ca565b7f4e487b7100000000000000000000000000000000000000000000000000000000600052603260045260246000fd5b600082357ffffffffffffffffffffffffffffffffffffffffffffffffffffffffffffffea183360301811261357257600080fd5b9190910192915050565b81810381811115612cf057612cf0613454565b600082357fffffffffffffffffffffffffffffffffffffffffffffffffffffffffffffffa183360301811261357257600080fd5b60008083357fffffffffffffffffffffffffffffffffffffffffffffffffffffffffffffffe18436030181126135f857600080fd5b83018035915067ffffffffffffffff82111561361357600080fd5b6020019150600581901b36038213156130db57600080fd5b60007fffffffffffffffffffffffffffffffffffffffffffffffffffffffffffffffff820361365c5761365c613454565b5060010190565b60008083357fffffffffffffffffffffffffffffffffffffffffffffffffffffffffffffffe184360301811261369857600080fd5b83018035915067ffffffffffffffff8211156136b357600080fd5b6020019150368190038213156130db57600080fd5b60008083357fffffffffffffffffffffffffffffffffffffffffffffffffffffffffffffffe18436030181126136fd57600080fd5b830160208101925035905067ffffffffffffffff81111561371d57600080fd5b8036038213156130db57600080fd5b818352818160208501375060006020828401015260006020601f19601f840116840101905092915050565b6000610160613776846137698561319d565b6001600160a01b03169052565b6020830135602085015261378d60408401846136c8565b8260408701526137a0838701828461372c565b925050506137b160608401846136c8565b85830360608701526137c483828461372c565b925050506080830135608085015260a083013560a085015260c083013560c085015260e083013560e085015261010080840135818601525061012061380b818501856136c8565b8684038388015261381d84828461372c565b9350505050610140613831818501856136c8565b8684038388015261384384828461372c565b979650505050505050565b6040808252810184905260006060600586901b830181019083018783805b898110156138ee577fffffffffffffffffffffffffffffffffffffffffffffffffffffffffffffffa087860301845282357ffffffffffffffffffffffffffffffffffffffffffffffffffffffffffffffea18c36030181126138cc578283fd5b6138d8868d8301613757565b955050602093840193929092019160010161386c565b50505050828103602084015261384381858761372c565b60208152600061245a60208301848661372c565b60006020828403121561392b57600080fd5b815161309281613185565b67ffffffffffffffff81811683821601908082111561395757613957613454565b5092915050565b6000808585111561396e57600080fd5b8386111561397b57600080fd5b5050820193919092039150565b7fffffffffffffffffffffffffffffffffffffffff00000000000000000000000081358181169160148510156139c85780818660140360031b1b83161692505b505092915050565b80518252602081015160208301526040810151151560408301526000606082015167ffffffffffffffff8082166060860152806080850151166080860152505060a082015160c060a085015261245a60c08501826134ca565b6000610140808352613a3d818401896139d0565b915050613a57602083018780518252602090810151910152565b845160608301526020948501516080830152835160a08301529284015160c082015281516001600160a01b031660e0820152908301518051610100830152909201516101209092019190915292915050565b60e081526000613abc60e08301876139d0565b9050613ad5602083018680518252602090810151910152565b8351606083015260208401516080830152825160a0830152602083015160c0830152610a4c565b7f4e487b7100000000000000000000000000000000000000000000000000000000600052602160045260246000fd5b600060038510613b64577f4e487b7100000000000000000000000000000000000000000000000000000000600052602160045260246000fd5b84825260606020830152613b7b60608301856134ca565b9050826040830152949350505050565b600060033d1115613ba45760046000803e5060005160e01c5b90565b600060443d1015613bb55790565b6040517ffffffffffffffffffffffffffffffffffffffffffffffffffffffffffffffffc803d016004833e81513d67ffffffffffffffff8160248401118184111715613c0357505050505090565b8285019150815181811115613c1b5750505050505090565b843d8701016020828501011115613c355750505050505090565b613c4460208286010187613158565b509095945050505050565b8381526001600160a01b0383166020820152606060408201526000610a4c60608301846134ca565b60006101c0808352613c8c818401878961372c565b905084516001600160a01b03808251166020860152602082015160408601526040820151606086015260608201516080860152608082015160a08601528060a08301511660c08601525060c081015160e085015260e08101516101008501525060208501516101208401526040850151610140840152606085015161016084015260808501516101808401528281036101a084015261384381856134ca565b600060208284031215613d3d57600080fd5b5051919050565b608081526000613d576080830187613757565b6020830195909552506001600160a01b03929092166040830152606090910152919050565b606081526000613d8f6060830186613757565b60208301949094525060400152919050565b60008060408385031215613db457600080fd5b825167ffffffffffffffff80821115613dcc57600080fd5b818501915085601f830112613de057600080fd5b815181811115613df257613df26130e2565b6040519150613e0b6020601f19601f8401160183613158565b808252866020828501011115613e2057600080fd5b613e318160208401602086016134a6565b50602094909401519395939450505050565b81810360008312801583831316838312821617156139575761395761345456fea26469706673582212203aeeec51aaebd67cfa5649b4c843f4caee0f7d92ea55b1ddd1a2e26c129472e564736f6c63430008110033608060405234801561001057600080fd5b50610213806100206000396000f3fe608060405234801561001057600080fd5b506004361061002b5760003560e01c8063570e1a3614610030575b600080fd5b61004361003e3660046100f9565b61006c565b60405173ffffffffffffffffffffffffffffffffffffffff909116815260200160405180910390f35b60008061007c601482858761016b565b61008591610195565b60601c90506000610099846014818861016b565b8080601f016020809104026020016040519081016040528093929190818152602001838380828437600092018290525084519495509360209350849250905082850182875af190506000519350806100f057600093505b50505092915050565b6000806020838503121561010c57600080fd5b823567ffffffffffffffff8082111561012457600080fd5b818501915085601f83011261013857600080fd5b81358181111561014757600080fd5b86602082850101111561015957600080fd5b60209290920196919550909350505050565b6000808585111561017b57600080fd5b8386111561018857600080fd5b5050820193919092039150565b7fffffffffffffffffffffffffffffffffffffffff00000000000000000000000081358181169160148510156101d55780818660140360031b1b83161692505b50509291505056fea2646970667358221220e65fd5c63c96f2e1a93ab3e7bf9af453475fc3906dbe464ff442765d5ccf5e6a64736f6c63430008110033",
  "devdoc": {
    "errors": {
      "FailedOp(uint256,address,string)": [
        {
          "params": {
            "opIndex": "- index into the array of ops to the failed one (in simulateValidation, this is always zero)",
            "paymaster": "- if paymaster.validatePaymasterUserOp fails, this will be the paymaster's address. if validateUserOp failed,       this value will be zero (since it failed before accessing the paymaster)",
            "reason": "- revert reason   Should be caught in off-chain handleOps simulation and not happen on-chain.   Useful for mitigating DoS attempts against batchers or for troubleshooting of account/paymaster reverts."
          }
        }
      ],
      "ValidationResult((uint256,uint256,bool,uint64,uint64,bytes),(uint256,uint256),(uint256,uint256),(uint256,uint256))": [
        {
          "params": {
            "factoryInfo": "stake information about the factor (if any)",
            "paymasterInfo": "stake information about the paymaster (if any)",
            "returnInfo": "gas and time-range returned values",
            "senderInfo": "stake information about the sender"
          }
        }
      ],
      "ValidationResultWithAggregation((uint256,uint256,bool,uint64,uint64,bytes),(uint256,uint256),(uint256,uint256),(uint256,uint256),(address,(uint256,uint256)))": [
        {
          "params": {
            "aggregatorInfo": "signature aggregation info (if the account requires signature aggregator)      bundler MUST use it to verify the signature, or reject the UserOperation",
            "factoryInfo": "stake information about the factor (if any)",
            "paymasterInfo": "stake information about the paymaster (if any)",
            "returnInfo": "gas and time-range returned values",
            "senderInfo": "stake information about the sender"
          }
        }
      ]
    },
    "kind": "dev",
    "methods": {
      "addStake(uint32)": {
        "params": {
          "_unstakeDelaySec": "the new lock duration before the deposit can be withdrawn."
        }
      },
      "getSenderAddress(bytes)": {
        "params": {
          "initCode": "the constructor code to be passed into the UserOperation."
        }
      },
      "handleAggregatedOps(((address,uint256,bytes,bytes,uint256,uint256,uint256,uint256,uint256,bytes,bytes)[],address,bytes)[],address)": {
        "params": {
          "beneficiary": "the address to receive the fees",
          "opsPerAggregator": "the operations to execute, grouped by aggregator (or address(0) for no-aggregator accounts)"
        }
      },
      "handleOps((address,uint256,bytes,bytes,uint256,uint256,uint256,uint256,uint256,bytes,bytes)[],address)": {
        "params": {
          "beneficiary": "the address to receive the fees",
          "ops": "the operations to execute"
        }
      },
      "simulateValidation((address,uint256,bytes,bytes,uint256,uint256,uint256,uint256,uint256,bytes,bytes))": {
        "details": "this method always revert. Successful result is ValidationResult error. other errors are failures.The node must also verify it doesn't use banned opcodes, and that it doesn't reference storage outside the account's data.",
        "params": {
          "userOp": "the user operation to validate."
        }
      },
      "withdrawStake(address)": {
        "params": {
          "withdrawAddress": "the address to send withdrawn value."
        }
      },
      "withdrawTo(address,uint256)": {
        "params": {
          "withdrawAddress": "the address to send withdrawn value.",
          "withdrawAmount": "the amount to withdraw."
        }
      }
    },
    "version": 1
  },
  "userdoc": {
    "errors": {
      "FailedOp(uint256,address,string)": [
        {
          "notice": "a custom revert error of handleOps, to identify the offending op.  NOTE: if simulateValidation passes successfully, there should be no reason for handleOps to fail on it."
        }
      ],
      "SenderAddressResult(address)": [
        {
          "notice": "return value of getSenderAddress"
        }
      ],
      "SignatureValidationFailed(address)": [
        {
          "notice": "error case when a signature aggregator fails to verify the aggregated signature it had created."
        }
      ],
      "ValidationResult((uint256,uint256,bool,uint64,uint64,bytes),(uint256,uint256),(uint256,uint256),(uint256,uint256))": [
        {
          "notice": "Successful result from simulateValidation."
        }
      ],
      "ValidationResultWithAggregation((uint256,uint256,bool,uint64,uint64,bytes),(uint256,uint256),(uint256,uint256),(uint256,uint256),(address,(uint256,uint256)))": [
        {
          "notice": "Successful result from simulateValidation, if the account returns a signature aggregator"
        }
      ]
    },
    "events": {
      "AccountDeployed(bytes32,address,address,address)": {
        "notice": "account \"sender\" was deployed."
      },
      "SignatureAggregatorChanged(address)": {
        "notice": "signature aggregator used by the following UserOperationEvents within this bundle."
      },
      "StakeLocked(address,uint256,uint256)": {
        "notice": "Emitted once a stake is scheduled for withdrawal"
      },
      "StakeUnlocked(address,uint256)": {
        "notice": "Emitted once a stake is scheduled for withdrawal"
      },
      "UserOperationRevertReason(bytes32,address,uint256,bytes)": {
        "notice": "An event emitted if the UserOperation \"callData\" reverted with non-zero length"
      }
    },
    "kind": "user",
    "methods": {
      "SIG_VALIDATION_FAILED()": {
        "notice": "for simulation purposes, validateUserOp (and validatePaymasterUserOp) must return this value in case of signature failure, instead of revert."
      },
      "addStake(uint32)": {
        "notice": "add to the account's stake - amount and delay any pending unstake is first cancelled."
      },
      "balanceOf(address)": {
        "notice": "return the deposit (for gas payment) of the account"
      },
      "depositTo(address)": {
        "notice": "add to the deposit of the given account"
      },
      "deposits(address)": {
        "notice": "maps paymaster to their deposits and stakes"
      },
      "getSenderAddress(bytes)": {
        "notice": "Get counterfactual sender address.  Calculate the sender contract address that will be generated by the initCode and salt in the UserOperation. this method always revert, and returns the address in SenderAddressResult error"
      },
      "getUserOpHash((address,uint256,bytes,bytes,uint256,uint256,uint256,uint256,uint256,bytes,bytes))": {
        "notice": "generate a request Id - unique identifier for this request. the request ID is a hash over the content of the userOp (except the signature), the entrypoint and the chainid."
      },
      "handleAggregatedOps(((address,uint256,bytes,bytes,uint256,uint256,uint256,uint256,uint256,bytes,bytes)[],address,bytes)[],address)": {
        "notice": "Execute a batch of UserOperation with Aggregators"
      },
      "handleOps((address,uint256,bytes,bytes,uint256,uint256,uint256,uint256,uint256,bytes,bytes)[],address)": {
        "notice": "Execute a batch of UserOperation. no signature aggregator is used. if any account requires an aggregator (that is, it returned an \"actualAggregator\" when performing simulateValidation), then handleAggregatedOps() must be used instead."
      },
      "innerHandleOp(bytes,((address,uint256,uint256,uint256,uint256,address,uint256,uint256),bytes32,uint256,uint256,uint256),bytes)": {
        "notice": "inner function to handle a UserOperation. Must be declared \"external\" to open a call context, but it can only be called by handleOps."
      },
      "simulateHandleOp((address,uint256,bytes,bytes,uint256,uint256,uint256,uint256,uint256,bytes,bytes))": {
        "notice": "simulate full execution of a UserOperation (including both validation and target execution) this method will always revert with \"ExecutionResult\". it performs full validation of the UserOperation, but ignores signature error. Note that in order to collect the the success/failure of the target call, it must be executed with trace enabled to track the emitted events."
      },
      "simulateValidation((address,uint256,bytes,bytes,uint256,uint256,uint256,uint256,uint256,bytes,bytes))": {
        "notice": "Simulate a call to account.validateUserOp and paymaster.validatePaymasterUserOp."
      },
      "unlockStake()": {
        "notice": "attempt to unlock the stake. the value can be withdrawn (using withdrawStake) after the unstake delay."
      },
      "withdrawStake(address)": {
        "notice": "withdraw from the (unlocked) stake. must first call unlockStake and wait for the unstakeDelay to pass"
      },
      "withdrawTo(address,uint256)": {
        "notice": "withdraw from the deposit."
      }
    },
    "version": 1
  },
  "storageLayout": {
    "storage": [
      {
        "astId": 2273,
        "contract": "contracts/core/EntryPoint.sol:EntryPoint",
        "label": "deposits",
        "offset": 0,
        "slot": "0",
        "type": "t_mapping(t_address,t_struct(DepositInfo)3031_storage)"
      }
    ],
    "types": {
      "t_address": {
        "encoding": "inplace",
        "label": "address",
        "numberOfBytes": "20"
      },
      "t_bool": {
        "encoding": "inplace",
        "label": "bool",
        "numberOfBytes": "1"
      },
      "t_mapping(t_address,t_struct(DepositInfo)3031_storage)": {
        "encoding": "mapping",
        "key": "t_address",
        "label": "mapping(address => struct IStakeManager.DepositInfo)",
        "numberOfBytes": "32",
        "value": "t_struct(DepositInfo)3031_storage"
      },
      "t_struct(DepositInfo)3031_storage": {
        "encoding": "inplace",
        "label": "struct IStakeManager.DepositInfo",
        "members": [
          {
            "astId": 3022,
            "contract": "contracts/core/EntryPoint.sol:EntryPoint",
            "label": "deposit",
            "offset": 0,
            "slot": "0",
            "type": "t_uint112"
          },
          {
            "astId": 3024,
            "contract": "contracts/core/EntryPoint.sol:EntryPoint",
            "label": "staked",
            "offset": 14,
            "slot": "0",
            "type": "t_bool"
          },
          {
            "astId": 3026,
            "contract": "contracts/core/EntryPoint.sol:EntryPoint",
            "label": "stake",
            "offset": 15,
            "slot": "0",
            "type": "t_uint112"
          },
          {
            "astId": 3028,
            "contract": "contracts/core/EntryPoint.sol:EntryPoint",
            "label": "unstakeDelaySec",
            "offset": 0,
            "slot": "1",
            "type": "t_uint32"
          },
          {
            "astId": 3030,
            "contract": "contracts/core/EntryPoint.sol:EntryPoint",
            "label": "withdrawTime",
            "offset": 4,
            "slot": "1",
            "type": "t_uint64"
          }
        ],
        "numberOfBytes": "64"
      },
      "t_uint112": {
        "encoding": "inplace",
        "label": "uint112",
        "numberOfBytes": "14"
      },
      "t_uint32": {
        "encoding": "inplace",
        "label": "uint32",
        "numberOfBytes": "4"
      },
      "t_uint64": {
        "encoding": "inplace",
        "label": "uint64",
        "numberOfBytes": "8"
      }
    }
  }
}