{
  "address": "0x3F3b88B96d9D242bC0ddb3Fc030DBE482C92F5b3",
  "abi": [
    {
      "inputs": [
        {
          "internalType": "contract IEntryPoint",
          "name": "_entryPoint",
          "type": "address"
        },
        {
          "internalType": "contract ISecp256r1",
          "name": "_validator",
          "type": "address"
        }
      ],
      "stateMutability": "nonpayable",
      "type": "constructor"
    },
    {
      "inputs": [],
      "name": "accountImplementation",
      "outputs": [
        {
          "internalType": "contract P256Account",
          "name": "",
          "type": "address"
        }
      ],
      "stateMutability": "view",
      "type": "function"
    },
    {
      "inputs": [
        {
          "internalType": "bytes",
          "name": "publicKey",
          "type": "bytes"
        },
        {
          "internalType": "uint256",
          "name": "salt",
          "type": "uint256"
        }
      ],
      "name": "createAccount",
      "outputs": [
        {
          "internalType": "contract P256Account",
          "name": "ret",
          "type": "address"
        }
      ],
      "stateMutability": "nonpayable",
      "type": "function"
    },
    {
      "inputs": [
        {
          "internalType": "bytes",
          "name": "publicKey",
          "type": "bytes"
        },
        {
          "internalType": "uint256",
          "name": "salt",
          "type": "uint256"
        }
      ],
      "name": "getAddress",
      "outputs": [
        {
          "internalType": "address",
          "name": "",
          "type": "address"
        }
      ],
      "stateMutability": "view",
      "type": "function"
    }
  ],
  "transactionHash": "0xc30ffb13b9e0298d4afaf32179047722e7ca3dca372110b50719c3f0dc065a20",
  "args": [
    "0xfaa4846fda0f5fc7Fa962064e50CEED67a1C45dE",
    "0x91C1fe08DCEbC24aB5C661d92362460c6adc30fd"
  ],
  "numDeployments": 1,
  "solcInputHash": "27b54b14c53ca0b145acc54955d7f210",
  "bytecode": "0x60a060405234801561001057600080fd5b5060405161212b38038061212b83398101604081905261002f916100aa565b818160405161003d90610085565b6001600160a01b03928316815291166020820152604001604051809103906000f080158015610070573d6000803e3d6000fd5b506001600160a01b0316608052506100e49050565b61135180610dda83390190565b6001600160a01b03811681146100a757600080fd5b50565b600080604083850312156100bd57600080fd5b82516100c881610092565b60208401519092506100d981610092565b809150509250929050565b608051610ccf61010b6000396000818160870152818160f801526102110152610ccf6000f3fe608060405234801561001057600080fd5b50600436106100415760003560e01c80630fd8377b1461004657806311464fbe1461008257806394ca2cb5146100a9575b600080fd5b610059610054366004610366565b6100bc565b60405173ffffffffffffffffffffffffffffffffffffffff909116815260200160405180910390f35b6100597f000000000000000000000000000000000000000000000000000000000000000081565b6100596100b7366004610366565b6101e2565b6000806100ca8585856101e2565b905073ffffffffffffffffffffffffffffffffffffffff81163b80156100f2575090506101db565b8360001b7f0000000000000000000000000000000000000000000000000000000000000000878760405160240161012a9291906103de565b604080517fffffffffffffffffffffffffffffffffffffffffffffffffffffffffffffffe08184030181529181526020820180517bffffffffffffffffffffffffffffffffffffffffffffffffffffffff167f439fab9100000000000000000000000000000000000000000000000000000000179052516101aa90610359565b6101b592919061044f565b8190604051809103906000f59050801580156101d5573d6000803e3d6000fd5b50925050505b9392505050565b600061031f8260001b604051806020016101fb90610359565b6020820181038252601f19601f820116604052507f000000000000000000000000000000000000000000000000000000000000000087876040516024016102439291906103de565b604080517fffffffffffffffffffffffffffffffffffffffffffffffffffffffffffffffe0818403018152918152602080830180517bffffffffffffffffffffffffffffffffffffffffffffffffffffffff167f439fab910000000000000000000000000000000000000000000000000000000017905290516102c89392910161044f565b604080517fffffffffffffffffffffffffffffffffffffffffffffffffffffffffffffffe08184030181529082905261030492916020016104bd565b60405160208183030381529060405280519060200120610327565b949350505050565b60006101db8383306000604051836040820152846020820152828152600b8101905060ff815360559020949350505050565b6107ad806104ed83390190565b60008060006040848603121561037b57600080fd5b833567ffffffffffffffff8082111561039357600080fd5b818601915086601f8301126103a757600080fd5b8135818111156103b657600080fd5b8760208285010111156103c857600080fd5b6020928301989097509590910135949350505050565b60208152816020820152818360408301376000818301604090810191909152601f9092017fffffffffffffffffffffffffffffffffffffffffffffffffffffffffffffffe0160101919050565b60005b8381101561044657818101518382015260200161042e565b50506000910152565b73ffffffffffffffffffffffffffffffffffffffff83168152604060208201526000825180604084015261048a81606085016020870161042b565b601f017fffffffffffffffffffffffffffffffffffffffffffffffffffffffffffffffe016919091016060019392505050565b600083516104cf81846020880161042b565b8351908301906104e381836020880161042b565b0194935050505056fe60806040526040516107ad3803806107ad83398101604081905261002291610319565b61002e82826000610035565b5050610436565b61003e8361006b565b60008251118061004b5750805b156100665761006483836100ab60201b6100291760201c565b505b505050565b610074816100d7565b6040516001600160a01b038216907fbc7cd75a20ee27fd9adebab32041f755214dbc6bffa90cc0225b39da2e5c2d3b90600090a250565b60606100d08383604051806060016040528060278152602001610786602791396101a9565b9392505050565b6100ea8161022260201b6100551760201c565b6101515760405162461bcd60e51b815260206004820152602d60248201527f455243313936373a206e657720696d706c656d656e746174696f6e206973206e60448201526c1bdd08184818dbdb9d1c9858dd609a1b60648201526084015b60405180910390fd5b806101887f360894a13ba1a3210667c828492db98dca3e2076cc3735a920a3ca505d382bbc60001b61023160201b6100711760201c565b80546001600160a01b0319166001600160a01b039290921691909117905550565b6060600080856001600160a01b0316856040516101c691906103e7565b600060405180830381855af49150503d8060008114610201576040519150601f19603f3d011682016040523d82523d6000602084013e610206565b606091505b50909250905061021886838387610234565b9695505050505050565b6001600160a01b03163b151590565b90565b606083156102a357825160000361029c576001600160a01b0385163b61029c5760405162461bcd60e51b815260206004820152601d60248201527f416464726573733a2063616c6c20746f206e6f6e2d636f6e74726163740000006044820152606401610148565b50816102ad565b6102ad83836102b5565b949350505050565b8151156102c55781518083602001fd5b8060405162461bcd60e51b81526004016101489190610403565b634e487b7160e01b600052604160045260246000fd5b60005b838110156103105781810151838201526020016102f8565b50506000910152565b6000806040838503121561032c57600080fd5b82516001600160a01b038116811461034357600080fd5b60208401519092506001600160401b038082111561036057600080fd5b818501915085601f83011261037457600080fd5b815181811115610386576103866102df565b604051601f8201601f19908116603f011681019083821181831017156103ae576103ae6102df565b816040528281528860208487010111156103c757600080fd5b6103d88360208301602088016102f5565b80955050505050509250929050565b600082516103f98184602087016102f5565b9190910192915050565b60208152600082518060208401526104228160408501602087016102f5565b601f01601f19169190910160400192915050565b610341806104456000396000f3fe60806040523661001357610011610017565b005b6100115b610027610022610074565b6100b9565b565b606061004e83836040518060600160405280602781526020016102e5602791396100dd565b9392505050565b73ffffffffffffffffffffffffffffffffffffffff163b151590565b90565b60006100b47f360894a13ba1a3210667c828492db98dca3e2076cc3735a920a3ca505d382bbc5473ffffffffffffffffffffffffffffffffffffffff1690565b905090565b3660008037600080366000845af43d6000803e8080156100d8573d6000f35b3d6000fd5b60606000808573ffffffffffffffffffffffffffffffffffffffff16856040516101079190610277565b600060405180830381855af49150503d8060008114610142576040519150601f19603f3d011682016040523d82523d6000602084013e610147565b606091505b509150915061015886838387610162565b9695505050505050565b606083156101fd5782516000036101f65773ffffffffffffffffffffffffffffffffffffffff85163b6101f6576040517f08c379a000000000000000000000000000000000000000000000000000000000815260206004820152601d60248201527f416464726573733a2063616c6c20746f206e6f6e2d636f6e747261637400000060448201526064015b60405180910390fd5b5081610207565b610207838361020f565b949350505050565b81511561021f5781518083602001fd5b806040517f08c379a00000000000000000000000000000000000000000000000000000000081526004016101ed9190610293565b60005b8381101561026e578181015183820152602001610256565b50506000910152565b60008251610289818460208701610253565b9190910192915050565b60208152600082518060208401526102b2816040850160208701610253565b601f017fffffffffffffffffffffffffffffffffffffffffffffffffffffffffffffffe016919091016040019291505056fe416464726573733a206c6f772d6c6576656c2064656c65676174652063616c6c206661696c6564a264697066735822122078dedcfc8d730e746a1440159b094e08e77d9b66150f7b9fd74626b4c427f9f364736f6c63430008110033416464726573733a206c6f772d6c6576656c2064656c65676174652063616c6c206661696c6564a264697066735822122050520fb94fab5c2a45d7a1a7605328c503bd309fdaedef6ed93e397c83e766a264736f6c6343000811003360a060405234801561001057600080fd5b5060405161135138038061135183398101604081905261002f9161006f565b6001600160a01b03918216608052600480546001600160a01b031916919092161790556100a9565b6001600160a01b038116811461006c57600080fd5b50565b6000806040838503121561008257600080fd5b825161008d81610057565b602084015190925061009e81610057565b809150509250929050565b6080516112636100ee6000396000818161017f0152818161040b01528181610775015281816108540152818161092001528181610c5e0152610d7b01526112636000f3fe60806040526004361061009a5760003560e01c80634a58db1911610069578063b0d691fe1161004e578063b0d691fe14610158578063b61d27f6146101a9578063c399ec88146101c957600080fd5b80634a58db191461013b578063affed0e01461014357600080fd5b80630825d1fc146100a65780630c888b77146100d957806318dfb3c7146100fb578063439fab911461011b57600080fd5b366100a157005b600080fd5b3480156100b257600080fd5b506100c66100c1366004610e29565b6101de565b6040519081526020015b60405180910390f35b3480156100e557600080fd5b506100f96100f4366004610ed9565b610225565b005b34801561010757600080fd5b506100f9610116366004610f7a565b6104bc565b34801561012757600080fd5b506100f9610136366004610fda565b6105db565b6100f9610771565b34801561014f57600080fd5b506001546100c6565b34801561016457600080fd5b5060405173ffffffffffffffffffffffffffffffffffffffff7f00000000000000000000000000000000000000000000000000000000000000001681526020016100d0565b3480156101b557600080fd5b506100f96101c4366004610ed9565b610801565b3480156101d557600080fd5b506100c6610850565b60006101e8610908565b6101f38585856109a9565b9050610202604086018661101c565b90506000036102145761021485610b5b565b61021d82610bdb565b949350505050565b6001546040805173ffffffffffffffffffffffffffffffffffffffff87166020820152908101859052606081019190915260009060800160405160208183030381529060405280519060200120905061027c610de9565b61028883850185611081565b6020808401919091529082526004546040805192830185905273ffffffffffffffffffffffffffffffffffffffff909116916304e960d79160029101604080517fffffffffffffffffffffffffffffffffffffffffffffffffffffffffffffffe0818403018152908290526102fc916110d2565b602060405180830381855afa158015610319573d6000803e3d6000fd5b5050506040513d601f19601f8201168201806040525081019061033c9190611101565b8360026040518463ffffffff1660e01b815260040161035d9392919061113d565b602060405180830381865afa15801561037a573d6000803e3d6000fd5b505050506040513d601f19601f8201168201806040525081019061039e919061117b565b610409576040517f08c379a000000000000000000000000000000000000000000000000000000000815260206004820152601160248201527f7369676e617475726520696e76616c696400000000000000000000000000000060448201526064015b60405180910390fd5b7f00000000000000000000000000000000000000000000000000000000000000006040517f205c287800000000000000000000000000000000000000000000000000000000815273ffffffffffffffffffffffffffffffffffffffff888116600483015260248201889052919091169063205c287890604401600060405180830381600087803b15801561049c57600080fd5b505af11580156104b0573d6000803e3d6000fd5b50505050505050505050565b6104c4610c46565b82811461052d576040517f08c379a000000000000000000000000000000000000000000000000000000000815260206004820152601360248201527f77726f6e67206172726179206c656e67746873000000000000000000000000006044820152606401610400565b60005b838110156105d4576105c285858381811061054d5761054d6110a3565b9050602002016020810190610562919061119d565b6000858585818110610576576105766110a3565b9050602002810190610588919061101c565b8080601f016020809104026020016040519081016040528093929190818152602001838380828437600092019190915250610ce592505050565b806105cc816111ba565b915050610530565b5050505050565b600054610100900460ff16158080156105fb5750600054600160ff909116105b806106155750303b158015610615575060005460ff166001145b6106a1576040517f08c379a000000000000000000000000000000000000000000000000000000000815260206004820152602e60248201527f496e697469616c697a61626c653a20636f6e747261637420697320616c72656160448201527f647920696e697469616c697a65640000000000000000000000000000000000006064820152608401610400565b600080547fffffffffffffffffffffffffffffffffffffffffffffffffffffffffffffff0016600117905580156106ff57600080547fffffffffffffffffffffffffffffffffffffffffffffffffffffffffffff00ff166101001790555b6107098383610d62565b801561076c57600080547fffffffffffffffffffffffffffffffffffffffffffffffffffffffffffff00ff169055604051600181527f7f26b83ff96e1f2b6a682f133852f6798a09c465da95921460cefb38474024989060200160405180910390a15b505050565b60007f000000000000000000000000000000000000000000000000000000000000000073ffffffffffffffffffffffffffffffffffffffff163460405160006040518083038185875af1925050503d80600081146107eb576040519150601f19603f3d011682016040523d82523d6000602084013e6107f0565b606091505b50509050806107fe57600080fd5b50565b610809610c46565b61084a848484848080601f016020809104026020016040519081016040528093929190818152602001838380828437600092019190915250610ce592505050565b50505050565b60007f00000000000000000000000000000000000000000000000000000000000000006040517f70a0823100000000000000000000000000000000000000000000000000000000815230600482015273ffffffffffffffffffffffffffffffffffffffff91909116906370a0823190602401602060405180830381865afa1580156108df573d6000803e3d6000fd5b505050506040513d601f19601f820116820180604052508101906109039190611101565b905090565b3373ffffffffffffffffffffffffffffffffffffffff7f000000000000000000000000000000000000000000000000000000000000000016146109a7576040517f08c379a000000000000000000000000000000000000000000000000000000000815260206004820152601c60248201527f6163636f756e743a206e6f742066726f6d20456e747279506f696e74000000006044820152606401610400565b565b600080610a03846040517f19457468657265756d205369676e6564204d6573736167653a0a3332000000006020820152603c8101829052600090605c01604051602081830303815290604052805190602001209050919050565b9050610a0d610de9565b610a1b61014087018761101c565b810190610a289190611081565b6020808401919091529082526004546040805192830185905273ffffffffffffffffffffffffffffffffffffffff909116916304e960d79160029101604080517fffffffffffffffffffffffffffffffffffffffffffffffffffffffffffffffe081840301815290829052610a9c916110d2565b602060405180830381855afa158015610ab9573d6000803e3d6000fd5b5050506040513d601f19601f82011682018060405250810190610adc9190611101565b8360026040518463ffffffff1660e01b8152600401610afd9392919061113d565b602060405180830381865afa158015610b1a573d6000803e3d6000fd5b505050506040513d601f19601f82011682018060405250810190610b3e919061117b565b610b4d57600192505050610b54565b6000925050505b9392505050565b600180546020830135916000610b70836111ba565b91905055146107fe576040517f08c379a000000000000000000000000000000000000000000000000000000000815260206004820152601660248201527f6163636f756e743a20696e76616c6964206e6f6e6365000000000000000000006044820152606401610400565b80156107fe5760405160009033907fffffffffffffffffffffffffffffffffffffffffffffffffffffffffffffffff90849084818181858888f193505050503d80600081146105d4576040519150601f19603f3d011682016040523d82523d6000602084013e6105d4565b3373ffffffffffffffffffffffffffffffffffffffff7f000000000000000000000000000000000000000000000000000000000000000016146109a7576040517f08c379a000000000000000000000000000000000000000000000000000000000815260206004820152601760248201527f6163636f756e743a206e6f7420456e747279506f696e740000000000000000006044820152606401610400565b6000808473ffffffffffffffffffffffffffffffffffffffff168484604051610d0e91906110d2565b60006040518083038185875af1925050503d8060008114610d4b576040519150601f19603f3d011682016040523d82523d6000602084013e610d50565b606091505b5091509150816105d457805160208201fd5b610d6e81830183611081565b60035560029081556040517f000000000000000000000000000000000000000000000000000000000000000073ffffffffffffffffffffffffffffffffffffffff16917fe61144fc99bf948689624009f49abe5d45d2c2f2c262b39959325f2d9616b5ef91610ddd9190611219565b60405180910390a25050565b60405180604001604052806002906020820280368337509192915050565b73ffffffffffffffffffffffffffffffffffffffff811681146107fe57600080fd5b60008060008060808587031215610e3f57600080fd5b843567ffffffffffffffff811115610e5657600080fd5b85016101608188031215610e6957600080fd5b9350602085013592506040850135610e8081610e07565b9396929550929360600135925050565b60008083601f840112610ea257600080fd5b50813567ffffffffffffffff811115610eba57600080fd5b602083019150836020828501011115610ed257600080fd5b9250929050565b60008060008060608587031215610eef57600080fd5b8435610efa81610e07565b935060208501359250604085013567ffffffffffffffff811115610f1d57600080fd5b610f2987828801610e90565b95989497509550505050565b60008083601f840112610f4757600080fd5b50813567ffffffffffffffff811115610f5f57600080fd5b6020830191508360208260051b8501011115610ed257600080fd5b60008060008060408587031215610f9057600080fd5b843567ffffffffffffffff80821115610fa857600080fd5b610fb488838901610f35565b90965094506020870135915080821115610fcd57600080fd5b50610f2987828801610f35565b60008060208385031215610fed57600080fd5b823567ffffffffffffffff81111561100457600080fd5b61101085828601610e90565b90969095509350505050565b60008083357fffffffffffffffffffffffffffffffffffffffffffffffffffffffffffffffe184360301811261105157600080fd5b83018035915067ffffffffffffffff82111561106c57600080fd5b602001915036819003821315610ed257600080fd5b6000806040838503121561109457600080fd5b50508035926020909101359150565b7f4e487b7100000000000000000000000000000000000000000000000000000000600052603260045260246000fd5b6000825160005b818110156110f357602081860181015185830152016110d9565b506000920191825250919050565b60006020828403121561111357600080fd5b5051919050565b8060005b600281101561084a57815484526020909301926001918201910161111e565b83815260a0810160208083018560005b600281101561116a5781518352918301919083019060010161114d565b5050505061021d606083018461111a565b60006020828403121561118d57600080fd5b81518015158114610b5457600080fd5b6000602082840312156111af57600080fd5b8135610b5481610e07565b60007fffffffffffffffffffffffffffffffffffffffffffffffffffffffffffffffff8203611212577f4e487b7100000000000000000000000000000000000000000000000000000000600052601160045260246000fd5b5060010190565b60408101611227828461111a565b9291505056fea26469706673582212204dd938048343b4ce6c81048d062e3b451aa5cc10f9b5d8c6c912b4978223980e64736f6c63430008110033",
  "devdoc": {
    "kind": "dev",
    "methods": {},
    "version": 1
  },
  "userdoc": {
    "kind": "user",
    "methods": {},
    "version": 1
  },
  "storageLayout": {
    "storage": [],
    "types": null
  }
}