{
  "address": "0xed28ce54B09Ba99B131264306b44a665C1b8a465",
  "abi": [
    {
      "inputs": [
        {
          "internalType": "contract IEntryPoint",
          "name": "_entryPoint",
          "type": "address"
        },
        {
          "internalType": "contract ISecp256r1",
          "name": "_validator",
          "type": "address"
        },
        {
          "internalType": "contract EmailGuardian",
          "name": "_guardian",
          "type": "address"
        }
      ],
      "stateMutability": "nonpayable",
      "type": "constructor"
    },
    {
      "inputs": [],
      "name": "accountImplementation",
      "outputs": [
        {
          "internalType": "contract P256Account",
          "name": "",
          "type": "address"
        }
      ],
      "stateMutability": "view",
      "type": "function"
    },
    {
      "inputs": [
        {
          "internalType": "bytes",
          "name": "publicKey",
          "type": "bytes"
        },
        {
          "internalType": "uint256",
          "name": "salt",
          "type": "uint256"
        }
      ],
      "name": "createAccount",
      "outputs": [
        {
          "internalType": "contract P256Account",
          "name": "ret",
          "type": "address"
        }
      ],
      "stateMutability": "nonpayable",
      "type": "function"
    },
    {
      "inputs": [
        {
          "internalType": "bytes",
          "name": "publicKey",
          "type": "bytes"
        },
        {
          "internalType": "uint256",
          "name": "salt",
          "type": "uint256"
        }
      ],
      "name": "getAddress",
      "outputs": [
        {
          "internalType": "address",
          "name": "",
          "type": "address"
        }
      ],
      "stateMutability": "view",
      "type": "function"
    }
  ],
  "transactionHash": "0x3a80a0c0675553da322b14243a85532bcb7166ee58fedcb457feff542b3d80f5",
  "args": [
    "0xc3527348De07d591c9d567ce1998eFA2031B8675",
    "0x96e40ccE751E289c3a861C87947445acC772c292",
    "0xd8F31BC1E49d800D8B6B2AAE27219f47b94F5890"
  ],
  "numDeployments": 12,
  "solcInputHash": "a32941914327ee082b42388b19b608a1",
  "bytecode": "0x60a060405234801561001057600080fd5b506040516137df3803806137df83398101604081905261002f916100b5565b82828260405161003e90610090565b6001600160a01b03938416815291831660208301529091166040820152606001604051809103906000f08015801561007a573d6000803e3d6000fd5b506001600160a01b031660805250610102915050565b612ca680610b3983390190565b6001600160a01b03811681146100b257600080fd5b50565b6000806000606084860312156100ca57600080fd5b83516100d58161009d565b60208501519093506100e68161009d565b60408501519092506100f78161009d565b809150509250925092565b608051610a106101296000396000818160870152818160f801526102110152610a106000f3fe608060405234801561001057600080fd5b50600436106100415760003560e01c80630fd8377b1461004657806311464fbe1461008257806394ca2cb5146100a9575b600080fd5b610059610054366004610366565b6100bc565b60405173ffffffffffffffffffffffffffffffffffffffff909116815260200160405180910390f35b6100597f000000000000000000000000000000000000000000000000000000000000000081565b6100596100b7366004610366565b6101e2565b6000806100ca8585856101e2565b905073ffffffffffffffffffffffffffffffffffffffff81163b80156100f2575090506101db565b8360001b7f0000000000000000000000000000000000000000000000000000000000000000878760405160240161012a9291906103de565b604080517fffffffffffffffffffffffffffffffffffffffffffffffffffffffffffffffe08184030181529181526020820180517bffffffffffffffffffffffffffffffffffffffffffffffffffffffff167f439fab9100000000000000000000000000000000000000000000000000000000179052516101aa90610359565b6101b592919061044f565b8190604051809103906000f59050801580156101d5573d6000803e3d6000fd5b50925050505b9392505050565b600061031f8260001b604051806020016101fb90610359565b6020820181038252601f19601f820116604052507f000000000000000000000000000000000000000000000000000000000000000087876040516024016102439291906103de565b604080517fffffffffffffffffffffffffffffffffffffffffffffffffffffffffffffffe0818403018152918152602080830180517bffffffffffffffffffffffffffffffffffffffffffffffffffffffff167f439fab910000000000000000000000000000000000000000000000000000000017905290516102c89392910161044f565b604080517fffffffffffffffffffffffffffffffffffffffffffffffffffffffffffffffe08184030181529082905261030492916020016104bd565b60405160208183030381529060405280519060200120610327565b949350505050565b60006101db8383306000604051836040820152846020820152828152600b8101905060ff815360559020949350505050565b6104ee806104ed83390190565b60008060006040848603121561037b57600080fd5b833567ffffffffffffffff8082111561039357600080fd5b818601915086601f8301126103a757600080fd5b8135818111156103b657600080fd5b8760208285010111156103c857600080fd5b6020928301989097509590910135949350505050565b60208152816020820152818360408301376000818301604090810191909152601f9092017fffffffffffffffffffffffffffffffffffffffffffffffffffffffffffffffe0160101919050565b60005b8381101561044657818101518382015260200161042e565b50506000910152565b73ffffffffffffffffffffffffffffffffffffffff83168152604060208201526000825180604084015261048a81606085016020870161042b565b601f017fffffffffffffffffffffffffffffffffffffffffffffffffffffffffffffffe016919091016060019392505050565b600083516104cf81846020880161042b565b8351908301906104e381836020880161042b565b0194935050505056fe60806040526040516104ee3803806104ee833981016040819052610022916102de565b61002e82826000610035565b50506103fb565b61003e83610061565b60008251118061004b5750805b1561005c5761005a83836100a1565b505b505050565b61006a816100cd565b6040516001600160a01b038216907fbc7cd75a20ee27fd9adebab32041f755214dbc6bffa90cc0225b39da2e5c2d3b90600090a250565b60606100c683836040518060600160405280602781526020016104c760279139610180565b9392505050565b6001600160a01b0381163b61013f5760405162461bcd60e51b815260206004820152602d60248201527f455243313936373a206e657720696d706c656d656e746174696f6e206973206e60448201526c1bdd08184818dbdb9d1c9858dd609a1b60648201526084015b60405180910390fd5b7f360894a13ba1a3210667c828492db98dca3e2076cc3735a920a3ca505d382bbc80546001600160a01b0319166001600160a01b0392909216919091179055565b6060600080856001600160a01b03168560405161019d91906103ac565b600060405180830381855af49150503d80600081146101d8576040519150601f19603f3d011682016040523d82523d6000602084013e6101dd565b606091505b5090925090506101ef868383876101f9565b9695505050505050565b60608315610268578251600003610261576001600160a01b0385163b6102615760405162461bcd60e51b815260206004820152601d60248201527f416464726573733a2063616c6c20746f206e6f6e2d636f6e74726163740000006044820152606401610136565b5081610272565b610272838361027a565b949350505050565b81511561028a5781518083602001fd5b8060405162461bcd60e51b815260040161013691906103c8565b634e487b7160e01b600052604160045260246000fd5b60005b838110156102d55781810151838201526020016102bd565b50506000910152565b600080604083850312156102f157600080fd5b82516001600160a01b038116811461030857600080fd5b60208401519092506001600160401b038082111561032557600080fd5b818501915085601f83011261033957600080fd5b81518181111561034b5761034b6102a4565b604051601f8201601f19908116603f01168101908382118183101715610373576103736102a4565b8160405282815288602084870101111561038c57600080fd5b61039d8360208301602088016102ba565b80955050505050509250929050565b600082516103be8184602087016102ba565b9190910192915050565b60208152600082518060208401526103e78160408501602087016102ba565b601f01601f19169190910160400192915050565b60be806104096000396000f3fe608060405236601057600e6013565b005b600e5b601f601b6021565b6065565b565b600060607f360894a13ba1a3210667c828492db98dca3e2076cc3735a920a3ca505d382bbc5473ffffffffffffffffffffffffffffffffffffffff1690565b905090565b3660008037600080366000845af43d6000803e8080156083573d6000f35b3d6000fdfea26469706673582212203d21b1710ce40413996acafa3b63ffd242f4028f78bb256eaffd5d499773ea1e64736f6c63430008130033416464726573733a206c6f772d6c6576656c2064656c65676174652063616c6c206661696c6564a2646970667358221220cc6606ed3cfa918eb22e7bd5d95e77ec0662fee0856b4800ca087cbfb763206e64736f6c63430008130033610100604052306080523480156200001657600080fd5b5060405162002ca638038062002ca6833981016040819052620000399162000070565b6001600160a01b0392831660a05290821660c0521660e052620000c4565b6001600160a01b03811681146200006d57600080fd5b50565b6000806000606084860312156200008657600080fd5b8351620000938162000057565b6020850151909350620000a68162000057565b6040850151909250620000b98162000057565b809150509250925092565b60805160a05160c05160e051612b3f620001676000396000818161061e01528181610fce015281816113270152611a3b0152600081816117fb0152611a1a0152600081816103c701528181610bdf01528181610cee01528181611462015281816115200152818161176e015281816119c20152611a900152600081816106f0015281816107a001528181610db201528181610e6201526111210152612b3f6000f3fe60806040526004361061016d5760003560e01c80634f1ef286116100cb578063b0d691fe1161007f578063c399ec8811610059578063c399ec8814610459578063d087d2881461046e578063f23a6e611461048357600080fd5b8063b0d691fe146103a0578063b61d27f6146103f1578063bc197c811461041157600080fd5b806352d1902d116100b057806352d1902d1461034957806363ffab311461035e5780637c5b84e71461038057600080fd5b80634f1ef2861461031657806350a8395d1461032957600080fd5b80633a871cdd1161012257806347e1da2a1161010757806347e1da2a146102ce5780634a58db19146102ee5780634d44560d146102f657600080fd5b80633a871cdd14610280578063439fab91146102ae57600080fd5b8063150b7a0211610153578063150b7a02146101d55780631e5f36b31461024b5780633659cfe61461026057600080fd5b806223de291461017957806301ffc9a7146101a057600080fd5b3661017457005b600080fd5b34801561018557600080fd5b5061019e610194366004611f0c565b5050505050505050565b005b3480156101ac57600080fd5b506101c06101bb366004611fbd565b6104c9565b60405190151581526020015b60405180910390f35b3480156101e157600080fd5b5061021a6101f0366004611fff565b7f150b7a020000000000000000000000000000000000000000000000000000000095945050505050565b6040517fffffffff0000000000000000000000000000000000000000000000000000000090911681526020016101cc565b34801561025757600080fd5b5061019e6105ae565b34801561026c57600080fd5b5061019e61027b366004612072565b6106d9565b34801561028c57600080fd5b506102a061029b36600461208f565b6108de565b6040519081526020016101cc565b3480156102ba57600080fd5b5061019e6102c93660046120e3565b610904565b3480156102da57600080fd5b5061019e6102e936600461216a565b610a9a565b61019e610bdd565b34801561030257600080fd5b5061019e610311366004612204565b610c83565b61019e61032436600461230a565b610d9b565b34801561033557600080fd5b5061019e61034436600461235a565b610f91565b34801561035557600080fd5b506102a0611107565b34801561036a57600080fd5b506103736111f3565b6040516101cc919061246c565b34801561038c57600080fd5b5061019e61039b36600461247f565b611281565b3480156103ac57600080fd5b5060405173ffffffffffffffffffffffffffffffffffffffff7f00000000000000000000000000000000000000000000000000000000000000001681526020016101cc565b3480156103fd57600080fd5b5061019e61040c3660046124b0565b6113cd565b34801561041d57600080fd5b5061021a61042c36600461250c565b7fbc197c810000000000000000000000000000000000000000000000000000000098975050505050505050565b34801561046557600080fd5b506102a061141c565b34801561047a57600080fd5b506102a06114d3565b34801561048f57600080fd5b5061021a61049e3660046125aa565b7ff23a6e61000000000000000000000000000000000000000000000000000000009695505050505050565b60007fffffffff0000000000000000000000000000000000000000000000000000000082167f150b7a0200000000000000000000000000000000000000000000000000000000148061055c57507fffffffff0000000000000000000000000000000000000000000000000000000082167f4e2312e000000000000000000000000000000000000000000000000000000000145b806105a857507fffffffff0000000000000000000000000000000000000000000000000000000082167f01ffc9a700000000000000000000000000000000000000000000000000000000145b92915050565b30331461061c576040517f08c379a000000000000000000000000000000000000000000000000000000000815260206004820152600a60248201527f6f6e6c79206f776e65720000000000000000000000000000000000000000000060448201526064015b60405180910390fd5b7f000000000000000000000000000000000000000000000000000000000000000073ffffffffffffffffffffffffffffffffffffffff1663b6b257426040518163ffffffff1660e01b81526004016020604051808303816000875af1158015610689573d6000803e3d6000fd5b505050506040513d601f19601f820116820180604052508101906106ad9190612614565b506040517f131e7b86b68982bc41e68953e2069d8ce9de299e35ec2bc90b27949aabced73d90600090a1565b73ffffffffffffffffffffffffffffffffffffffff7f000000000000000000000000000000000000000000000000000000000000000016300361079e576040517f08c379a000000000000000000000000000000000000000000000000000000000815260206004820152602c60248201527f46756e6374696f6e206d7573742062652063616c6c6564207468726f7567682060448201527f64656c656761746563616c6c00000000000000000000000000000000000000006064820152608401610613565b7f000000000000000000000000000000000000000000000000000000000000000073ffffffffffffffffffffffffffffffffffffffff166108137f360894a13ba1a3210667c828492db98dca3e2076cc3735a920a3ca505d382bbc5473ffffffffffffffffffffffffffffffffffffffff1690565b73ffffffffffffffffffffffffffffffffffffffff16146108b6576040517f08c379a000000000000000000000000000000000000000000000000000000000815260206004820152602c60248201527f46756e6374696f6e206d7573742062652063616c6c6564207468726f7567682060448201527f6163746976652070726f787900000000000000000000000000000000000000006064820152608401610613565b6108bf8161154f565b604080516000808252602082019092526108db91839190611557565b50565b60006108e8611756565b6108f284846117f7565b90506108fd82611947565b9392505050565b600054610100900460ff16158080156109245750600054600160ff909116105b8061093e5750303b15801561093e575060005460ff166001145b6109ca576040517f08c379a000000000000000000000000000000000000000000000000000000000815260206004820152602e60248201527f496e697469616c697a61626c653a20636f6e747261637420697320616c72656160448201527f647920696e697469616c697a65640000000000000000000000000000000000006064820152608401610613565b600080547fffffffffffffffffffffffffffffffffffffffffffffffffffffffffffffff001660011790558015610a2857600080547fffffffffffffffffffffffffffffffffffffffffffffffffffffffffffff00ff166101001790555b610a3283836119b2565b8015610a9557600080547fffffffffffffffffffffffffffffffffffffffffffffffffffffffffffff00ff169055604051600181527f7f26b83ff96e1f2b6a682f133852f6798a09c465da95921460cefb38474024989060200160405180910390a15b505050565b610aa2611a78565b8483148015610ab057508481145b610b16576040517f08c379a000000000000000000000000000000000000000000000000000000000815260206004820152601360248201527f77726f6e67206172726179206c656e67746873000000000000000000000000006044820152606401610613565b60005b85811015610bd457610bc2878783818110610b3657610b3661262d565b9050602002016020810190610b4b9190612072565b868684818110610b5d57610b5d61262d565b90506020020135858585818110610b7657610b7661262d565b9050602002810190610b88919061265c565b8080601f016020809104026020016040519081016040528093929190818152602001838380828437600092019190915250611b1792505050565b80610bcc816126c1565b915050610b19565b50505050505050565b7f00000000000000000000000000000000000000000000000000000000000000006040517fb760faf900000000000000000000000000000000000000000000000000000000815230600482015273ffffffffffffffffffffffffffffffffffffffff919091169063b760faf99034906024016000604051808303818588803b158015610c6857600080fd5b505af1158015610c7c573d6000803e3d6000fd5b5050505050565b303314610cec576040517f08c379a000000000000000000000000000000000000000000000000000000000815260206004820152600a60248201527f6f6e6c79206f776e6572000000000000000000000000000000000000000000006044820152606401610613565b7f00000000000000000000000000000000000000000000000000000000000000006040517f205c287800000000000000000000000000000000000000000000000000000000815273ffffffffffffffffffffffffffffffffffffffff848116600483015260248201849052919091169063205c287890604401600060405180830381600087803b158015610d7f57600080fd5b505af1158015610d93573d6000803e3d6000fd5b505050505050565b73ffffffffffffffffffffffffffffffffffffffff7f0000000000000000000000000000000000000000000000000000000000000000163003610e60576040517f08c379a000000000000000000000000000000000000000000000000000000000815260206004820152602c60248201527f46756e6374696f6e206d7573742062652063616c6c6564207468726f7567682060448201527f64656c656761746563616c6c00000000000000000000000000000000000000006064820152608401610613565b7f000000000000000000000000000000000000000000000000000000000000000073ffffffffffffffffffffffffffffffffffffffff16610ed57f360894a13ba1a3210667c828492db98dca3e2076cc3735a920a3ca505d382bbc5473ffffffffffffffffffffffffffffffffffffffff1690565b73ffffffffffffffffffffffffffffffffffffffff1614610f78576040517f08c379a000000000000000000000000000000000000000000000000000000000815260206004820152602c60248201527f46756e6374696f6e206d7573742062652063616c6c6564207468726f7567682060448201527f6163746976652070726f787900000000000000000000000000000000000000006064820152608401610613565b610f818261154f565b610f8d82826001611557565b5050565b6040517fc658da5100000000000000000000000000000000000000000000000000000000815273ffffffffffffffffffffffffffffffffffffffff7f0000000000000000000000000000000000000000000000000000000000000000169063c658da519061100f908a908a908a908a908a908a908a90600401612769565b6020604051808303816000875af115801561102e573d6000803e3d6000fd5b505050506040513d601f19601f8201168201806040525081019061105291906127b9565b6110b8576040517f08c379a000000000000000000000000000000000000000000000000000000000815260206004820152601760248201527f677561726469616e20766572696679206661696c7572650000000000000000006044820152606401610613565b60336110c5828483612874565b507f7dc0147d22488d2f12c2c4b776f1bc504e5819e683d3f35d83bfc84eed73dc1060336040516110f69190612a29565b60405180910390a150505050505050565b60003073ffffffffffffffffffffffffffffffffffffffff7f000000000000000000000000000000000000000000000000000000000000000016146111ce576040517f08c379a000000000000000000000000000000000000000000000000000000000815260206004820152603860248201527f555550535570677261646561626c653a206d757374206e6f742062652063616c60448201527f6c6564207468726f7567682064656c656761746563616c6c00000000000000006064820152608401610613565b507f360894a13ba1a3210667c828492db98dca3e2076cc3735a920a3ca505d382bbc90565b60338054611200906127db565b80601f016020809104026020016040519081016040528092919081815260200182805461122c906127db565b80156112795780601f1061124e57610100808354040283529160200191611279565b820191906000526020600020905b81548152906001019060200180831161125c57829003601f168201915b505050505081565b3033146112ea576040517f08c379a000000000000000000000000000000000000000000000000000000000815260206004820152600a60248201527f6f6e6c79206f776e6572000000000000000000000000000000000000000000006044820152606401610613565b6040517f333b6fb300000000000000000000000000000000000000000000000000000000815273ffffffffffffffffffffffffffffffffffffffff7f0000000000000000000000000000000000000000000000000000000000000000169063333b6fb39061135e9085908590600401612a3c565b600060405180830381600087803b15801561137857600080fd5b505af115801561138c573d6000803e3d6000fd5b505050507fd8adaafedab553012b2226f396e06cbdc69b9391df6050ac3ccac863bd4e9467826040516113c191815260200190565b60405180910390a15050565b6113d5611a78565b611416848484848080601f016020809104026020016040519081016040528093929190818152602001838380828437600092019190915250611b1792505050565b50505050565b6040517f70a0823100000000000000000000000000000000000000000000000000000000815230600482015260009073ffffffffffffffffffffffffffffffffffffffff7f000000000000000000000000000000000000000000000000000000000000000016906370a08231906024015b602060405180830381865afa1580156114aa573d6000803e3d6000fd5b505050506040513d601f19601f820116820180604052508101906114ce9190612614565b905090565b6040517f35567e1a0000000000000000000000000000000000000000000000000000000081523060048201526000602482018190529073ffffffffffffffffffffffffffffffffffffffff7f000000000000000000000000000000000000000000000000000000000000000016906335567e1a9060440161148d565b6108db611a78565b7f4910fdfa16fed3260ed0e7147f7cc6da11a60208b5b9406d12a635614ffd91435460ff161561158a57610a9583611b94565b8273ffffffffffffffffffffffffffffffffffffffff166352d1902d6040518163ffffffff1660e01b8152600401602060405180830381865afa92505050801561160f575060408051601f3d9081017fffffffffffffffffffffffffffffffffffffffffffffffffffffffffffffffe016820190925261160c91810190612614565b60015b61169b576040517f08c379a000000000000000000000000000000000000000000000000000000000815260206004820152602e60248201527f45524331393637557067726164653a206e657720696d706c656d656e7461746960448201527f6f6e206973206e6f7420555550530000000000000000000000000000000000006064820152608401610613565b7f360894a13ba1a3210667c828492db98dca3e2076cc3735a920a3ca505d382bbc811461174a576040517f08c379a000000000000000000000000000000000000000000000000000000000815260206004820152602960248201527f45524331393637557067726164653a20756e737570706f727465642070726f7860448201527f6961626c655555494400000000000000000000000000000000000000000000006064820152608401610613565b50610a95838383611c9e565b3373ffffffffffffffffffffffffffffffffffffffff7f000000000000000000000000000000000000000000000000000000000000000016146117f5576040517f08c379a000000000000000000000000000000000000000000000000000000000815260206004820152601c60248201527f6163636f756e743a206e6f742066726f6d20456e747279506f696e74000000006044820152606401610613565b565b60007f000000000000000000000000000000000000000000000000000000000000000073ffffffffffffffffffffffffffffffffffffffff1663ae7e17f060028460405160200161184a91815260200190565b604080517fffffffffffffffffffffffffffffffffffffffffffffffffffffffffffffffe08184030181529082905261188291612a55565b602060405180830381855afa15801561189f573d6000803e3d6000fd5b5050506040513d601f19601f820116820180604052508101906118c29190612614565b6118d061014087018761265c565b60336040518563ffffffff1660e01b81526004016118f19493929190612a71565b602060405180830381865afa15801561190e573d6000803e3d6000fd5b505050506040513d601f19601f8201168201806040525081019061193291906127b9565b61193e575060016105a8565b50600092915050565b80156108db5760405160009033907fffffffffffffffffffffffffffffffffffffffffffffffffffffffffffffffff90849084818181858888f193505050503d8060008114610c7c576040519150601f19603f3d011682016040523d82523d6000602084013e610c7c565b60336119bf828483612874565b507f000000000000000000000000000000000000000000000000000000000000000073ffffffffffffffffffffffffffffffffffffffff167f3d6f32c3e0c0a7f846ba1a822f1e8f4c5f1ec789e59f454c54deff94ccd310377f00000000000000000000000000000000000000000000000000000000000000007f00000000000000000000000000000000000000000000000000000000000000008585604051611a6c9493929190612aa8565b60405180910390a25050565b3373ffffffffffffffffffffffffffffffffffffffff7f000000000000000000000000000000000000000000000000000000000000000016146117f5576040517f08c379a000000000000000000000000000000000000000000000000000000000815260206004820152601760248201527f6163636f756e743a206e6f7420456e747279506f696e740000000000000000006044820152606401610613565b6000808473ffffffffffffffffffffffffffffffffffffffff168484604051611b409190612a55565b60006040518083038185875af1925050503d8060008114611b7d576040519150601f19603f3d011682016040523d82523d6000602084013e611b82565b606091505b509150915081610c7c57805160208201fd5b73ffffffffffffffffffffffffffffffffffffffff81163b611c38576040517f08c379a000000000000000000000000000000000000000000000000000000000815260206004820152602d60248201527f455243313936373a206e657720696d706c656d656e746174696f6e206973206e60448201527f6f74206120636f6e7472616374000000000000000000000000000000000000006064820152608401610613565b7f360894a13ba1a3210667c828492db98dca3e2076cc3735a920a3ca505d382bbc80547fffffffffffffffffffffffff00000000000000000000000000000000000000001673ffffffffffffffffffffffffffffffffffffffff92909216919091179055565b611ca783611cc3565b600082511180611cb45750805b15610a95576114168383611d10565b611ccc81611b94565b60405173ffffffffffffffffffffffffffffffffffffffff8216907fbc7cd75a20ee27fd9adebab32041f755214dbc6bffa90cc0225b39da2e5c2d3b90600090a250565b60606108fd8383604051806060016040528060278152602001612ae36027913960606000808573ffffffffffffffffffffffffffffffffffffffff1685604051611d5a9190612a55565b600060405180830381855af49150503d8060008114611d95576040519150601f19603f3d011682016040523d82523d6000602084013e611d9a565b606091505b5091509150611dab86838387611db5565b9695505050505050565b60608315611e4b578251600003611e445773ffffffffffffffffffffffffffffffffffffffff85163b611e44576040517f08c379a000000000000000000000000000000000000000000000000000000000815260206004820152601d60248201527f416464726573733a2063616c6c20746f206e6f6e2d636f6e74726163740000006044820152606401610613565b5081611e55565b611e558383611e5d565b949350505050565b815115611e6d5781518083602001fd5b806040517f08c379a0000000000000000000000000000000000000000000000000000000008152600401610613919061246c565b73ffffffffffffffffffffffffffffffffffffffff811681146108db57600080fd5b60008083601f840112611ed557600080fd5b50813567ffffffffffffffff811115611eed57600080fd5b602083019150836020828501011115611f0557600080fd5b9250929050565b60008060008060008060008060c0898b031215611f2857600080fd5b8835611f3381611ea1565b97506020890135611f4381611ea1565b96506040890135611f5381611ea1565b955060608901359450608089013567ffffffffffffffff80821115611f7757600080fd5b611f838c838d01611ec3565b909650945060a08b0135915080821115611f9c57600080fd5b50611fa98b828c01611ec3565b999c989b5096995094979396929594505050565b600060208284031215611fcf57600080fd5b81357fffffffff00000000000000000000000000000000000000000000000000000000811681146108fd57600080fd5b60008060008060006080868803121561201757600080fd5b853561202281611ea1565b9450602086013561203281611ea1565b935060408601359250606086013567ffffffffffffffff81111561205557600080fd5b61206188828901611ec3565b969995985093965092949392505050565b60006020828403121561208457600080fd5b81356108fd81611ea1565b6000806000606084860312156120a457600080fd5b833567ffffffffffffffff8111156120bb57600080fd5b840161016081870312156120ce57600080fd5b95602085013595506040909401359392505050565b600080602083850312156120f657600080fd5b823567ffffffffffffffff81111561210d57600080fd5b61211985828601611ec3565b90969095509350505050565b60008083601f84011261213757600080fd5b50813567ffffffffffffffff81111561214f57600080fd5b6020830191508360208260051b8501011115611f0557600080fd5b6000806000806000806060878903121561218357600080fd5b863567ffffffffffffffff8082111561219b57600080fd5b6121a78a838b01612125565b909850965060208901359150808211156121c057600080fd5b6121cc8a838b01612125565b909650945060408901359150808211156121e557600080fd5b506121f289828a01612125565b979a9699509497509295939492505050565b6000806040838503121561221757600080fd5b823561222281611ea1565b946020939093013593505050565b7f4e487b7100000000000000000000000000000000000000000000000000000000600052604160045260246000fd5b600082601f83011261227057600080fd5b813567ffffffffffffffff8082111561228b5761228b612230565b604051601f83017fffffffffffffffffffffffffffffffffffffffffffffffffffffffffffffffe0908116603f011681019082821181831017156122d1576122d1612230565b816040528381528660208588010111156122ea57600080fd5b836020870160208301376000602085830101528094505050505092915050565b6000806040838503121561231d57600080fd5b823561232881611ea1565b9150602083013567ffffffffffffffff81111561234457600080fd5b6123508582860161225f565b9150509250929050565b60008060008060008060006080888a03121561237557600080fd5b87359650602088013567ffffffffffffffff8082111561239457600080fd5b6123a08b838c01611ec3565b909850965060408a01359150808211156123b957600080fd5b6123c58b838c01611ec3565b909650945060608a01359150808211156123de57600080fd5b506123eb8a828b01611ec3565b989b979a50959850939692959293505050565b60005b83811015612419578181015183820152602001612401565b50506000910152565b6000815180845261243a8160208601602086016123fe565b601f017fffffffffffffffffffffffffffffffffffffffffffffffffffffffffffffffe0169290920160200192915050565b6020815260006108fd6020830184612422565b6000806040838503121561249257600080fd5b82359150602083013567ffffffffffffffff81111561234457600080fd5b600080600080606085870312156124c657600080fd5b84356124d181611ea1565b935060208501359250604085013567ffffffffffffffff8111156124f457600080fd5b61250087828801611ec3565b95989497509550505050565b60008060008060008060008060a0898b03121561252857600080fd5b883561253381611ea1565b9750602089013561254381611ea1565b9650604089013567ffffffffffffffff8082111561256057600080fd5b61256c8c838d01612125565b909850965060608b013591508082111561258557600080fd5b6125918c838d01612125565b909650945060808b0135915080821115611f9c57600080fd5b60008060008060008060a087890312156125c357600080fd5b86356125ce81611ea1565b955060208701356125de81611ea1565b94506040870135935060608701359250608087013567ffffffffffffffff81111561260857600080fd5b6121f289828a01611ec3565b60006020828403121561262657600080fd5b5051919050565b7f4e487b7100000000000000000000000000000000000000000000000000000000600052603260045260246000fd5b60008083357fffffffffffffffffffffffffffffffffffffffffffffffffffffffffffffffe184360301811261269157600080fd5b83018035915067ffffffffffffffff8211156126ac57600080fd5b602001915036819003821315611f0557600080fd5b60007fffffffffffffffffffffffffffffffffffffffffffffffffffffffffffffffff8203612719577f4e487b7100000000000000000000000000000000000000000000000000000000600052601160045260246000fd5b5060010190565b8183528181602085013750600060208284010152600060207fffffffffffffffffffffffffffffffffffffffffffffffffffffffffffffffe0601f840116840101905092915050565b87815260806020820152600061278360808301888a612720565b8281036040840152612796818789612720565b905082810360608401526127ab818587612720565b9a9950505050505050505050565b6000602082840312156127cb57600080fd5b815180151581146108fd57600080fd5b600181811c908216806127ef57607f821691505b602082108103612828577f4e487b7100000000000000000000000000000000000000000000000000000000600052602260045260246000fd5b50919050565b601f821115610a9557600081815260208120601f850160051c810160208610156128555750805b601f850160051c820191505b81811015610d9357828155600101612861565b67ffffffffffffffff83111561288c5761288c612230565b6128a08361289a83546127db565b8361282e565b6000601f8411600181146128f257600085156128bc5750838201355b7fffffffffffffffffffffffffffffffffffffffffffffffffffffffffffffffff600387901b1c1916600186901b178355610c7c565b6000838152602090207fffffffffffffffffffffffffffffffffffffffffffffffffffffffffffffffe0861690835b828110156129415786850135825560209485019460019092019101612921565b508682101561297c577fffffffffffffffffffffffffffffffffffffffffffffffffffffffffffffffff60f88860031b161c19848701351681555b505060018560011b0183555050505050565b6000815461299b816127db565b8085526020600183811680156129b857600181146129f057612a1e565b7fffffffffffffffffffffffffffffffffffffffffffffffffffffffffffffff008516838901528284151560051b8901019550612a1e565b866000528260002060005b85811015612a165781548a82018601529083019084016129fb565b890184019650505b505050505092915050565b6020815260006108fd602083018461298e565b828152604060208201526000611e556040830184612422565b60008251612a678184602087016123fe565b9190910192915050565b848152606060208201526000612a8b606083018587612720565b8281036040840152612a9d818561298e565b979650505050505050565b600073ffffffffffffffffffffffffffffffffffffffff808716835280861660208401525060606040830152611dab60608301848661272056fe416464726573733a206c6f772d6c6576656c2064656c65676174652063616c6c206661696c6564a2646970667358221220479544bc98d423fbf5a8f07b13e23585fb4791c739f4ad0b84f769112e045a7964736f6c63430008130033",
  "devdoc": {
    "kind": "dev",
    "methods": {},
    "version": 1
  },
  "userdoc": {
    "kind": "user",
    "methods": {},
    "version": 1
  },
  "storageLayout": {
    "storage": [],
    "types": null
  }
}