{
  "address": "0x27261324942fdDbb6b852CDCc4Fb0546351Abe30",
  "abi": [
    {
      "inputs": [
        {
          "internalType": "bytes32",
          "name": "message",
          "type": "bytes32"
        },
        {
          "internalType": "bytes",
          "name": "signature",
          "type": "bytes"
        },
        {
          "internalType": "bytes",
          "name": "publicKey",
          "type": "bytes"
        }
      ],
      "name": "validateSignature",
      "outputs": [
        {
          "internalType": "bool",
          "name": "result",
          "type": "bool"
        }
      ],
      "stateMutability": "view",
      "type": "function"
    }
  ],
  "transactionHash": "0x81df5b04aa9cfdeb84a9a22f0643d9d7c6a211e675eb8fffac3a2f01b72a95a2",
  "args": [],
  "numDeployments": 24,
  "solcInputHash": "1b099ec6a72bf7bc08072d3f8f855e14",
  "bytecode": "0x608060405234801561001057600080fd5b50610208806100206000396000f3fe608060405234801561001057600080fd5b506004361061002b5760003560e01c8063ae7e17f014610030575b600080fd5b61004361003e366004610136565b610057565b604051901515815260200160405180910390f35b600080808080610069888a018a6101b0565b909450925061007a868801886101b0565b809250819350505060006040518b81528560208201528460408201527f0400000000000000000000000000000000000000000000000000000000000000606082015283606182015282608182015260018260a1836180015afa905080801561002b575050519a9950505050505050505050565b60008083601f8401126100ff57600080fd5b50813567ffffffffffffffff81111561011757600080fd5b60208301915083602082850101111561012f57600080fd5b9250929050565b60008060008060006060868803121561014e57600080fd5b85359450602086013567ffffffffffffffff8082111561016d57600080fd5b61017989838a016100ed565b9096509450604088013591508082111561019257600080fd5b5061019f888289016100ed565b969995985093965092949392505050565b600080604083850312156101c357600080fd5b5050803592602090910135915056fea2646970667358221220655f7741d9179bbab49251dc19f85879a8b5deaee0398cf3f3b4d171740741dd64736f6c63430008110033",
  "devdoc": {
    "kind": "dev",
    "methods": {},
    "version": 1
  },
  "userdoc": {
    "kind": "user",
    "methods": {},
    "version": 1
  },
  "storageLayout": {
    "storage": [],
    "types": null
  }
}