{
  "address": "0x96e40ccE751E289c3a861C87947445acC772c292",
  "abi": [
    {
      "inputs": [
        {
          "internalType": "bytes32",
          "name": "message",
          "type": "bytes32"
        },
        {
          "internalType": "bytes",
          "name": "signature",
          "type": "bytes"
        },
        {
          "internalType": "bytes",
          "name": "publicKey",
          "type": "bytes"
        }
      ],
      "name": "validateSignature",
      "outputs": [
        {
          "internalType": "bool",
          "name": "result",
          "type": "bool"
        }
      ],
      "stateMutability": "view",
      "type": "function"
    }
  ],
  "transactionHash": "0xc291f74e65b1ec4c3a713330ea153c30e272da04341fd7d79d4b974f281331fb",
  "args": [],
  "numDeployments": 2,
  "solcInputHash": "6e19247bfd0559b07df032ea0aa85060",
  "bytecode": "0x608060405234801561001057600080fd5b50610208806100206000396000f3fe608060405234801561001057600080fd5b506004361061002b5760003560e01c8063ae7e17f014610030575b600080fd5b61004361003e366004610136565b610057565b604051901515815260200160405180910390f35b600080808080610069888a018a6101b0565b909450925061007a868801886101b0565b809250819350505060006040518b81528560208201528460408201527f0400000000000000000000000000000000000000000000000000000000000000606082015283606182015282608182015260018260a1836180015afa905080801561002b575050519a9950505050505050505050565b60008083601f8401126100ff57600080fd5b50813567ffffffffffffffff81111561011757600080fd5b60208301915083602082850101111561012f57600080fd5b9250929050565b60008060008060006060868803121561014e57600080fd5b85359450602086013567ffffffffffffffff8082111561016d57600080fd5b61017989838a016100ed565b9096509450604088013591508082111561019257600080fd5b5061019f888289016100ed565b969995985093965092949392505050565b600080604083850312156101c357600080fd5b5050803592602090910135915056fea26469706673582212205d59f78d8a164fbdccd022098ad8bcc04ad529cf18176951788f7fc867b7702d64736f6c63430008130033",
  "devdoc": {
    "kind": "dev",
    "methods": {},
    "version": 1
  },
  "userdoc": {
    "kind": "user",
    "methods": {},
    "version": 1
  },
  "storageLayout": {
    "storage": [],
    "types": null
  }
}