{
  "address": "0x2e2D3397C11181CCB4f45e4005B882dA98e64bA3",
  "abi": [
    {
      "inputs": [
        {
          "internalType": "bytes32",
          "name": "email",
          "type": "bytes32"
        }
      ],
      "name": "account",
      "outputs": [
        {
          "internalType": "address",
          "name": "",
          "type": "address"
        }
      ],
      "stateMutability": "view",
      "type": "function"
    },
    {
      "inputs": [
        {
          "internalType": "bytes32",
          "name": "email",
          "type": "bytes32"
        }
      ],
      "name": "register",
      "outputs": [],
      "stateMutability": "nonpayable",
      "type": "function"
    }
  ],
  "transactionHash": "0x111fbf916adae262f32537a003eeab5fa95a1a7606184d78a8088fa4b735b260",
  "args": [],
  "numDeployments": 2,
  "solcInputHash": "1680f907e4909369862b23e4641e3d20",
  "bytecode": "0x608060405234801561001057600080fd5b50610220806100206000396000f3fe608060405234801561001057600080fd5b50600436106100365760003560e01c8063882358ae1461003b578063e1fa8e841461009a575b600080fd5b6100716100493660046101d1565b60009081526020819052604090205473ffffffffffffffffffffffffffffffffffffffff1690565b60405173ffffffffffffffffffffffffffffffffffffffff909116815260200160405180910390f35b6100ad6100a83660046101d1565b6100af565b005b60008181526020819052604090205473ffffffffffffffffffffffffffffffffffffffff161561013f576040517f08c379a000000000000000000000000000000000000000000000000000000000815260206004820152600c60248201527f616c72656164792062696e640000000000000000000000000000000000000000604482015260640160405180910390fd5b33600090815260016020526040902054801561018a57600081815260208190526040902080547fffffffffffffffffffffffff00000000000000000000000000000000000000001690555b5060008181526020818152604080832080547fffffffffffffffffffffffff0000000000000000000000000000000000000000163390811790915583526001909152902055565b6000602082840312156101e357600080fd5b503591905056fea264697066735822122093f8d8692b811e289e6a0001c6388f709a215e222668e9f4f900e4f575df2ae964736f6c634300080f0033",
  "devdoc": {
    "kind": "dev",
    "methods": {},
    "version": 1
  },
  "userdoc": {
    "kind": "user",
    "methods": {},
    "version": 1
  },
  "storageLayout": {
    "storage": [
      {
        "astId": 8,
        "contract": "contracts/accounts/secp256r1/SimpleEmailGuardian.sol:SimpleEmailGuardian",
        "label": "users",
        "offset": 0,
        "slot": "0",
        "type": "t_mapping(t_bytes32,t_address)"
      },
      {
        "astId": 12,
        "contract": "contracts/accounts/secp256r1/SimpleEmailGuardian.sol:SimpleEmailGuardian",
        "label": "emails",
        "offset": 0,
        "slot": "1",
        "type": "t_mapping(t_address,t_bytes32)"
      }
    ],
    "types": {
      "t_address": {
        "encoding": "inplace",
        "label": "address",
        "numberOfBytes": "20"
      },
      "t_bytes32": {
        "encoding": "inplace",
        "label": "bytes32",
        "numberOfBytes": "32"
      },
      "t_mapping(t_address,t_bytes32)": {
        "encoding": "mapping",
        "key": "t_address",
        "label": "mapping(address => bytes32)",
        "numberOfBytes": "32",
        "value": "t_bytes32"
      },
      "t_mapping(t_bytes32,t_address)": {
        "encoding": "mapping",
        "key": "t_bytes32",
        "label": "mapping(bytes32 => address)",
        "numberOfBytes": "32",
        "value": "t_address"
      }
    }
  }
}