{
  "address": "0x569De602C294988A88ee2697F929d9891d368187",
  "abi": [
    {
      "inputs": [
        {
          "internalType": "bytes32",
          "name": "email",
          "type": "bytes32"
        }
      ],
      "name": "account",
      "outputs": [
        {
          "internalType": "address",
          "name": "",
          "type": "address"
        }
      ],
      "stateMutability": "view",
      "type": "function"
    },
    {
      "inputs": [
        {
          "internalType": "address",
          "name": "",
          "type": "address"
        }
      ],
      "name": "emails",
      "outputs": [
        {
          "internalType": "bytes32",
          "name": "",
          "type": "bytes32"
        }
      ],
      "stateMutability": "view",
      "type": "function"
    },
    {
      "inputs": [
        {
          "internalType": "bytes32",
          "name": "email",
          "type": "bytes32"
        }
      ],
      "name": "register",
      "outputs": [],
      "stateMutability": "nonpayable",
      "type": "function"
    }
  ],
  "transactionHash": "0xe78cd8538de429ad6c3dc3da0526a087de8dd3a5c601ccdab365a69026b77ffd",
  "args": [],
  "numDeployments": 3,
  "solcInputHash": "513f02ab21d60c440b56c1055f5d24e7",
  "bytecode": "0x608060405234801561001057600080fd5b50610297806100206000396000f3fe608060405234801561001057600080fd5b50600436106100415760003560e01c8063882358ae14610046578063cb2da07c146100a6578063e1fa8e84146100d4575b600080fd5b61007c61005436600461020b565b60009081526020819052604090205473ffffffffffffffffffffffffffffffffffffffff1690565b60405173ffffffffffffffffffffffffffffffffffffffff90911681526020015b60405180910390f35b6100c66100b4366004610224565b60016020526000908152604090205481565b60405190815260200161009d565b6100e76100e236600461020b565b6100e9565b005b60008181526020819052604090205473ffffffffffffffffffffffffffffffffffffffff1615610179576040517f08c379a000000000000000000000000000000000000000000000000000000000815260206004820152600c60248201527f616c72656164792062696e640000000000000000000000000000000000000000604482015260640160405180910390fd5b3360009081526001602052604090205480156101c457600081815260208190526040902080547fffffffffffffffffffffffff00000000000000000000000000000000000000001690555b5060008181526020818152604080832080547fffffffffffffffffffffffff0000000000000000000000000000000000000000163390811790915583526001909152902055565b60006020828403121561021d57600080fd5b5035919050565b60006020828403121561023657600080fd5b813573ffffffffffffffffffffffffffffffffffffffff8116811461025a57600080fd5b939250505056fea264697066735822122095255128d473a3fcc3d7cb1e19be104c6f0d55dfe6b9bb5fd4879eeecefbe0db64736f6c634300080f0033",
  "devdoc": {
    "kind": "dev",
    "methods": {},
    "version": 1
  },
  "userdoc": {
    "kind": "user",
    "methods": {},
    "version": 1
  },
  "storageLayout": {
    "storage": [
      {
        "astId": 8,
        "contract": "contracts/accounts/secp256r1/SimpleEmailGuardian.sol:SimpleEmailGuardian",
        "label": "users",
        "offset": 0,
        "slot": "0",
        "type": "t_mapping(t_bytes32,t_address)"
      },
      {
        "astId": 12,
        "contract": "contracts/accounts/secp256r1/SimpleEmailGuardian.sol:SimpleEmailGuardian",
        "label": "emails",
        "offset": 0,
        "slot": "1",
        "type": "t_mapping(t_address,t_bytes32)"
      }
    ],
    "types": {
      "t_address": {
        "encoding": "inplace",
        "label": "address",
        "numberOfBytes": "20"
      },
      "t_bytes32": {
        "encoding": "inplace",
        "label": "bytes32",
        "numberOfBytes": "32"
      },
      "t_mapping(t_address,t_bytes32)": {
        "encoding": "mapping",
        "key": "t_address",
        "label": "mapping(address => bytes32)",
        "numberOfBytes": "32",
        "value": "t_bytes32"
      },
      "t_mapping(t_bytes32,t_address)": {
        "encoding": "mapping",
        "key": "t_bytes32",
        "label": "mapping(bytes32 => address)",
        "numberOfBytes": "32",
        "value": "t_address"
      }
    }
  }
}