{
  "address": "0x600624ea3A7ac1457C8E028C90631B9845A8F588",
  "abi": [
    {
      "anonymous": false,
      "inputs": [
        {
          "indexed": true,
          "internalType": "address",
          "name": "previousOwner",
          "type": "address"
        },
        {
          "indexed": true,
          "internalType": "address",
          "name": "newOwner",
          "type": "address"
        }
      ],
      "name": "OwnershipTransferred",
      "type": "event"
    },
    {
      "inputs": [
        {
          "internalType": "bytes32",
          "name": "email",
          "type": "bytes32"
        }
      ],
      "name": "account",
      "outputs": [
        {
          "internalType": "address",
          "name": "",
          "type": "address"
        }
      ],
      "stateMutability": "view",
      "type": "function"
    },
    {
      "inputs": [
        {
          "internalType": "bytes32",
          "name": "email",
          "type": "bytes32"
        }
      ],
      "name": "clean",
      "outputs": [],
      "stateMutability": "nonpayable",
      "type": "function"
    },
    {
      "inputs": [
        {
          "internalType": "address",
          "name": "",
          "type": "address"
        }
      ],
      "name": "emails",
      "outputs": [
        {
          "internalType": "bytes32",
          "name": "",
          "type": "bytes32"
        }
      ],
      "stateMutability": "view",
      "type": "function"
    },
    {
      "inputs": [],
      "name": "owner",
      "outputs": [
        {
          "internalType": "address",
          "name": "",
          "type": "address"
        }
      ],
      "stateMutability": "view",
      "type": "function"
    },
    {
      "inputs": [
        {
          "internalType": "bytes32",
          "name": "email",
          "type": "bytes32"
        }
      ],
      "name": "register",
      "outputs": [],
      "stateMutability": "nonpayable",
      "type": "function"
    },
    {
      "inputs": [],
      "name": "renounceOwnership",
      "outputs": [],
      "stateMutability": "nonpayable",
      "type": "function"
    },
    {
      "inputs": [
        {
          "internalType": "address",
          "name": "newOwner",
          "type": "address"
        }
      ],
      "name": "transferOwnership",
      "outputs": [],
      "stateMutability": "nonpayable",
      "type": "function"
    }
  ],
  "transactionHash": "0x0e9e21986628d25082b6c076d728fd9bb6c16932983b53cc15718753bb46c7a6",
  "args": [],
  "numDeployments": 4,
  "solcInputHash": "2382502c1581fd711134d7d01487f319",
  "bytecode": "0x608060405234801561001057600080fd5b5061001a3361001f565b61006f565b600080546001600160a01b038381166001600160a01b0319831681178455604051919092169283917f8be0079c531659141344cd1fd0a4f28419497f9722a3daafe3b4186f6b6457e09190a35050565b61054e8061007e6000396000f3fe608060405234801561001057600080fd5b506004361061007d5760003560e01c806397b03b531161005b57806397b03b531461010a578063cb2da07c1461011d578063e1fa8e841461014b578063f2fde38b1461015e57600080fd5b8063715018a614610082578063882358ae1461008c5780638da5cb5b146100ec575b600080fd5b61008a610171565b005b6100c261009a3660046104c2565b60009081526001602052604090205473ffffffffffffffffffffffffffffffffffffffff1690565b60405173ffffffffffffffffffffffffffffffffffffffff90911681526020015b60405180910390f35b60005473ffffffffffffffffffffffffffffffffffffffff166100c2565b61008a6101183660046104c2565b610185565b61013d61012b3660046104db565b60026020526000908152604090205481565b6040519081526020016100e3565b61008a6101593660046104c2565b6101f0565b61008a61016c3660046104db565b610315565b6101796103cc565b610183600061044d565b565b61018d6103cc565b6000818152600160208181526040808420805473ffffffffffffffffffffffffffffffffffffffff1685526002835290842084905593909252905280547fffffffffffffffffffffffff0000000000000000000000000000000000000000169055565b60008181526001602052604090205473ffffffffffffffffffffffffffffffffffffffff1615610281576040517f08c379a000000000000000000000000000000000000000000000000000000000815260206004820152600c60248201527f616c72656164792062696e64000000000000000000000000000000000000000060448201526064015b60405180910390fd5b3360009081526002602052604090205480156102cc57600081815260016020526040902080547fffffffffffffffffffffffff00000000000000000000000000000000000000001690555b50600081815260016020908152604080832080547fffffffffffffffffffffffff0000000000000000000000000000000000000000163390811790915583526002909152902055565b61031d6103cc565b73ffffffffffffffffffffffffffffffffffffffff81166103c0576040517f08c379a000000000000000000000000000000000000000000000000000000000815260206004820152602660248201527f4f776e61626c653a206e6577206f776e657220697320746865207a65726f206160448201527f64647265737300000000000000000000000000000000000000000000000000006064820152608401610278565b6103c98161044d565b50565b60005473ffffffffffffffffffffffffffffffffffffffff163314610183576040517f08c379a000000000000000000000000000000000000000000000000000000000815260206004820181905260248201527f4f776e61626c653a2063616c6c6572206973206e6f7420746865206f776e65726044820152606401610278565b6000805473ffffffffffffffffffffffffffffffffffffffff8381167fffffffffffffffffffffffff0000000000000000000000000000000000000000831681178455604051919092169283917f8be0079c531659141344cd1fd0a4f28419497f9722a3daafe3b4186f6b6457e09190a35050565b6000602082840312156104d457600080fd5b5035919050565b6000602082840312156104ed57600080fd5b813573ffffffffffffffffffffffffffffffffffffffff8116811461051157600080fd5b939250505056fea264697066735822122032c9d9a196e6356aa0be491b8be0b5eeb8695e47eff81d1383e65230c3e099c364736f6c634300080f0033",
  "devdoc": {
    "kind": "dev",
    "methods": {
      "owner()": {
        "details": "Returns the address of the current owner."
      },
      "renounceOwnership()": {
        "details": "Leaves the contract without owner. It will not be possible to call `onlyOwner` functions anymore. Can only be called by the current owner. NOTE: Renouncing ownership will leave the contract without an owner, thereby removing any functionality that is only available to the owner."
      },
      "transferOwnership(address)": {
        "details": "Transfers ownership of the contract to a new account (`newOwner`). Can only be called by the current owner."
      }
    },
    "version": 1
  },
  "userdoc": {
    "kind": "user",
    "methods": {},
    "version": 1
  },
  "storageLayout": {
    "storage": [
      {
        "astId": 1087,
        "contract": "contracts/accounts/secp256r1/SimpleEmailGuardian.sol:SimpleEmailGuardian",
        "label": "_owner",
        "offset": 0,
        "slot": "0",
        "type": "t_address"
      },
      {
        "astId": 4639,
        "contract": "contracts/accounts/secp256r1/SimpleEmailGuardian.sol:SimpleEmailGuardian",
        "label": "users",
        "offset": 0,
        "slot": "1",
        "type": "t_mapping(t_bytes32,t_address)"
      },
      {
        "astId": 4643,
        "contract": "contracts/accounts/secp256r1/SimpleEmailGuardian.sol:SimpleEmailGuardian",
        "label": "emails",
        "offset": 0,
        "slot": "2",
        "type": "t_mapping(t_address,t_bytes32)"
      }
    ],
    "types": {
      "t_address": {
        "encoding": "inplace",
        "label": "address",
        "numberOfBytes": "20"
      },
      "t_bytes32": {
        "encoding": "inplace",
        "label": "bytes32",
        "numberOfBytes": "32"
      },
      "t_mapping(t_address,t_bytes32)": {
        "encoding": "mapping",
        "key": "t_address",
        "label": "mapping(address => bytes32)",
        "numberOfBytes": "32",
        "value": "t_bytes32"
      },
      "t_mapping(t_bytes32,t_address)": {
        "encoding": "mapping",
        "key": "t_bytes32",
        "label": "mapping(bytes32 => address)",
        "numberOfBytes": "32",
        "value": "t_address"
      }
    }
  }
}