{
  "address": "0xab3bEfc4de4c95830A962656827Ddc60e95ECBd3",
  "abi": [
    {
      "inputs": [
        {
          "internalType": "bytes32",
          "name": "email",
          "type": "bytes32"
        }
      ],
      "name": "account",
      "outputs": [
        {
          "internalType": "address",
          "name": "",
          "type": "address"
        }
      ],
      "stateMutability": "view",
      "type": "function"
    },
    {
      "inputs": [
        {
          "internalType": "bytes32",
          "name": "email",
          "type": "bytes32"
        }
      ],
      "name": "register",
      "outputs": [],
      "stateMutability": "nonpayable",
      "type": "function"
    }
  ],
  "transactionHash": "0xae23b318589c2221bfbbc4fefafef1c3646765b9b55ecbd36747e4e76169b1bf",
  "args": [],
  "numDeployments": 1,
  "solcInputHash": "8235851529ed4bd0787f80f68fb6dd60",
  "bytecode": "0x608060405234801561001057600080fd5b506101c6806100206000396000f3fe608060405234801561001057600080fd5b50600436106100365760003560e01c8063882358ae1461003b578063e1fa8e841461009a575b600080fd5b610071610049366004610177565b60009081526020819052604090205473ffffffffffffffffffffffffffffffffffffffff1690565b60405173ffffffffffffffffffffffffffffffffffffffff909116815260200160405180910390f35b6100ad6100a8366004610177565b6100af565b005b60008181526020819052604090205473ffffffffffffffffffffffffffffffffffffffff161561013f576040517f08c379a000000000000000000000000000000000000000000000000000000000815260206004820152600c60248201527f616c72656164792062696e640000000000000000000000000000000000000000604482015260640160405180910390fd5b600090815260208190526040902080547fffffffffffffffffffffffff00000000000000000000000000000000000000001633179055565b60006020828403121561018957600080fd5b503591905056fea2646970667358221220309091113652cd34e9fa2a9d9bbced3f76533bb237d7d7860e4156d3d5a77be864736f6c634300080f0033",
  "devdoc": {
    "kind": "dev",
    "methods": {},
    "version": 1
  },
  "userdoc": {
    "kind": "user",
    "methods": {},
    "version": 1
  },
  "storageLayout": {
    "storage": [
      {
        "astId": 4411,
        "contract": "contracts/accounts/secp256r1/SimpleEmailGuardian.sol:SimpleEmailGuardian",
        "label": "users",
        "offset": 0,
        "slot": "0",
        "type": "t_mapping(t_bytes32,t_address)"
      }
    ],
    "types": {
      "t_address": {
        "encoding": "inplace",
        "label": "address",
        "numberOfBytes": "20"
      },
      "t_bytes32": {
        "encoding": "inplace",
        "label": "bytes32",
        "numberOfBytes": "32"
      },
      "t_mapping(t_bytes32,t_address)": {
        "encoding": "mapping",
        "key": "t_bytes32",
        "label": "mapping(bytes32 => address)",
        "numberOfBytes": "32",
        "value": "t_address"
      }
    }
  }
}