{
  "address": "0x522D0d3312872E98D1CaC1e12aEB749CB5b0C8d3",
  "abi": [
    {
      "inputs": [
        {
          "internalType": "contract IEntryPoint",
          "name": "_entryPoint",
          "type": "address"
        },
        {
          "internalType": "address",
          "name": "_verifyingSigner",
          "type": "address"
        }
      ],
      "stateMutability": "nonpayable",
      "type": "constructor"
    },
    {
      "anonymous": false,
      "inputs": [
        {
          "indexed": true,
          "internalType": "address",
          "name": "previousOwner",
          "type": "address"
        },
        {
          "indexed": true,
          "internalType": "address",
          "name": "newOwner",
          "type": "address"
        }
      ],
      "name": "OwnershipTransferred",
      "type": "event"
    },
    {
      "inputs": [
        {
          "internalType": "uint32",
          "name": "unstakeDelaySec",
          "type": "uint32"
        }
      ],
      "name": "addStake",
      "outputs": [],
      "stateMutability": "payable",
      "type": "function"
    },
    {
      "inputs": [
        {
          "internalType": "address",
          "name": "_verifyingSigner",
          "type": "address"
        }
      ],
      "name": "changeSigner",
      "outputs": [],
      "stateMutability": "nonpayable",
      "type": "function"
    },
    {
      "inputs": [],
      "name": "deposit",
      "outputs": [],
      "stateMutability": "payable",
      "type": "function"
    },
    {
      "inputs": [],
      "name": "entryPoint",
      "outputs": [
        {
          "internalType": "contract IEntryPoint",
          "name": "",
          "type": "address"
        }
      ],
      "stateMutability": "view",
      "type": "function"
    },
    {
      "inputs": [],
      "name": "getDeposit",
      "outputs": [
        {
          "internalType": "uint256",
          "name": "",
          "type": "uint256"
        }
      ],
      "stateMutability": "view",
      "type": "function"
    },
    {
      "inputs": [
        {
          "components": [
            {
              "internalType": "address",
              "name": "sender",
              "type": "address"
            },
            {
              "internalType": "uint256",
              "name": "nonce",
              "type": "uint256"
            },
            {
              "internalType": "bytes",
              "name": "initCode",
              "type": "bytes"
            },
            {
              "internalType": "bytes",
              "name": "callData",
              "type": "bytes"
            },
            {
              "internalType": "uint256",
              "name": "callGasLimit",
              "type": "uint256"
            },
            {
              "internalType": "uint256",
              "name": "verificationGasLimit",
              "type": "uint256"
            },
            {
              "internalType": "uint256",
              "name": "preVerificationGas",
              "type": "uint256"
            },
            {
              "internalType": "uint256",
              "name": "maxFeePerGas",
              "type": "uint256"
            },
            {
              "internalType": "uint256",
              "name": "maxPriorityFeePerGas",
              "type": "uint256"
            },
            {
              "internalType": "bytes",
              "name": "paymasterAndData",
              "type": "bytes"
            },
            {
              "internalType": "bytes",
              "name": "signature",
              "type": "bytes"
            }
          ],
          "internalType": "struct UserOperation",
          "name": "userOp",
          "type": "tuple"
        },
        {
          "internalType": "uint48",
          "name": "validUntil",
          "type": "uint48"
        },
        {
          "internalType": "uint48",
          "name": "validAfter",
          "type": "uint48"
        }
      ],
      "name": "getHash",
      "outputs": [
        {
          "internalType": "bytes32",
          "name": "",
          "type": "bytes32"
        }
      ],
      "stateMutability": "view",
      "type": "function"
    },
    {
      "inputs": [],
      "name": "owner",
      "outputs": [
        {
          "internalType": "address",
          "name": "",
          "type": "address"
        }
      ],
      "stateMutability": "view",
      "type": "function"
    },
    {
      "inputs": [
        {
          "internalType": "bytes",
          "name": "paymasterAndData",
          "type": "bytes"
        }
      ],
      "name": "parsePaymasterAndData",
      "outputs": [
        {
          "internalType": "uint48",
          "name": "validUntil",
          "type": "uint48"
        },
        {
          "internalType": "uint48",
          "name": "validAfter",
          "type": "uint48"
        },
        {
          "internalType": "bytes",
          "name": "signature",
          "type": "bytes"
        }
      ],
      "stateMutability": "pure",
      "type": "function"
    },
    {
      "inputs": [
        {
          "internalType": "enum IPaymaster.PostOpMode",
          "name": "mode",
          "type": "uint8"
        },
        {
          "internalType": "bytes",
          "name": "context",
          "type": "bytes"
        },
        {
          "internalType": "uint256",
          "name": "actualGasCost",
          "type": "uint256"
        }
      ],
      "name": "postOp",
      "outputs": [],
      "stateMutability": "nonpayable",
      "type": "function"
    },
    {
      "inputs": [],
      "name": "renounceOwnership",
      "outputs": [],
      "stateMutability": "nonpayable",
      "type": "function"
    },
    {
      "inputs": [
        {
          "internalType": "address",
          "name": "",
          "type": "address"
        }
      ],
      "name": "senderNonce",
      "outputs": [
        {
          "internalType": "uint256",
          "name": "",
          "type": "uint256"
        }
      ],
      "stateMutability": "view",
      "type": "function"
    },
    {
      "inputs": [
        {
          "internalType": "address",
          "name": "newOwner",
          "type": "address"
        }
      ],
      "name": "transferOwnership",
      "outputs": [],
      "stateMutability": "nonpayable",
      "type": "function"
    },
    {
      "inputs": [],
      "name": "unlockStake",
      "outputs": [],
      "stateMutability": "nonpayable",
      "type": "function"
    },
    {
      "inputs": [
        {
          "components": [
            {
              "internalType": "address",
              "name": "sender",
              "type": "address"
            },
            {
              "internalType": "uint256",
              "name": "nonce",
              "type": "uint256"
            },
            {
              "internalType": "bytes",
              "name": "initCode",
              "type": "bytes"
            },
            {
              "internalType": "bytes",
              "name": "callData",
              "type": "bytes"
            },
            {
              "internalType": "uint256",
              "name": "callGasLimit",
              "type": "uint256"
            },
            {
              "internalType": "uint256",
              "name": "verificationGasLimit",
              "type": "uint256"
            },
            {
              "internalType": "uint256",
              "name": "preVerificationGas",
              "type": "uint256"
            },
            {
              "internalType": "uint256",
              "name": "maxFeePerGas",
              "type": "uint256"
            },
            {
              "internalType": "uint256",
              "name": "maxPriorityFeePerGas",
              "type": "uint256"
            },
            {
              "internalType": "bytes",
              "name": "paymasterAndData",
              "type": "bytes"
            },
            {
              "internalType": "bytes",
              "name": "signature",
              "type": "bytes"
            }
          ],
          "internalType": "struct UserOperation",
          "name": "userOp",
          "type": "tuple"
        },
        {
          "internalType": "bytes32",
          "name": "userOpHash",
          "type": "bytes32"
        },
        {
          "internalType": "uint256",
          "name": "maxCost",
          "type": "uint256"
        }
      ],
      "name": "validatePaymasterUserOp",
      "outputs": [
        {
          "internalType": "bytes",
          "name": "context",
          "type": "bytes"
        },
        {
          "internalType": "uint256",
          "name": "validationData",
          "type": "uint256"
        }
      ],
      "stateMutability": "nonpayable",
      "type": "function"
    },
    {
      "inputs": [],
      "name": "verifyingSigner",
      "outputs": [
        {
          "internalType": "address",
          "name": "",
          "type": "address"
        }
      ],
      "stateMutability": "view",
      "type": "function"
    },
    {
      "inputs": [
        {
          "internalType": "address payable",
          "name": "withdrawAddress",
          "type": "address"
        }
      ],
      "name": "withdrawStake",
      "outputs": [],
      "stateMutability": "nonpayable",
      "type": "function"
    },
    {
      "inputs": [
        {
          "internalType": "address payable",
          "name": "withdrawAddress",
          "type": "address"
        },
        {
          "internalType": "uint256",
          "name": "amount",
          "type": "uint256"
        }
      ],
      "name": "withdrawTo",
      "outputs": [],
      "stateMutability": "nonpayable",
      "type": "function"
    }
  ],
  "transactionHash": "0xe618ef0943f7978ea068a46205a1dffcb277152695ec4462adeb8a3bafac1772",
  "args": [
    "0x893047826bC7185a06b123404aCfa22870Ba637D",
    "0x7c029553644F5E9442cb576c1056e0f7663Db1Fa"
  ],
  "numDeployments": 2,
  "solcInputHash": "d7f0c753475ed23acc13b2bbb66e7dd5",
  "bytecode": "0x60a06040523480156200001157600080fd5b5060405162001779380380620017798339810160408190526200003491620000d6565b8162000040336200006d565b6001600160a01b03908116608052600180546001600160a01b031916929091169190911790555062000115565b600080546001600160a01b038381166001600160a01b0319831681178455604051919092169283917f8be0079c531659141344cd1fd0a4f28419497f9722a3daafe3b4186f6b6457e09190a35050565b6001600160a01b0381168114620000d357600080fd5b50565b60008060408385031215620000ea57600080fd5b8251620000f781620000bd565b60208401519092506200010a81620000bd565b809150509250929050565b60805161161762000162600039600081816102bc015281816103ba01528181610484015281816105f6015281816106bd0152818161074d015281816108000152610a8701526116176000f3fe60806040526004361061010e5760003560e01c8063a9a23409116100a5578063c23a5cea11610074578063d0e30db011610059578063d0e30db014610328578063f2fde38b14610330578063f465c77e1461035057600080fd5b8063c23a5cea146102f3578063c399ec881461031357600080fd5b8063a9a234091461026a578063aad2b7231461028a578063b0d691fe146102aa578063bb9fe6bf146102de57600080fd5b80638da5cb5b116100e15780638da5cb5b146101b457806394d4ad60146101df57806394e1fc191461020f5780639c90b4431461023d57600080fd5b80630396cb6014610113578063205c28781461012857806323d9ac9b14610148578063715018a61461019f575b600080fd5b6101266101213660046110c8565b61037e565b005b34801561013457600080fd5b50610126610143366004611117565b610430565b34801561015457600080fd5b506001546101759073ffffffffffffffffffffffffffffffffffffffff1681565b60405173ffffffffffffffffffffffffffffffffffffffff90911681526020015b60405180910390f35b3480156101ab57600080fd5b506101266104c8565b3480156101c057600080fd5b5060005473ffffffffffffffffffffffffffffffffffffffff16610175565b3480156101eb57600080fd5b506101ff6101fa366004611185565b6104dc565b60405161019694939291906111c7565b34801561021b57600080fd5b5061022f61022a366004611265565b610519565b604051908152602001610196565b34801561024957600080fd5b5061022f6102583660046112c3565b60026020526000908152604090205481565b34801561027657600080fd5b506101266102853660046112e0565b610583565b34801561029657600080fd5b506101266102a53660046112c3565b61059d565b3480156102b657600080fd5b506101757f000000000000000000000000000000000000000000000000000000000000000081565b3480156102ea57600080fd5b506101266105ec565b3480156102ff57600080fd5b5061012661030e3660046112c3565b610670565b34801561031f57600080fd5b5061022f61071c565b6101266107d2565b34801561033c57600080fd5b5061012661034b3660046112c3565b61085a565b34801561035c57600080fd5b5061037061036b366004611340565b610916565b6040516101969291906113f9565b61038661093a565b6040517f0396cb6000000000000000000000000000000000000000000000000000000000815263ffffffff821660048201527f000000000000000000000000000000000000000000000000000000000000000073ffffffffffffffffffffffffffffffffffffffff1690630396cb609034906024016000604051808303818588803b15801561041457600080fd5b505af1158015610428573d6000803e3d6000fd5b505050505050565b61043861093a565b6040517f205c287800000000000000000000000000000000000000000000000000000000815273ffffffffffffffffffffffffffffffffffffffff8381166004830152602482018390527f0000000000000000000000000000000000000000000000000000000000000000169063205c287890604401600060405180830381600087803b15801561041457600080fd5b6104d061093a565b6104da60006109bb565b565b60008036816104ef60546014878961141b565b8101906104fc9190611445565b909450925061050e856054818961141b565b949793965094505050565b600061052484610a30565b73ffffffffffffffffffffffffffffffffffffffff8535166000908152600260209081526040918290205491516105649392469230928991899101611478565b6040516020818303038152906040528051906020012090509392505050565b61058b610a6f565b61059784848484610b0e565b50505050565b6105a561093a565b600180547fffffffffffffffffffffffff00000000000000000000000000000000000000001673ffffffffffffffffffffffffffffffffffffffff92909216919091179055565b6105f461093a565b7f000000000000000000000000000000000000000000000000000000000000000073ffffffffffffffffffffffffffffffffffffffff1663bb9fe6bf6040518163ffffffff1660e01b8152600401600060405180830381600087803b15801561065c57600080fd5b505af1158015610597573d6000803e3d6000fd5b61067861093a565b6040517fc23a5cea00000000000000000000000000000000000000000000000000000000815273ffffffffffffffffffffffffffffffffffffffff82811660048301527f0000000000000000000000000000000000000000000000000000000000000000169063c23a5cea90602401600060405180830381600087803b15801561070157600080fd5b505af1158015610715573d6000803e3d6000fd5b5050505050565b6040517f70a082310000000000000000000000000000000000000000000000000000000081523060048201526000907f000000000000000000000000000000000000000000000000000000000000000073ffffffffffffffffffffffffffffffffffffffff16906370a0823190602401602060405180830381865afa1580156107a9573d6000803e3d6000fd5b505050506040513d601f19601f820116820180604052508101906107cd91906114d5565b905090565b6040517fb760faf90000000000000000000000000000000000000000000000000000000081523060048201527f000000000000000000000000000000000000000000000000000000000000000073ffffffffffffffffffffffffffffffffffffffff169063b760faf99034906024016000604051808303818588803b15801561070157600080fd5b61086261093a565b73ffffffffffffffffffffffffffffffffffffffff811661090a576040517f08c379a000000000000000000000000000000000000000000000000000000000815260206004820152602660248201527f4f776e61626c653a206e6577206f776e657220697320746865207a65726f206160448201527f646472657373000000000000000000000000000000000000000000000000000060648201526084015b60405180910390fd5b610913816109bb565b50565b60606000610922610a6f565b61092d858585610b70565b915091505b935093915050565b60005473ffffffffffffffffffffffffffffffffffffffff1633146104da576040517f08c379a000000000000000000000000000000000000000000000000000000000815260206004820181905260248201527f4f776e61626c653a2063616c6c6572206973206e6f7420746865206f776e65726044820152606401610901565b6000805473ffffffffffffffffffffffffffffffffffffffff8381167fffffffffffffffffffffffff0000000000000000000000000000000000000000831681178455604051919092169283917f8be0079c531659141344cd1fd0a4f28419497f9722a3daafe3b4186f6b6457e09190a35050565b6060366000610a436101208501856114ee565b915091508360208184030360405194506020810185016040528085528082602087013750505050919050565b3373ffffffffffffffffffffffffffffffffffffffff7f000000000000000000000000000000000000000000000000000000000000000016146104da576040517f08c379a000000000000000000000000000000000000000000000000000000000815260206004820152601560248201527f53656e646572206e6f7420456e747279506f696e7400000000000000000000006044820152606401610901565b6040517f08c379a000000000000000000000000000000000000000000000000000000000815260206004820152600d60248201527f6d757374206f76657272696465000000000000000000000000000000000000006044820152606401610901565b6060600080803681610b896101fa6101208b018b6114ee565b929650909450925090506040811480610ba25750604181145b610c3057604080517f08c379a00000000000000000000000000000000000000000000000000000000081526020600482015260248101919091527f566572696679696e675061796d61737465723a20696e76616c6964207369676e60448201527f6174757265206c656e67746820696e207061796d6173746572416e64446174616064820152608401610901565b6000610c93610c408b8787610519565b6040517f19457468657265756d205369676e6564204d6573736167653a0a3332000000006020820152603c8101829052600090605c01604051602081830303815290604052805190602001209050919050565b73ffffffffffffffffffffffffffffffffffffffff8b35166000908152600260205260408120805492935090610cc883611553565b9190505550610d0d8184848080601f016020809104026020016040519081016040528093929190818152602001838380828437600092019190915250610d8592505050565b60015473ffffffffffffffffffffffffffffffffffffffff908116911614610d5a57610d3b60018686610da9565b6040518060200160405280600081525090965096505050505050610932565b610d6660008686610da9565b6040805160208101909152600081529b909a5098505050505050505050565b6000806000610d948585610de1565b91509150610da181610e26565b509392505050565b600060d08265ffffffffffff16901b60a08465ffffffffffff16901b85610dd1576000610dd4565b60015b60ff161717949350505050565b6000808251604103610e175760208301516040840151606085015160001a610e0b87828585610fd9565b94509450505050610e1f565b506000905060025b9250929050565b6000816004811115610e3a57610e3a6115b2565b03610e425750565b6001816004811115610e5657610e566115b2565b03610ebd576040517f08c379a000000000000000000000000000000000000000000000000000000000815260206004820152601860248201527f45434453413a20696e76616c6964207369676e617475726500000000000000006044820152606401610901565b6002816004811115610ed157610ed16115b2565b03610f38576040517f08c379a000000000000000000000000000000000000000000000000000000000815260206004820152601f60248201527f45434453413a20696e76616c6964207369676e6174757265206c656e677468006044820152606401610901565b6003816004811115610f4c57610f4c6115b2565b03610913576040517f08c379a000000000000000000000000000000000000000000000000000000000815260206004820152602260248201527f45434453413a20696e76616c6964207369676e6174757265202773272076616c60448201527f75650000000000000000000000000000000000000000000000000000000000006064820152608401610901565b6000807f7fffffffffffffffffffffffffffffff5d576e7357a4501ddfe92f46681b20a083111561101057506000905060036110bf565b6040805160008082526020820180845289905260ff881692820192909252606081018690526080810185905260019060a0016020604051602081039080840390855afa158015611064573d6000803e3d6000fd5b50506040517fffffffffffffffffffffffffffffffffffffffffffffffffffffffffffffffe0015191505073ffffffffffffffffffffffffffffffffffffffff81166110b8576000600192509250506110bf565b9150600090505b94509492505050565b6000602082840312156110da57600080fd5b813563ffffffff811681146110ee57600080fd5b9392505050565b73ffffffffffffffffffffffffffffffffffffffff8116811461091357600080fd5b6000806040838503121561112a57600080fd5b8235611135816110f5565b946020939093013593505050565b60008083601f84011261115557600080fd5b50813567ffffffffffffffff81111561116d57600080fd5b602083019150836020828501011115610e1f57600080fd5b6000806020838503121561119857600080fd5b823567ffffffffffffffff8111156111af57600080fd5b6111bb85828601611143565b90969095509350505050565b600065ffffffffffff8087168352808616602084015250606060408301528260608301528284608084013760006080848401015260807fffffffffffffffffffffffffffffffffffffffffffffffffffffffffffffffe0601f850116830101905095945050505050565b6000610160828403121561124457600080fd5b50919050565b803565ffffffffffff8116811461126057600080fd5b919050565b60008060006060848603121561127a57600080fd5b833567ffffffffffffffff81111561129157600080fd5b61129d86828701611231565b9350506112ac6020850161124a565b91506112ba6040850161124a565b90509250925092565b6000602082840312156112d557600080fd5b81356110ee816110f5565b600080600080606085870312156112f657600080fd5b84356003811061130557600080fd5b9350602085013567ffffffffffffffff81111561132157600080fd5b61132d87828801611143565b9598909750949560400135949350505050565b60008060006060848603121561135557600080fd5b833567ffffffffffffffff81111561136c57600080fd5b61137886828701611231565b9660208601359650604090950135949350505050565b6000815180845260005b818110156113b457602081850181015186830182015201611398565b818111156113c6576000602083870101525b50601f017fffffffffffffffffffffffffffffffffffffffffffffffffffffffffffffffe0169290920160200192915050565b60408152600061140c604083018561138e565b90508260208301529392505050565b6000808585111561142b57600080fd5b8386111561143857600080fd5b5050820193919092039150565b6000806040838503121561145857600080fd5b6114618361124a565b915061146f6020840161124a565b90509250929050565b60c08152600061148b60c083018961138e565b60208301979097525073ffffffffffffffffffffffffffffffffffffffff949094166040850152606084019290925265ffffffffffff90811660808401521660a090910152919050565b6000602082840312156114e757600080fd5b5051919050565b60008083357fffffffffffffffffffffffffffffffffffffffffffffffffffffffffffffffe184360301811261152357600080fd5b83018035915067ffffffffffffffff82111561153e57600080fd5b602001915036819003821315610e1f57600080fd5b60007fffffffffffffffffffffffffffffffffffffffffffffffffffffffffffffffff82036115ab577f4e487b7100000000000000000000000000000000000000000000000000000000600052601160045260246000fd5b5060010190565b7f4e487b7100000000000000000000000000000000000000000000000000000000600052602160045260246000fdfea264697066735822122010e4e04aaf2d23ccaa7d30fa31691d0478f769c869f3db24588de37731a22a7c64736f6c634300080f0033",
  "devdoc": {
    "kind": "dev",
    "methods": {
      "addStake(uint32)": {
        "params": {
          "unstakeDelaySec": "- the unstake delay for this paymaster. Can only be increased."
        }
      },
      "owner()": {
        "details": "Returns the address of the current owner."
      },
      "postOp(uint8,bytes,uint256)": {
        "params": {
          "actualGasCost": "- actual gas used so far (without this postOp call).",
          "context": "- the context value returned by validatePaymasterUserOp",
          "mode": "enum with the following options:      opSucceeded - user operation succeeded.      opReverted  - user op reverted. still has to pay for gas.      postOpReverted - user op succeeded, but caused postOp (in mode=opSucceeded) to revert.                       Now this is the 2nd call, after user's op was deliberately reverted."
        }
      },
      "renounceOwnership()": {
        "details": "Leaves the contract without owner. It will not be possible to call `onlyOwner` functions anymore. Can only be called by the current owner. NOTE: Renouncing ownership will leave the contract without an owner, thereby removing any functionality that is only available to the owner."
      },
      "transferOwnership(address)": {
        "details": "Transfers ownership of the contract to a new account (`newOwner`). Can only be called by the current owner."
      },
      "validatePaymasterUserOp((address,uint256,bytes,bytes,uint256,uint256,uint256,uint256,uint256,bytes,bytes),bytes32,uint256)": {
        "params": {
          "maxCost": "the maximum cost of this transaction (based on maximum gas and gas price from userOp)",
          "userOp": "the user operation",
          "userOpHash": "hash of the user's request data."
        },
        "returns": {
          "context": "value to send to a postOp      zero length to signify postOp is not required.",
          "validationData": "signature and time-range of this operation, encoded the same as the return value of validateUserOperation      <20-byte> sigAuthorizer - 0 for valid signature, 1 to mark signature failure,         otherwise, an address of an \"authorizer\" contract.      <6-byte> validUntil - last timestamp this operation is valid. 0 for \"indefinite\"      <6-byte> validAfter - first timestamp this operation is valid      Note that the validation code cannot use block.timestamp (or block.number) directly."
        }
      },
      "withdrawStake(address)": {
        "params": {
          "withdrawAddress": "the address to send withdrawn value."
        }
      },
      "withdrawTo(address,uint256)": {
        "params": {
          "amount": "to withdraw",
          "withdrawAddress": "target to send to"
        }
      }
    },
    "version": 1
  },
  "userdoc": {
    "kind": "user",
    "methods": {
      "addStake(uint32)": {
        "notice": "add stake for this paymaster. This method can also carry eth value to add to the current stake."
      },
      "deposit()": {
        "notice": "add a deposit for this paymaster, used for paying for transaction fees"
      },
      "getDeposit()": {
        "notice": "return current paymaster's deposit on the entryPoint."
      },
      "postOp(uint8,bytes,uint256)": {
        "notice": "post-operation handler. Must verify sender is the entryPoint"
      },
      "unlockStake()": {
        "notice": "unlock the stake, in order to withdraw it. The paymaster can't serve requests once unlocked, until it calls addStake again"
      },
      "validatePaymasterUserOp((address,uint256,bytes,bytes,uint256,uint256,uint256,uint256,uint256,bytes,bytes),bytes32,uint256)": {
        "notice": "payment validation: check if paymaster agrees to pay. Must verify sender is the entryPoint. Revert to reject this request. Note that bundlers will reject this method if it changes the state, unless the paymaster is trusted (whitelisted) The paymaster pre-pays using its deposit, and receive back a refund after the postOp method returns."
      },
      "withdrawStake(address)": {
        "notice": "withdraw the entire paymaster's stake. stake must be unlocked first (and then wait for the unstakeDelay to be over)"
      },
      "withdrawTo(address,uint256)": {
        "notice": "withdraw value from the deposit"
      }
    },
    "version": 1
  },
  "storageLayout": {
    "storage": [
      {
        "astId": 3864,
        "contract": "contracts/paymaster/VerifyingPaymaster.sol:VerifyingPaymaster",
        "label": "_owner",
        "offset": 0,
        "slot": "0",
        "type": "t_address"
      },
      {
        "astId": 7380,
        "contract": "contracts/paymaster/VerifyingPaymaster.sol:VerifyingPaymaster",
        "label": "verifyingSigner",
        "offset": 0,
        "slot": "1",
        "type": "t_address"
      },
      {
        "astId": 7406,
        "contract": "contracts/paymaster/VerifyingPaymaster.sol:VerifyingPaymaster",
        "label": "senderNonce",
        "offset": 0,
        "slot": "2",
        "type": "t_mapping(t_address,t_uint256)"
      }
    ],
    "types": {
      "t_address": {
        "encoding": "inplace",
        "label": "address",
        "numberOfBytes": "20"
      },
      "t_mapping(t_address,t_uint256)": {
        "encoding": "mapping",
        "key": "t_address",
        "label": "mapping(address => uint256)",
        "numberOfBytes": "32",
        "value": "t_uint256"
      },
      "t_uint256": {
        "encoding": "inplace",
        "label": "uint256",
        "numberOfBytes": "32"
      }
    }
  }
}